:020000040800F2
:10000000009000203DD00008C7B20008C9B2000827
:1000100000000000000000000000000000000000E0
:10002000000000000000000000000000F946000889
:10003000000000000000000061470008693400086B
:100040008DD000088DD000088DD000088DD000081C
:100050008DD000088DD000088DD000088DD000080C
:100060008DD00008CDB20008DDB20008F5B200085E
:100070008DD000080DB300081DB300082DB3000893
:100080003DB300088DD000088DD000088DD0000849
:100090004DB300088DD000085DB300088DD0000876
:1000A0008DD000088DD000088DD000088DD00008BC
:0C00B0006DB300087DB300088DD000087F
:1000C000F8B50F0016001D000024632C0DD8002386
:1000D00032003900280002F025FD002805D101304A
:1000E0000BF068FD0134E4B2EFE7F8BD10B5130082
:1000F0000A0001000020FFF7E3FF10BD10B5040067
:10010000E06A03F091FFA3895801C01A8000C0186B
:10011000C000FA21890002F095FE0BF04BFDEFE7DD
:10012000F0B58BB004000D1E03925CD006000E36B5
:10013000052230000EF07FF8300002F067FE301824
:100140002B4905220EF011F9270018370922290042
:1001500038000EF070F8380002F058FE38182549C3
:1001600008220EF002F9039A131C092A00D80A2368
:10017000A38105AD1422002128000EF035F880235C
:10018000AB80EB8080332B81E03B6B811F3BAB74FA
:100190000597280003F072FCE062002825D0164B7A
:1001A0000360E36A154A5A608022154823003433FD
:1001B0000193182300932300920031000BF0FAFA08
:1001C000012802D000200BB0F0BD606B0BF052FD97
:1001D0000C4B1A68511C196092009B185C6001233B
:1001E00023700120EFE70020EDE70020EBE7C04699
:1001F000303B0108383B0108E50200080503000810
:10020000FD0000084402002010B50478002C01D144
:10021000200010BD406B0BF04DFBF9E7002903D027
:1002200041608260012070470020FCE7002905D072
:1002300001638160024B4360012070470020FCE7AE
:10024000ED00000810B5002801D003F0D3FB10BD6D
:10025000F0B5C64600B507000E001500002913D002
:10026000002A14D003789846002B09D0002405E01A
:10027000315DF86AFFF7E6FF0134A4B2AC42F7D370
:10028000404680BCB846F0BD00239846F8E70023FE
:100290009846F5E7002808DB064B1B68834206DD1D
:1002A000044B80001B18586870470020FCE70020B2
:1002B000FAE7C0464402002010B5041E0FD0002209
:1002C000074B1B689A4209DA054B91005B18586886
:1002D000C36AA34203D00132D2B2F1E7002010BDBD
:1002E0004402002000B583B06B46D971FFF7E4FFEC
:1002F000002805D043688268012168460730984786
:1003000003B000BD70B50D00FFF7D6FF041E08D086
:100310004668C82128000DF0A2FFA26881B228001B
:10032000B04770BD10B5041E0FD00022074B1B68EC
:100330009A4209DA054B91005B185868036BA34297
:1003400003D00132D2B2F1E7002010BD44020020F8
:1003500070B50024012508E0074BA2009B185868DF
:10036000FFF752FF05400134E4B2034B1B689C4287
:10037000F2DB280070BDC046440200207047F0B593
:10038000C64600B507008846080003F0A5FE060033
:100390000A4B3B60092801DC012409E00A26FBE73F
:1003A000A5007D19A1B2404603F014FC2860013479
:1003B000A642F5DA300080BCB846F0BDB03B01087B
:1003C0000EB470B583B005004368002B19D0C82067
:1003D00004F00AF8041E17D008AB0193079AC8214D
:1003E00005F004FB06006B68AA6881B220009847FC
:1003F000200004F06BF8300003B070BC08BC03B000
:10040000184701267642F6E701267642F3E784B0E4
:1004100030B583B004000791089209930078002852
:100420000ED0002911D00B9B002B10D0E06A0AAB34
:100430006A4612CB12C20799089A099B03F0E8FAA0
:1004400003B030BC08BC04B018470020F8E7002017
:10045000F6E784B070B582B00690079108920993D0
:10046000002401250FE00D4BA2009B18586809AB32
:100470006A4642CB42C20699079A089BFFF7C7FF1C
:1004800005400134E4B2054B1B689C42EBDB2800BD
:1004900002B070BC08BC04B01847C046440200203B
:1004A00010B588B003AC03900491227206930A9AA7
:1004B00007920092059AFFF7CCFF08B010BDC04626
:1004C00030B505490A684B680024012512196B41B3
:1004D0000A604B6030BDC0466002002010B5054C7C
:1004E000200008F07DFA044A0E21200008F072FB7B
:1004F00010BDC046D4700020C1040008034B1B6827
:10050000586A034B596818607047C046D470002081
:100510006002002010B5FFF7F1FFFA2292000023DD
:1005200002F07EFE014B986010BDC04660020020C4
:1005300010B543011B1A9B001818C000FA2189004E
:1005400002F080FC0BF036FB10BDC04610B5040075
:100550000448FFF7E7FE002803D0A2882168FFF7D0
:1005600077FE10BD6C02002010B504000448FFF7B0
:10057000D9FE002803D0A2882168FFF769FE10BDCC
:100580006C02002010B503480CF000FB02480CF090
:10059000FDFA10BD080300206C02002010B50B4AC4
:1005A0000B490C4C200002F009F90B4900222000F5
:1005B00002F04BF9094A0A490A4C200002F0FEF801
:1005C00009490022200002F040F910BD2C770020DC
:1005D000403B010808030020690500086076002000
:1005E000483B01086C0200204D0500080FB4F0B52F
:1005F00083B00025C82003F0F7FE071E24D009AB06
:100600000193089AC82105F0F1F906000024632C33
:100610000DD8B2B20E480023390002F083FA051E4D
:1006200005D101200BF0C6FA0134E4B2EFE7002D4A
:1006300001D101267642380003F048FF300003B0B4
:10064000F0BC08BC04B0184701267642F6E7C04665
:100650006C0200200FB4F0B583B00025C82003F071
:10066000C3FE071E2ED009AB0193089AC82105F0DE
:10067000BDF906000024632C0DD8B2B21348002344
:10068000390002F04FFA051E05D101200BF092FA55
:100690000134E4B2EFE70E490C480023022202F0D5
:1006A00041FA0236002D0AD0002808D0380003F0A5
:1006B0000DFF300003B0F0BC08BC04B018470126A1
:1006C0007642F3E701267642F3E7C0466C0200204B
:1006D000EC3B010810B5FFF755FF10BD10B58AB00F
:1006E0000C00FFF7E9FD002806D021006846FFF75F
:1006F00046FE0248FFF77AFF0AB010BD503B0108E2
:1007000010B58AB00C00FFF7D7FD00280AD02100F1
:100710006846FFF734FE0448002100F0ACF90348B6
:10072000FFF764FF0AB010BD90090020603B01088C
:1007300010B58AB00C00FFF7BFFD002808D02100DB
:100740006846FFF71CFE06F043FA0248FFF74EFF2B
:100750000AB010BD703B010830B58DB00C00FFF73A
:10076000ABFD002815D0210001A8FFF708FE0028E6
:1007700011DD02980BA90DF093FB0FF065FEC4B2DA
:10078000029A0B9B9A4201D0012C08D90A48FFF724
:100790002DFF0DB030BD0948FFF728FFF9E7210014
:1007A0004B1E9941C9B2064800F052F90548210094
:1007B000FFF71CFFEDE7C0469C3B0108843B0108A6
:1007C00090090020B43B010830B58DB00C00FFF754
:1007D00073FD00281AD0210001A8FFF7D0FD0028E2
:1007E00016DD02980BA90DF05BFB041C029A0B9B13
:1007F0009A4211D00A48211C00F090F9201C12F0F6
:10080000BDFF02000B000748FFF7F0FE0DB030BD42
:100810000548FFF7EBFEF9E70448FFF7E7FEF5E7C9
:1008200090090020D43B0108843B01089C3B01084F
:1008300010B58CB00C00FFF73FFD002814D021004C
:1008400001A8FFF79CFD002810DD02980BA90DF010
:1008500027FB029A0B9B9A420CD012F08FFF0200EA
:100860000B000648FFF7C2FE0CB010BD0448FFF7AE
:10087000BDFEF9E70348FFF7B9FEF5E7F03B0108D5
:10088000843B01089C3B010870B506000C000C4934
:1008900080220AF0DFFC802C00D98024094D084911
:1008A000220028000DF061FD8023EC5282220121FC
:1008B000A954F3581A68136803318B43136070BD51
:1008C00050040020D0040020F0B5C64600B5050055
:1008D0001E00002A1FD0920094B2231D9BB298469E
:1008E000134B28229B5C002B18D1124F5A425341C4
:1008F0000F4A28201354220038000DF036FD381915
:100900000D4904220DF031FD002E09D14246390077
:10091000280009F0B5FC80BCB846F0BD074FE5E7FC
:1009200033004246390028000AF07FF9F3E7C04659
:1009300024040020A40300204C390108F8030020FF
:100940000EB470B597B006001BAB1D88142D00D9EE
:1009500014251CAB019300240FE0019B07330722F1
:1009600093431A00083201921868596812F04EFF3A
:10097000A30002AAD0500134A4B2A542EDD80023AE
:100980002A0002A93000FFF79FFF17B070BC08BC17
:1009900003B0184710B50400084BC022835009F07B
:1009A000CDFC0749802220000AF054FC8023E35844
:1009B0001A68136804218B43136010BD890800086E
:1009C00050040020F0B5C64600B51C4B012018703D
:1009D000002100255980FC27BF055F60184A9A60F6
:1009E000D960A022D2051A6140269E82154A9A61DA
:1009F00002249C839D77144C5C629862FF24A0467D
:100A00009C85CF3C185559865F6310499963042132
:100A1000D9631A6440315E529A644C222439995247
:100A20001A00303295778022D2055A6510229A65D5
:100A30004C324146995280BCB846F0BD9009002026
:100A40000873002000040050002C01404C7200206C
:100A500010B5030000699B8A002905D00022190007
:100A600006F056FB002303E00122F8E7C0460133FD
:100A7000C72BFBDD10BD10B503000A1E0DD0406A68
:100A8000016A9C6A214301629869998B002A0AD005
:100A9000002206F03DFB002309E0406A016A9C6ADF
:100AA000A1430162F0E70122F3E7C0460133C72BFF
:100AB000FBDD10BD70B505000C1CFE218905201C56
:100AC00002F09AFB002812D0FC24A405AB681E6833
:100AD000F06A10F001FE211C10F0E4F90FF0B4FCF4
:100AE000EB68102B16D89B000B4AD3589F46002169
:100AF000201C02F06DFB0028E8D0FC24A405E5E7EB
:100B0000706308E0B06306E0F06304E0306402E084
:100B1000B06500E0F06570BD5039010870B50400A3
:100B2000081C10F069FD05B22C22A35EAB4268D010
:100B3000A585002D1BD001212000FFF79CFF002D73
:100B40001BDD2E0001252378AB421DD1FA231B01AA
:100B50009E4200D91E00256A3100280002F072F979
:100B6000294B984216D8B54215D2012013E0002136
:100B70002000FFF780FF012042E0002D01DB00256F
:100B8000E1E76E420025DEE729002000FFF760FF65
:100B90002570DBE71D48A3681B6800225A620138F4
:100BA00080B2A3681B68D862A368D860E368102B82
:100BB00021D89B00164AD3589F46A3681B680A2277
:100BC0005A6301201CE0A3681B680A229A63012073
:100BD00016E0A3681B680A22DA63012010E0A3680C
:100BE0001B680A221A6401200AE0A3681B680A2213
:100BF0009A65012004E0A3681B680A22DA650120D7
:100C000070BD0020FCE7C046FEFF0000FFFF0000B3
:100C10009439010870B5040006F0E8FD05000021D4
:100C20002000FFF728FFA3681B68996A013128009C
:100C300002F008F92062608810F04EFD011C2000CF
:100C4000FFF76CFFE368102B1CD89B001C4AD3589D
:100C50009F46A3681B6800225A6317E0A3681B68BD
:100C600000229A6312E0A3681B680022DA630DE099
:100C7000A3681B6800221A6408E0A3681B680022AE
:100C80009A6503E0A3681B680022DA65E168A06842
:100C900008F0E6FAA06807F0A3FE0A4B9C4205D0D4
:100CA000094B9C4207D00123A37770BDA168074B75
:100CB00084228B50F4E7A168054B84228B50F2E725
:100CC000D839010890090020C0090020B12100088E
:100CD000C921000810B5FFF775FE10BDF0B5CE466E
:100CE000474680B589B0274C0020274920606160C5
:100CF000264A274BA260E36000222282002565611C
:100D0000A561244B2362A023DB05636210212185AA
:100D1000A28525636563204AE263236444231F4A56
:100D2000E2521F4E220010321E491F48043B079317
:100D30001E4B994606930123984605930495039507
:100D40001B4F029701951B4B0093331C0BF08EFF3A
:100D500022002C32184919488023DB0107934B46A7
:100D60000693434605930495039502970195144B0A
:100D70000093331C0BF07AFF09B0C0BCB946B046F3
:100D8000F0BDC046F009002000004E4075DF86D05F
:100D90002C229C40AC6A0020486A00200080FFFFA3
:100DA0008FC2F53D900900202C0B00200008005058
:100DB0000000DA423333B33FC0090020400A00206C
:100DC000CDCC8C3F70B50400164DB430291C01F019
:100DD000E5F82000BC30291C01F0E0F82000C43008
:100DE000052100F0E9FD606EFFF714FFB023E05825
:100DF000743BE15C01F00CF8E023E5580433E65A5B
:100E0000206C002102F0DEF9002809D10122310016
:100E1000280006F07DF9002363630123637070BD31
:100E20000022F4E73333333F30B583B00400B025FC
:100E3000405900F092FE605900F0D8FE454B98648E
:100E40006060A378002B00D06DE012F097FC424A5E
:100E5000424B10F087FC12F0D9FC41490CF028F904
:100E6000051C002102F0B4F9002850D1281C12F012
:100E700085FC394A394B11F099FF12F0C7FC051C6B
:100E80006060A16810F060F9324BD864A56012F080
:100E900075FC314A314B10F065FC12F0B7FC30495B
:100EA0000CF006F9051C002102F092F9002834D15B
:100EB000281C12F063FC284A284B11F077FF12F02F
:100EC000A5FC011CE0602000BC3001F07FF820612F
:100ED00024490FF0E7FF011C60612000C43000F0DE
:100EE00081FD011CA0612000B43001F06FF8051CE9
:100EF000E0616068A06212F041FC1B4A1B4B11F0DC
:100F00008DFC12F083FCE062256303B030BD144910
:100F1000281C0FF0EBFB051CA8E71149281C0FF05B
:100F2000E5FB051CC4E723002433220020320949D5
:100F300000910F4901F054F9206AA06212F01EFCE2
:100F4000094A0A4B11F06AFC12F060FCE062636A25
:100F50002363DAE7F0090020182D4454FB210940EF
:100F6000DB0FC9400000FA44F8C1631ADCA54C400D
:100F70006F12033A70B50400E623C55A006C0FF0F7
:100F800063FA83B29D420DD0E022A0580432A15AE8
:100F9000002B11D0E33A06F0BBF8206C0FF054FAA6
:100FA000E623E052606E616BFFF7B8FD002802D0C7
:100FB0005E230022E25270BD0022ECE770B504000F
:100FC000006B20490FF0A0FD051CA06C1D490FF01F
:100FD0009BFD291C10F0B8F8011C200068300BF0B4
:100FE000F1FD011C606B0FF081FB6063A66B311C8F
:100FF00010F0AAF8051C144902F0EAF8002807D1FD
:101000001249281C02F0F8F8002802D00F4D00E029
:101010000D4D291C301C0FF069FB6063A0630C4967
:1010200002F0F4F8002801D0094B6363606B0949B2
:1010300002F0D8F8002801D0064B63632000FFF7C8
:1010400099FF70BD96430B3CCDCCCCBECDCCCC3EF5
:1010500000403545004035C5F8B50400006D12F07C
:101060008DFB254A254B11F0D9FB06000F00A06A25
:1010700012F084FB02000B003000390011F096FEE4
:101080001F4A204B10F06EFB12F0C0FB1E490CF003
:101090000FF8051C002102F09BF8002826D1281C1F
:1010A00012F06CFB164A174B11F080FE12F0AEFBEB
:1010B000011C606520008C300BF084FD011C606B0E
:1010C0000FF014FB6063114902F0A0F8002801D072
:1010D0000E4B6363606B0E4902F084F8002801D068
:1010E0000B4B63632000FFF745FFF8BD0649281C42
:1010F0000FF0FCFA051CD2E7399D52A246DF913F62
:10110000182D4454FB210940DB0FC9400000FA446C
:101110000000FAC410B504004378002B1BD00378FC
:10112000032B18D1006E0FF08FF9E823E358984293
:1011300012D1206E0FF088F9002803D05E23E35A05
:10114000984208D95E22A35A01339BB2A3520028C9
:1011500001D098420AD910BD5E230022E2528A33A0
:10116000E050606E0121FFF786FCE2E7606E00212F
:10117000FFF781FCEFE710B5FFF7B0FD10BDC046EB
:10118000034B00221A705A609A60DA621A63704741
:10119000180C002010B582B02049214C0A222000F2
:1011A000FEF7BEFF1F492000FFF740F81E481F4B07
:1011B0000093002301220100FFF772F91C481D4B28
:1011C0000093002301220100FFF76AF91A481B4B24
:1011D0000093002301220100FFF762F91849194822
:1011E000194B009300230122FFF75AF91748184BB7
:1011F0000093002301220100FFF752F91549164818
:10120000164B009300230122FFF74AF9FFF7A0F8DD
:1012100000200AF0FFFA02B010BDC0460C3C0108E5
:10122000180C00206C020020143C0108DD060008A8
:101230001C3C010801070008243C01083107000894
:101240002C3C0108543C0108590700085C3C01088B
:10125000C9070008643C0108843C01083108000803
:1012600010B5FFF78DFF10BD70B582B080256D0001
:101270000F491048104C01942823009300232A00A2
:101280000AF098FA0D490E48231D0193182600967E
:1012900000232A000AF08EFA0A490B480834019408
:1012A000009600232A000AF085FA02B070BDC046FD
:1012B000903C0108D5120008500C00209C3C01080D
:1012C000A9130008A43C01081F17000810B5FFF778
:1012D000CBFF10BD10B5FFF701F9FFF75FF9084824
:1012E000FFF758FB0749084800F044FF0748FFF79D
:1012F00069FD0748FFF766FD00200AF08BFA10BD74
:101300002C77002054140020907100202C0B00201A
:10131000400A0020014B024A1A6070474002002038
:10132000B469002070B5104D0021280007F098FF27
:101330000E4C0421200007F093FF0D4E00220221E5
:10134000300005F0E5FE00222021300005F0E0FE2F
:1013500029683C23CB62EB602268D362E3601E3BCA
:101360004B63936370BDC046087300204C7200202D
:101370000004005010B50A4B5C229B5C002B03D08C
:10138000084B1B78002B00D110BD054B54329858E8
:101390003C2100F090FD034B00221A70F4E7C04698
:1013A000400A002000000020F0B5DE4657464E46B9
:1013B0004546E0B59BB02D4CA36A9A46206D12F0CD
:1013C000DDF9129013912A4EB36A9B46306D12F0EC
:1013D000D5F914901591236B9846A36C1793356B30
:1013E000B66C676D626B9146504612F0C7F9189063
:1013F0001991484612F0C2F910901191381C12F060
:10140000BDF90E900F91301C12F0B8F90C900D91AF
:10141000281C12F0B3F90A900B91179812F0AEF94C
:1014200008900991404612F0A9F906900791114AD7
:10143000114B1498159911F0F1F904900591584643
:1014400012F09CF9029003910A4A0B4B12981399DF
:1014500011F0E4F900900191189A199B0A210748AC
:10146000FFF76EFA0A200AF0A5FBA4E72C0B002078
:10147000400A0020399D52A246DF913F2C77002080
:1014800010B5FFF747FF10BD00230DE09A0082184A
:1014900051681A001E32920082185160C218F4324C
:1014A000002111700133DBB202789A42EED8704706
:1014B000F0B5DE4657464E464546E0B583B0354B5F
:1014C000042199461970344A032390461370334F10
:1014D00005223A70324A93461370324E023B337003
:1014E000314B9A4619704B460433304D304C0091C5
:1014F0002A00210020000BF04DFC434604332A0053
:101500001032414609780091210020000BF042FC86
:101510003B1D2A001C3239780091210020000BF07D
:1015200039FC5B4604332A00303259460978009171
:10153000210020000BF02EFC331D2A003C323178B4
:101540000091210020000BF025FC534604332A00B3
:101550004032514609780091210020000BF01AFC1E
:101560004846FFF791FF4046FFF78EFF3800FFF730
:101570008BFF5846FFF788FF3000FFF785FF504686
:10158000FFF782FF03B0F0BCBB46B246A946A046B7
:10159000F0BDC046D0110020BC100020A80F0020D4
:1015A000940E0020800D00206C0C00201000002004
:1015B000D004002070B505000C00160020480BF088
:1015C00066FD002826D1200010F086F8021C1D4977
:1015D0001D4B18000BF0B4FB10F00EF8C0B2184A07
:1015E000127982422AD02870154A1071012E16D025
:1015F000022E23D1154B00225A6380215A50043108
:101600005A5004315A501C315A5004315A50043146
:101610005A5013E00A4804710BF046FDD3E70C4B17
:1016200000225A6380215A5004315A5004315A50D2
:101630001C315A5004315A5004315A5070BDC046C2
:10164000600C0020B03C0108D0040020400A0020BB
:101650002C0B0020F0B5C64600B504000D001E009E
:101660004318F4331B78002B27D08B00C3185B681A
:10167000984613600F001E37BF00C7197968181C01
:101680000FF010FC43467B606419F4340023237090
:10169000032E19D014D8012E1DD0022E0DD10F4CBF
:1016A00000236363A3638022A3500432A350043257
:1016B000A3508C34A361E361236280BCB846F0BDC3
:1016C000042EFAD1054C00E0054C002101F080FD0C
:1016D0000028F2D0E4E7024CE2E7C046400A0020CE
:1016E0002C0B0020F8B50600002404E07519F43531
:1016F0002F700134E4B23378A3420FD92500A30040
:10170000F318586823001E339B00F318596801270B
:1017100001F058FD0028E9D00027E7E7F8BDF0B553
:10172000D6464F464646C0B582B0FFF7C1FE52E0EE
:101730008E4C8F4D0023220002212800FFF78AFFE4
:1017400022002032002303212800FFF783FF22001C
:101750002832884D012300212800FFF77BFF22005B
:101760002C32012301212800FFF774FF22003032C0
:10177000012302212800FFF76DFF22004C327E4D2D
:10178000012300212800FFF765FF220050320123CA
:1017900001212800FFF75EFF2200543201230221BD
:1017A0002800FFF757FF22000832744D032302215F
:1017B0002800FFF74FFF22001032032304212800E6
:1017C000FFF748FF2000403801220321FFF7F2FE17
:1017D0000A200AF0EFF96A4C20000BF063FB694B1A
:1017E000694D1A1F9246127800922A0021002000AB
:1017F0000BF0D0FA654B2A001032191F8946097880
:101800000091210020000BF0C5FA614B2A001C3228
:10181000191F884609780091210020000BF0BAFAC0
:101820005C4B2A0030321F1F3978009121002000C4
:101830000BF0B0FA584B2A003C321E1F3178009151
:10184000210020000BF0A6FA544B2A0040321D1F45
:1018500029780091210020000BF09CFA5046FFF7F8
:1018600041FF4846FFF73EFF4046FFF73BFF380089
:10187000FFF738FF3000FFF735FF2800FFF732FF92
:10188000474C22000832002300212800FFF7E2FE27
:10189000A0680EF0D9FD80B200280BD1414B1B7817
:1018A000032B00D044E7404A314800230121FFF7D1
:1018B000D1FE3DE73D4B1B78032B50D03C4C2C4DCB
:1018C0000023220002212800FFF7C4FE220020325C
:1018D000002303212800FFF7BDFE22002832254DFA
:1018E000022300212800FFF7B5FE22002C3202233C
:1018F00001212800FFF7AEFE220030320223022130
:101900002800FFF7A7FE22004C321B4D02230021C6
:101910002800FFF79FFE22005032022301212800F9
:10192000FFF798FE22005432022302212800FFF71D
:1019300091FE22000832114D042302212800FFF7F6
:1019400089FE22001032042304212800FFF782FEC2
:101950002000403802220321FFF72CFE38E7154A09
:10196000034800230121FFF775FEA7E76C0B002059
:101970006C0C0020BC100020940E0020A80F00204A
:10198000D0040020D411002010000020C01000203E
:10199000AC0F0020980E0020840D0020700C002059
:1019A000600C00202C0B0020600B0020400A00205F
:1019B000800A0020740A002010B5040001290DD906
:1019C0000023C3600170002303724372880002F099
:1019D0000BFD6060002803D0012010BD0020FCE753
:1019E0000020FAE7F0B5C64600B504000D1C427AA7
:1019F00003789A4201D20132D3B26372E06866681A
:101A0000237A9B00F61831680FF09EFB291C0EF01C
:101A10006DFEE0603560207A01302778390001F0F2
:101A200081FB2172A5616561607A874224D0E568F7
:101A30000FF002FE011C281C0FF066F820612069DF
:101A400080BCB846F0BD0136B74217DD6568B3000B
:101A5000ED182B6898466169181C01F0CDFB002831
:101A600001D0434663612D68A169281C01F0B0FBD9
:101A70000028E8D0A561E6E70026E5E7E0686169AF
:101A80000FF062FBA1690FF05FFB051CB81E0FF0A1
:101A9000D3FD011C281C0FF037F82061CFE700238D
:101AA000037243720023C360436183617047000087
:101AB00010B5030040691B8B002904D001221900D6
:101AC00005F026FB10BD0022F9E710B503691A687E
:101AD000136840218B43136003691A6814688023DC
:101AE000DB012343136003691A6813680B43136017
:101AF00010BD10B503691A68136840218B43136049
:101B000003691A681368044C2340136003691A6858
:101B100013680B43136010BDFFBFFFFF30B50D000E
:101B2000002400200FE0490007204840C0B20133E4
:101B3000DBB2072B05D841B20029F4DB4000C0B26C
:101B4000F5E70134E4B2944203D22B5D5840002300
:101B5000EFE755235840C0B230BD30B583B0040024
:101B60006B46DD1D00232B700322002101A80CF021
:101B70003BFB00212000FFF79BFF2069012301228E
:101B8000290006F0A1FA002801D003B030BD2000E2
:101B9000FFF7AFFF20690123032201A906F0AAFC89
:101BA0000028F2D12000FFF790FF01212000FFF76D
:101BB0007FFF01AD022229002000FFF7AFFFAB78C5
:101BC0008342E2D1287800026B78184320800FF01E
:101BD00033FD04490FF066F9606003490FF062F9C4
:101BE000A060D2E7A410C938E02E65424068704773
:101BF0008068704770B584B0040003AD00232B806B
:101C000011222A70697002AA13800021FFF750FF89
:101C100020690A230222290006F056FA061E05D181
:101C20002000FFF766FF002300930BE00121200056
:101C3000FFF73EFF0025280004B070BDC046009BA2
:101C400001330093009B1B2BF8D920690A23022241
:101C500002A906F04FFC051E02D1002301930CE0FF
:101C600001212000FFF724FF2000FFF72EFF3500A1
:101C7000E1E7C046019B01330193019B1B2BF8D97F
:101C80002000FFF722FF01212000FFF711FF02AE25
:101C9000012231002000FFF741FF73788342CAD14F
:101CA0003578C8E7F0B587B004000F0015002F4B5A
:101CB000059304AE0322002130000CF095FA332383
:101CC00033707770B5700026243B6B441E70002182
:101CD0002000FFF7EDFE20690A23042205A906F083
:101CE000F3F901212000FFF7E3FE00212000FFF7B8
:101CF000DFFE009603E0C046009B01330093009B8B
:101D00001B2BF8D920690A23032204A906F0DCF969
:101D10000023019303E0C046019B01330193019B23
:101D20001B2BF8D92000FFF7E4FE20690A230122CB
:101D30000F21694406F0DEFB01212000FFF7B8FE09
:101D40000023029303E0C046029B01330293029BEF
:101D50001B2BF8D92000FFF7B8FE0F236B4418782F
:101D6000401B43425841C0B207B0F0BD20240101DE
:101D700070B504000D1E15D10221FFF73BFF802234
:101D800052420243D2B202212000FFF78BFF022110
:101D90002000FFF72FFF40B2002801DB280070BDB4
:101DA0000135FBE70221FFF725FF7F2202400221D8
:101DB0002000FFF777FF02212000FFF71BFF40B252
:101DC0000028EBDA0025E9E730B583B0040001AD67
:101DD0000E4B1A882A809B78AB70FFF78AFE002191
:101DE0002000FFF765FE20690A230322290006F080
:101DF0006BF9050001212000FFF75AFEFA20400090
:101E000009F0D8FE280003B030BDC046A83D010847
:101E100070B504000173FFF7ABFF050088220D21A8
:101E20002000FFF73FFF2000FFF7CEFF280070BD26
:101E3000F8B5CE46474680B58146884617001E0055
:101E4000002408E03D194346195D4846FFF7D2FEDD
:101E500028700134E4B2B442F4D3C0BCB946B046F1
:101E6000F8BDF8B5CE46474680B50600884617004F
:101E70001D0008AB1B789946002407E03A5D4346F5
:101E8000195D3000FFF70EFF0134E4B2AC42F5D328
:101E90004B46002B03D1C0BCB946B046F8BD30005C
:101EA000FFF792FFF7E710B57221FFF7A3FE0009D5
:101EB0000323184010BDF8B5CE46474680B507004D
:101EC0000E001621FFF796FE814608220243D2B289
:101ED00016213800FFF7E6FE052009F06BFE1822F8
:101EE0004B461A43D2B216213800FFF7DBFE09F049
:101EF0005DFD80460A2009F05DFE3800FFF7D3FF44
:101F00000400022821D009F051FD4346C51A73018F
:101F10009B1B9801C01AC00080198001FA2189001A
:101F200000F090FF854210D8012CE3D010234A46E0
:101F30009A4308231A43D2B216213800FFF7B2FEA3
:101F40003800FFF741FF01200AE010234A469A4378
:101F500008231A43D2B216213800FFF7A3FE00204F
:101F6000C0BCB946B046F8BD704710B504000221A8
:101F7000FFF740FE40231843C2B202212000FFF7C2
:101F800091FE322009F016FE02212000FFF732FEFA
:101F9000400601D5012010BD0020FCE770B505000A
:101FA0000C1C0021201C01F013F9002809D1FE218E
:101FB0008905201C01F020F9002803D0FE24A40587
:101FC00000E000242C6000236B6070BD70B504003D
:101FD000081C65682668291C0FF0B6F8011C301C27
:101FE0000EF060FF011C281C0EF080FB606070BDCD
:101FF00070B50400081C151C6668311C0FF0A4F8AD
:10200000291C0EF04FFF011C301C0EF06FFB6060AE
:1020100070BD002343607047F8B53F4B5B78002BE1
:102020002BD03E4B5B78002B27D003681B68DB0668
:1020300023D43B4B1A8807231340012B1ED0384B67
:102040001A8807231340012B1FD0354B1A8807230A
:102050001340012B29D0324B1C88C821C900200015
:1020600000F076FF89B201293ED02E49200000F011
:102070006FFF89B201312A4B1980F8BD2648FEF75F
:10208000D3FE2648FEF7D0FED9E7234B1B78002B62
:1020900007D0224B1B78002BD7D12048FEF78EFFAC
:1020A000D3E71D48FEF78AFFF3E71B4B1B78012B94
:1020B00007D01A4B1B78012BCDD11848FEF7CCFF67
:1020C000C9E7FEF71BFA164C6060134D2800FEF7B7
:1020D000C3FFFEF713FAA0606368C01A0FF0FCFAA2
:1020E0000EF0B2F9A865E4E70C4B1B78632BBCD16A
:1020F0000D4E3588094F28000FF0EEFA786332351F
:10210000ADB23580094B9D42AFD9084A32805C227E
:102110000121B954A9E7C0462C0B0020400A002039
:10212000E41200201027000060000020540B000083
:1021300010B50C4B5B78002B03D00B4B5B78002B5E
:1021400000D110BD0748FEF715FF0748FEF712FF44
:10215000064CA089064900F0FBFE89B20131A1813D
:10216000EFE7C0462C0B0020400A0020E4120020BC
:102170001027000010B5040008000A49642204F08A
:102180007BFC236832225A63200006F029FC0021E0
:10219000200006F0A3FF044B8422A350034B1C3203
:1021A000A35010BDF41200201920000831210008AE
:1021B00010B5044B5B78002B00D110BD0148FEF731
:1021C000A9FFFAE72C0B002010B5044B5B78002B1D
:1021D00000D110BD0148FEF79DFFFAE7400A00203C
:1021E000F0B5DE4657464E464546E0B585B0051C7F
:1021F0008B46904699460E9B9A461468211C201CDB
:102200000FF0E4F900280DD1640064086549201C32
:102210000FF0DCF9002808D16249201C00F0E2FF31
:10222000002802D100234246136043461968281C47
:102230000EF08AFF11F0A2FA5B4A5C4B0FF092FAA3
:1022400011F0E4FA5A490AF033FF041C002100F0AF
:10225000BFFF002800D099E0201C11F08FFA524AED
:10226000524B10F0A3FD11F0D1FA02904B461C68BE
:10227000211C201C0FF0AAF900280DD1640064086D
:102280004849201C0FF0A2F9002808D14549201C1C
:1022900000F0A8FF002802D100234A4613604346FD
:1022A000186811F06BFA009001914B46186811F014
:1022B00065FA06000F0053461C685D68029811F02D
:1022C0005DFA02000B00029203932000290010F037
:1022D000A5FA02000B00300039000FF043FA0400A9
:1022E0000D00584611F04AFA06000F0002000B00DC
:1022F0002000290010F092FA02000B0000980199CA
:102300000FF030FA11F082FA4346186011F036FAF5
:10231000254A264B0FF026FA11F078FA24490AF0E4
:10232000C7FE041C002100F053FF002834D1201CFC
:1023300011F024FA1C4A1D4B10F038FD11F066FA1A
:10234000434618604B46186811F018FA04000D0057
:1023500053469A68DB680298039910F05FFA02000E
:102360000B003000390010F059FA02000B00200079
:1023700029000FF0F7F911F049FA4B46186005B043
:10238000F0BCBB46B246A946A046F0BD0849201C99
:102390000EF0ACF9041C5FE70549201C0EF0A6F90D
:1023A000041CC4E7FFFF7F7F182D4454FB21094024
:1023B000DB0FC94010B50400002301E00133DBB29C
:1023C000064A2021525C9A4206D9044A990088584C
:1023D0004269A242F2D100E0002010BDBC130020EF
:1023E00000280FD00223037043708023DB0043805A
:1023F000838080235B00C38003819C3B4381838176
:10240000012070470020FCE770B504007825405B90
:1024100001F0EAFFA0612062635BA3830025A5773A
:10242000A5847A26A05B01F0DFFFA0622063A35B96
:10243000A38500222E23E254A586A369002B03D096
:10244000002803D0012070BD0020FCE70020FAE73F
:1024500010B504008023C05A00220C2103F0F6FBC3
:10246000A0638223E05A00220C2103F0EFFBE0631B
:10247000A36B002B03D0002803D0012010BD002047
:10248000FCE70020FAE710B5040003220021012038
:1024900003F0DCFB206403220021012003F0D6FBC3
:1024A00003006064206C00280ED0002B0ED00023A7
:1024B0000022002103F0E8FB606C002300220021D1
:1024C00003F0E2FB012010BD0020FCE70020FAE74A
:1024D000F0B5C64600B582B0040005005035184A74
:1024E00003001321280003F06DFA802676001548BA
:1024F0002300483301931827009723003200290056
:1025000009F058F90125054063239846A0440E4A76
:1025100023001321404603F055FA0C4823004C33A6
:102520000193009723003200414609F043F9284205
:1025300004D0012002B080BCB846F0BD0020F9E70D
:10254000AC3D0108C32D0008B43D0108F12D000881
:1025500070B505000C49406907F012FE04000B4AF3
:102560006869012107F09CFD0443E4B2084A6869E8
:10257000042107F095FD0443E4B2002C01D10120B1
:1025800070BD0020FCE7C046072900085F2900084D
:10259000A9290008F8B507000E009223C05A11F0CF
:1025A0009BF804000D007A23F85A11F095F8104AB0
:1025B000104B10F033F902000B002000290000F04E
:1025C000E1FD00280FD1002E09D0F86B03F014FEB6
:1025D0008223FB5A181A012807D90020F8BDF86B8E
:1025E00003F0FEFDF4E70120F8E70120F6E7C0461E
:1025F0009A9999999999E93F10B5002903DD8824A2
:1026000003595B180351002A03DD8C2403599B18DE
:1026100003519024035B5B1803539221435A9B1888
:10262000435210BD70B504007623C35C012B03D068
:10263000022B17D0002070BD7B33C25A016A40695B
:1026400008F0D0FD022815D16369842500225A556F
:102650007C23E25A216A606908F0C4FD635B0133A0
:10266000635307E07A33C25A016A406908F0F2FD09
:10267000022803D00028DDD10120DCE7636984252E
:1026800000225A557C23E25A216A606908F0E2FD73
:10269000635B01336353EDE7F0B5C64600B5050053
:1026A0000E0014001F00002921D0002A1FD0002B8B
:1026B0001DD0202130000BF0D2FD0F2811D8237837
:1026C000002B0ED06378002B0BD0E388002B08D0B2
:1026D0002389002B05D06389002B02D0A389002B0E
:1026E00009D101236B74002080BCB846F0BD0123E2
:1026F0006B740020F8E71022002128000BF074FD15
:102700000E22002176239846A84440460BF06CFD2B
:1027100028008430102200210BF066FD10223100C9
:1027200028000BF088FD0E22210040460BF01DFE14
:102730006F613800FFF73EFE002803D001236B7461
:102740000020D1E71C4B20215A5C9000C55001327B
:102750005A542800FFF758FE002802D101236B7459
:10276000C2E72800FFF774FE002802D101236B7432
:10277000BAE72800FFF787FE002802D101236B7417
:10278000B2E72800FFF7A4FE002802D101236B74F2
:10279000AAE72800FFF7DCFE002802D101236B74B2
:1027A000A2E72800FFF73EFF002802D001232B7488
:1027B0009AE702236B7497E7BC130020F0B585B04D
:1027C00004000D0016006846FFF70AFE33006A4653
:1027D00029002000FFF760FF05B0F0BD70B50400D0
:1027E0000D007723C35C012B03D0022B15D00020F2
:1027F00070BD0968AA88406907F0DAFC022813D185
:102800006369842600229A552968AA88606907F0BE
:10281000CFFCA35B0133A35306E00968AA88406993
:1028200007F02EFD022803D00028E0D10120DFE7C9
:102830006369842600229A552968AA88606907F08E
:102840001FFDA35B0133A353EEE7002905D09423BA
:10285000C1500433C250012070470020FCE730B55E
:1028600085B004000D00002303937633C35C022B74
:1028700007D142695A33D35A5B088B422FD00023C9
:10288000A37429B200222000FFF7B6FEFDF742FE36
:102890006A460290A38C5B199BB2A384216A0091C3
:1028A0009580A28BD31A7C22A25A934201DA00238C
:1028B000A384A369A28C9B1823622000FFF7B2FEB9
:1028C000A06B002303AA694603F070FA039B002B58
:1028D00003D0064B802252051A6005B030BD837CC0
:1028E000002BCCD101338374F7E7C04604ED00E040
:1028F00010B508001400FFF75DFD002802D021008C
:10290000FFF7ADFF10BD10B50A0001000020FFF772
:10291000EFFF10BD10B582B0040042695423D25AB3
:10292000524212B20021FFF767FE00230193206C90
:1029300001A903F091FA019B002B03D0024B8022E6
:1029400052051A6002B010BD04ED00E010B5080099
:10295000FFF730FD002801D0FFF7DCFF10BD10B5F8
:1029600001000020FFF7F2FF10BD10B5436990226F
:102970009A58002A0CD01A68D3695B0701D5042342
:10298000136243691A68D3699B0701D50223136256
:10299000FFF748FE10BD10B50800FFF70BFD00283B
:1029A00001D0FFF7E2FF10BD10B501000020FFF7D6
:1029B000F2FF10BDF0B5DE4657464E464546E0B53F
:1029C00087B007000C001600002900D199E00B68C1
:1029D000002B00D197E08888002800D195E03D7C4D
:1029E000002D00D192E010F077FE009001917A2343
:1029F000F85A10F071FE494A494B0FF00FFF0200E0
:102A00000B000098019900F0BDFB002801D00025C3
:102A10007CE000213800FFF7BDFD002801D0002533
:102A200074E00121786C494203F0E4FA002E35D1BC
:102A3000BE8DBB8E9946F31A9BB29846A2889A42E5
:102A400030D8386B21680BF090FC3B6B03A90393E3
:102A5000A3888B800122F86B0023524203F014F903
:102A6000BB8EA2889B189BB2BB86BA8DD31A7E22DE
:102A7000BA5A934201DA0023BB86BB6ABA8E9B180E
:102A80003B630423E25E00213800FFF7B5FD786C5C
:102A900000230022002103F0F7F837E0FDF73AFDAC
:102AA0000590C5E7386B21681A000BF05EFC3B6BA4
:102AB00003AA92460393130042469A8001235B4285
:102AC0009B46F86B00235A46514603F0DDF8A38875
:102AD0004A46921B9E18B6B2B86A21684144320039
:102AE0000BF043FCBB6A039353469E80F86B0023B4
:102AF0005A46514603F0C8F8BE86BB6A9B193B6331
:102B0000BFE7002502E0002500E00025280007B00F
:102B1000F0BCBB46B246A946A046F0BD9A99999929
:102B20009999E93F10B584B00C0001A901948A80FD
:102B30008B605A425341DAB2FFF73CFF04B010BD3C
:102B4000F0B5DE4657464E464546E0B589B005002D
:102B50000091171E019300D198E0047C002C00D155
:102B600095E0100010F0B8FD029003917A23E85A26
:102B700010F0B2FD4B4A4C4B0FF050FE02000B0020
:102B80000298039900F0FEFA002801D000247EE0AC
:102B900001212800FFF7FEFC061E01D0002476E08C
:102BA000686C04AA002103F0D0FA012800D076E076
:102BB000019B002B38D0AB8D9B46AB8E98465B4675
:102BC00042469E1AB6B2B74232D8286B3A000099F4
:102BD0000BF0CBFB2B6B05A905938F80E86B0023D3
:102BE00004AA03F0E3F8AB8EDB199BB2AB86AA8D87
:102BF000D31A7E22AA5A934201DA0023AB86AB6A2B
:102C0000AA8E9B182B633AB200212800FFF7F4FC30
:102C1000686C04A903F020F9049B002B37D0234BE8
:102C2000802252051A6032E0FDF774FC0790C2E77B
:102C3000286B320000990BF098FB2B6B05AA91468C
:102C40000593968004AB9A46E86B002352464946AA
:102C500003F0ACF842465846131AFB189AB2904655
:102C6000A86A009B99190BF080FBAB6A05934B4651
:102C700042469A80E86B00235246494603F096F894
:102C80004346AB86AB6A43442B63BCE70024200079
:102C900009B0F0BCBB46B246A946A046F0BD340020
:102CA000F5E7C0469A9999999999E93F04ED00E0B2
:102CB00010B5002912D0002A12D0047C002C10D0AC
:102CC0007723C35C012B05D0022B0AD1406907F0A2
:102CD000D7FA06E0406907F06BFA02E0002400E052
:102CE0000024200010BD0EB4F0B584B0060000250D
:102CF000C82001F079FB071E26D00AAB0393099A7E
:102D0000C82102F073FE01900024632C0ED86B469C
:102D10009A88002339003000FFF704FF051E05D113
:102D2000012008F047FF0134E4B2EEE7002D02D1A4
:102D300001235B420193380001F0C8FB019804B005
:102D4000F0BC08BC03B0184701235B420193F5E7D0
:102D50000EB470B583B00600C82001F045FB041E18
:102D600019D008AB0193079AC82102F03FFE050075
:102D700082B2002321003000FFF7E2FE002801D1DB
:102D800001256D42200001F0A1FB280003B070BCBA
:102D900008BC03B0184701256D42F6E710B584B0B2
:102DA00004000122A06B524201A903F098F8942379
:102DB000E358002BF5D09822A258210001A898478B
:102DC000EFE710B5FFF7EAFF70B584B00400012605
:102DD000764201ADE06B3200290003F080F8206CF0
:102DE000310003F007F929002000FFF7F7FCEEE7B8
:102DF00010B5FFF7E9FF704702780B78002A03D07F
:102E0000013001319A42F7D0D01A70470023C25CDA
:102E10000133002AFBD1581E7047000002B47146EE
:102E200049084900095C49008E4402BC7047C0460D
:102E300003B47146490840004900095E49008E44C8
:102E400003BC7047002243088B4274D303098B42B2
:102E50005FD3030A8B4244D3030B8B4228D3030C6A
:102E60008B420DD3FF22090212BA030C8B4202D30C
:102E70001212090265D0030B8B4219D300E0090A34
:102E8000C30B8B4201D3CB03C01A5241830B8B423D
:102E900001D38B03C01A5241430B8B4201D34B0326
:102EA000C01A5241030B8B4201D30B03C01A52418B
:102EB000C30A8B4201D3CB02C01A5241830A8B4210
:102EC00001D38B02C01A5241430A8B4201D34B02F9
:102ED000C01A5241030A8B4201D30B02C01A52415D
:102EE000CDD2C3098B4201D3CB01C01A5241830911
:102EF0008B4201D38B01C01A524143098B4201D34B
:102F00004B01C01A524103098B4201D30B01C01A75
:102F10005241C3088B4201D3CB00C01A52418308EF
:102F20008B4201D38B00C01A524143088B4201D31C
:102F30004B00C01A5241411A00D20146524110467C
:102F40007047FFE701B5002000F0F0F802BDC04671
:102F50000029F7D076E7704703460B437FD4002261
:102F600043088B4274D303098B425FD3030A8B421D
:102F700044D3030B8B4228D3030C8B420DD3FF2287
:102F8000090212BA030C8B4202D31212090265D055
:102F9000030B8B4219D300E0090AC30B8B4201D308
:102FA000CB03C01A5241830B8B4201D38B03C01A4F
:102FB0005241430B8B4201D34B03C01A5241030BC6
:102FC0008B4201D30B03C01A5241C30A8B4201D377
:102FD000CB02C01A5241830A8B4201D38B02C01A22
:102FE0005241430A8B4201D34B02C01A5241030A99
:102FF0008B4201D30B02C01A5241CDD2C3098B427E
:1030000001D3CB01C01A524183098B4201D38B01FA
:10301000C01A524143098B4201D34B01C01A52419D
:1030200003098B4201D30B01C01A5241C3088B42E2
:1030300001D3CB00C01A524183088B4201D38B00CD
:10304000C01A524143088B4201D34B00C01A52416F
:10305000411A00D201465241104670475DE0CA0F46
:1030600000D04942031000D34042534000229C4606
:1030700003098B422DD3030A8B4212D3FC22890110
:1030800012BA030A8B420CD3890192118B4208D3E6
:10309000890192118B4204D389013AD0921100E048
:1030A0008909C3098B4201D3CB01C01A524183095C
:1030B0008B4201D38B01C01A524143098B4201D389
:1030C0004B01C01A524103098B4201D30B01C01AB4
:1030D0005241C3088B4201D3CB00C01A524183082E
:1030E0008B4201D38B00C01A5241D9D243088B4284
:1030F00001D34B00C01A5241411A00D20146634627
:1031000052415B10104601D34042002B00D549428A
:10311000704763465B1000D3404201B5002000F0C9
:1031200005F802BD0029F8D016E770477047C04681
:103130008446100062468C461900634600E0C04693
:103140001FB50FF0FDFA002801D40021C8421FBDB1
:1031500010B50FF03FFA4042013010BD10B50FF02E
:10316000EFFA002801DB002010BD012010BDC04691
:1031700010B50FF0E5FA002801DD002010BD012098
:1031800010BDC04610B50FF06BFA002801DC00201E
:1031900010BD012010BDC04610B50FF061FA002827
:1031A00001DA002010BD012010BDC0468446080091
:1031B0006146FFE71FB50DF02DFE002801D4002168
:1031C000C8421FBD10B50DF0B5FD4042013010BD25
:1031D00010B50DF01FFE002801DB002010BD0120FE
:1031E00010BDC04610B50DF015FE002801DD002011
:1031F00010BD012010BDC04610B50DF0C3FD002864
:1032000001DC002010BD012010BDC04610B50DF03E
:10321000B9FD002801DA002010BD012010BDC04614
:10322000002B11D1002A0FD1002900D1002802D093
:103230000021C943080007B4024802A140180290C7
:1032400003BDC046E9FEFFFF03B4684601B502981E
:103250000DF080F9019B9E4602B00CBC7047C04641
:103260001C2101231B04984201D3000C10391B0AB6
:10327000984201D3000A08391B09984201D300097A
:10328000043902A2105C40187047C04604030202D1
:1032900001010101000000000000000010B500293C
:1032A00003D1FFF7DDFF203002E00800FFF7D8FF71
:1032B00010BDC0460448054B10B5834203D0044BF3
:1032C000002B00D0984710BD3C0200203C0200209B
:1032D0000000000006480749091A8B10C90FC918D9
:1032E00010B5491003D0044B002B00D0984710BDF7
:1032F0003C0200203C0200200000000010B5074CFA
:103300002378002B09D1FFF7D5FF054B002B02D006
:10331000044800E000BF0123237010BDDD1300202E
:10332000000000001C390108054B10B5002B03D02C
:103330000449054800E000BFFFF7CCFF10BDC046C0
:1033400000000000E01300201C39010800B585B022
:103350000C22002101A80AF047FF1948194B03600D
:1033600080231B06436000238360C3600361042243
:10337000426103764376033A8276C2614362836296
:103380002C214254036302324263826339328354F4
:10339000C36403F043F800280CD101A90123019371
:1033A00000234B608B60064803F0B0F9002804D17D
:1033B00005B000BD09F0DCFDEFE709F0D9FDF7E746
:1033C000541400200024014010B588B004001422D9
:1033D000002103A80AF008FF22681D4B9A4201D081
:1033E00008B010BD1B4B1A6C802149030A431A64B4
:1033F0001A6C0A400192019A596B012211435963D8
:103400005B6B13400293029B03A9039203234B605F
:10341000A020C00503F0C2FD0F48104B0360052338
:10342000436000238360C360802202618032426176
:103430008022D2008261C361036203F021FC002874
:1034400003D1054B23659C62CAE709F091FDF8E7BB
:103450000024014000100240F813002058000240F0
:1034600010B5FDF733FF10BD10B5054B1B6808F014
:1034700009FD012800D110BD01F094F9FBE7C04619
:1034800010E000E0EFF30583002B06D1064B18682F
:10349000002805D101221A60704706204042FBE750
:1034A00001204042F8E7C046701B002010B5EFF342
:1034B0000583002B0FD10B4B1B68012B0ED10A4A41
:1034C000D3691B021B0AD361064B02221A6008F063
:1034D00027FA002010BD06204042FBE701204042B1
:1034E000F8E7C046701B002000ED00E0034B0360CE
:1034F000034B0B60802313607047C046141B0020F1
:1035000014190020034B0360034B0B6080235B0006
:1035100013607047B8180020B814002000B583B0BD
:10352000114A916B012319439163926B13400193EC
:10353000019B00220321092003F03AFB092003F03C
:103540003BFB002203210A2003F032FB0A2003F098
:1035500033FB002203210B2003F02AFB0B2003F096
:103560002BFB03B000BDC0460010024010B54368FD
:10357000984710BD70B504000D004B68002B0AD0B1
:1035800003680921984769682000FFF7EFFF0249A7
:103590002000FFF7EBFF70BDEC3B010870B50400A5
:1035A0000D000849FFF7E2FF29002000FFF7DEFFCA
:1035B00005492000FFF7DAFF04492000FFF7D6FF96
:1035C00070BDC0461C3A0108303A0108EC3B0108C6
:1035D0000A280CD005D90D280FD07F280FD17E38AE
:1035E0000CE0082805D0092805D1083806E001209C
:1035F00004E0012002E0002000E0012070470020EC
:10360000FCE72038C3B200205E229A424041C0B29B
:103610007047C38881888B4202D35B1A98B2704787
:103620000289521A92B29B1898B2F8E770B504005A
:103630008088E388984209D023681D5C013080B2FD
:103640002189FFF785FCA180280070BD0025FBE7DC
:1036500070B504000D00C688701C80B22189FFF788
:1036600077FC89B2A2888A4204D022689555E1800D
:10367000012070BD0020FCE710B5021E15D0002906
:1036800015D00123002001E0013080B28B4208D028
:10369000145C002CF8D101339BB214186478002C10
:1036A000F2D1135C002B04D010BD0348FCE70248A4
:1036B000FAE70148F8E7C046FFFF0000F8B505004B
:1036C00007693E8E3868FFF7A1FB36182B680D217D
:1036D00028009847002404E02B6820212800984700
:1036E0000134B442F8D32B680D21280098470023F9
:1036F0003B86BB86F8BDF0B5D6464F4680B583B055
:1037000007000C009146002303608380C3801000F3
:10371000FFF77CFB060023699A469B8D002B4ED059
:1037200000284CD000241EE00123002B1AD0534661
:103730009A6A009BD35C01210B4300995354FB8888
:10374000002B02D0BA88824201D9019ABA80013393
:103750009BB2FB80012B04D053461B8C25E0002339
:10376000E3E73D60013453469B8DA34227DD53467A
:103770005A6A0094A3001B199B00D5582800FFF734
:1037800045FB019053469A6A135D01218B43135503
:103790008642E7D80023B342C6D24A46D15CEA5CEF
:1037A0009142DCD10133F6E70133BA889A42D9D984
:1037B0003A68D15CEA5C9142F6D0BB80D2E738002F
:1037C00003B0C0BCBA46B146F0BD0000F0B583B04E
:1037D00006000469E2696D4601006846FFF78BFF49
:1037E000ED88002D20D0012D04D06B469A88238CC3
:1037F0009A4222D9E06900996B469F883A000AF004
:10380000B4FD012D12D0E3696A4695885B19002743
:103810001F70E169238CA28E9B1AC9183000FFF734
:10382000A5FE25842586A78603B0F0BDE369202286
:10383000DA5501376B469F80E5E73000FFF73EFF22
:10384000002500E00135A38DAB4210DDA36A5B5D6E
:10385000DB07F7D5626AAB005B199B00D1583000DB
:10386000FFF784FE07493000FFF780FEEAE7216892
:103870003000FFF77BFEE1693000FFF777FE238C15
:103880002386D1E7EC3B0108F0B5C64600B505003C
:103890000E000469238C0233628C934202DB80BCED
:1038A000B846F0BDE36998461800FFF7AFFAA28E5C
:1038B000871A781C40444346D91901320AF082FC29
:1038C000238C01332384238E01332386E369DE5561
:1038D000A38E002B04D12B68310028009847DEE727
:1038E00002492800FFF742FEF5E7C046643A0108A6
:1038F00070B584B005000C001600002911D0092213
:10390000002101A80AF070FC002E0CD043230749C7
:1039100001AE220030000AF0E7FB31002800FFF77B
:1039200025FE04B070BD4423F1E7C046683A0108A3
:10393000F0B5C64600B582B004000369984633234B
:103940004246D35C9B0603D402B080BCB846F0BDAF
:10395000D2696D4601006846FFF7CDFEEB88002B6B
:1039600002D143461A8CAA8014492000FFF7FEFDBD
:103970004346998E01222000FFF7BAFF43461E8C72
:1039800005E02368009A915D2000984701366B4658
:103990009F883D00B742F4D804E02368202120002E
:1039A0009847013543461B8EAB42F6D843461F86E7
:1039B00003492000FFF7DAFDC6E7C046703A010868
:1039C000743A01084289013292B2838803339B081A
:1039D000C188033189085B180189033189085818A7
:1039E00093009B18C018033292088018133080008F
:1039F00080B2704710B5046920001030FFF728FE30
:103A0000002804D13322A35C01210B43A35410BD31
:103A100084B070B505AC0591069207930169888D55
:103A2000CB8D984212D04A6A83001B189B00D21893
:103A3000230070CB70C2100014CB14C08B8D0133E7
:103A40008B85012070BC08BC04B018470020F9E742
:103A500070B588B003AC084B220062CB62C222CBA7
:103A600022C206AB6A4622CB22C20399049A059B66
:103A7000FFF7CEFF08B070BD38390108F0B5C64673
:103A800000B5040045890135ADB2FFF79BFF070083
:103A9000E368002B50D0238A984255D800239846DB
:103AA000E6683A00002130000AF09EFB3300143330
:103AB000336132004C321A61A18803310320814303
:103AC0005218DA61E1880331814352185A62A90021
:103AD000491989000331814352189A62033585439D
:103AE00052195A6022891A814246002A04D0332191
:103AF0005A5C042002435A54A27C002A04D0332189
:103B00005A5C202002435A54A2881A8300229A82C7
:103B1000DA82E18859849A8561890131D98500204A
:103B200032215854216819609A863000FFF790FFBF
:103B3000300080BCB846F0BD00F056FC061EE060C8
:103B4000F6D001239846ABE70026F1E7F8B5CE465C
:103B5000474680B5071E36D000250026002398462C
:103B6000994611E001234A465A40D3B29946002EA5
:103B70000ADDBB19013B1B78002B05D0002401E0B6
:103B800000239846BC5501367C5D002C15D00135CC
:103B90004346002BF4D15C2C0CD0222CE2D04B46B7
:103BA000002BEFD10A4821000AF026FB0028DED1C5
:103BB000C846E7E701239846E6E7BA1900231370E1
:103BC0000136BF193B70C0BCB946B046F8BDC0460F
:103BD000783A010810B50400FFF74EFD034B9842F8
:103BE00001D0201810BD0020FCE7C046FFFF0000F8
:103BF00010B5002906D003898B4205D30068FFF772
:103C0000E9FF10BD0020FCE70020FAE7F0B5C6464A
:103C100000B505000E000469A389002B33D00029EC
:103C200034D0628993422ED02800FFF747FD2168E7
:103C30002800FFF79BFC002E2CD0638901336381A1
:103C40006189201DFFF7D4FF071E27D03800FFF73A
:103C5000DDF8060083B29846E0693604360C32007F
:103C600039000AF082FBE3699B1900261E70434667
:103C70002384E1692800FFF779FC238C2386A6863C
:103C80002800FFF755FE80BCB846F0BD6389002BC5
:103C9000CAD1F8E76389013B6381D1E7004FD5E7DB
:103CA000B03B010870B505000C0006690B00403BF5
:103CB000DBB23E2B0DD83322B35C08218B43B354C7
:103CC0002300413BDBB2012B04D9432C0AD0442C06
:103CD00012D070BD210041394B425941C9B2FFF7A2
:103CE00095FFF2E7B38E002BF1D0013BB386094973
:103CF0002800FFF73BFCEAE7B48EF069FFF786F88F
:103D00008442E6D20134B48603492800FFF72EFC32
:103D1000DFE7C0467C3A0108803A010810B504008C
:103D2000FFF7AAFC034B984201D0201810BD0020D9
:103D3000FCE7C046FFFF0000F0B5C64600B507002F
:103D40008846002928D00689002E25D0012401E0CC
:103D50000134A4B2A6420AD338682100FFF7DEFF7F
:103D600005004146FFF748F80028F1D100E00025A2
:103D7000002D11D0013EB6B23E810136B4420BD0C7
:103D80002800FFF743F8BA88013029183B68CB1A9E
:103D9000D21A28000AF016FA80BCB846F0BDF0B579
:103DA000C64600B5050088460800FFF72FF8AB8827
:103DB000471CBB4203D2002080BCB846F0BD414640
:103DC0002800FFF7B9FF2E89002E11D031002800FE
:103DD000FFF70EFF0400FFF719F82B68E41A241808
:103DE0000134AB881B1B9F4202D9013E2E81EAE7BA
:103DF000002E09D128683A0041460AF0B6FA2B890C
:103E000001332B810120D7E72968C81922000AF065
:103E1000D9F9EFE7F0B5D6464F464646C0B582B071
:103E200081460469002300E00133228C9A4205DDBB
:103E3000E269D25C202AF7D0002500E00125002DA0
:103E400005D002B0E0BCBA46B146A846F0BDE16973
:103E5000201DFFF7A4FF002300229046924607E0B2
:103E60004246002A16D05246002A00D001250133CE
:103E7000228C9A4212DDE269D118D25C202AEFD05E
:103E80005246002A08D04246002AF0D1002DEED03A
:103E90008846ECE70A70E6E78A46E8E7E36901321C
:103EA0009B1800221A705346002BCAD00027A38DFE
:103EB000BB423DDD666ABD00ED19AD007619316883
:103EC0005046FEF799FF002801D00137EFE733692C
:103ED000002B2DD0337A002B19D13322A35C102173
:103EE0000B43A3544346002B15D01F494046FEF711
:103EF00083FF002805D01D494046FEF77DFF0028BE
:103F000009D1616A49194846FFF734FB0AE0404687
:103F1000FFF71CFEE1E7636A5B191D69DA68414639
:103F20004846A8473322A35C10218B43A35488E75B
:103F30004B469B68002B12D069465346009343467C
:103F400001933325635D1022134363554B469B68F1
:103F500048469847635D10229343635571E7514685
:103F60004846FFF71BFB6CE7843A0108883A0108D2
:103F700070B5050004693223E35C0D2B0FD00A2BCA
:103F800010D00D2911D00A290FD0082928D07F2957
:103F900026D009291FD12800FFF718FC1BE00A29A9
:103FA000EDD118E00D29EED115E02800FFF70EFC49
:103FB0001A492800FFF7DAFA238C002B0CD10023D2
:103FC0002384E2690021117023866381A38621681E
:103FD0002800FFF7CBFA70BD2800FFF71BFFEEE7C4
:103FE000238CA28E9B1A002BD3DD0D492800FFF7EE
:103FF000BDFA0C492800FFF7B9FAE5692800FEF779
:1040000005FFA28E811A481E2818691801320AF08D
:10401000D9F8238C013B2384DDE7C046EC3B010843
:10402000803A0108903A010870B506000368002B39
:1040300051D005693323EB5C9A070FD40222134356
:104040003322AB542968FFF791FA07E03000FFF7FD
:1040500029FE3000FFF76CFC3223EC542C001034A6
:104060002000FFF7D6FA002827D02000FFF7DEFA5D
:10407000040001003323EB5C1A07E7D43222AA5C68
:104080001B2A0ED02000FFF7A3FA002810D1200031
:10409000FFF7B7FA0028DCD021003000FFF7F4FB6F
:1040A000D7E75B28EED1082213433322AB54D0E785
:1040B00021003000FFF75CFFCBE73323EB5CDB072D
:1040C00009D500232B84EB6900221A703322AB5CE4
:1040D00001218B43AB5470BD011E10D00378002B1F
:1040E0000FD00120002300E00133CA5C002AFBD17D
:1040F000CA185278002A05D0013080B2F4E70020B7
:1041000000E0002070470000F8B5CE46474680B575
:1041100005000C000769BE8D002E0FD00800FFF7C8
:10412000DBFF00282FD001282FD039492800FFF7C6
:104130001DFA38492800FFF719FA20E03649FFF741
:1041400015FA34492800FFF711FA18E0334928001E
:10415000FFF70CFA7B6AB400A419A40019592800CF
:10416000FFF704FA2B492800FFF700FA796A0919CA
:104170002800FFF7FFF90136BB8DB342E6DCC0BC77
:10418000B946B046F8BD0026F6E701212000FFF74A
:1041900021FD80460024A64235DD7A6AA3001B1962
:1041A0009B00914699444B4618684146FEF724FE11
:1041B000002801D00134EEE74B465C68002C19D092
:1041C00016492800FFF7D2F941462800FFF7CEF93B
:1041D000104E31002800FFF7C9F92B68092128008B
:1041E000984721002800FFF7C1F931002800FFF7A8
:1041F000BDF9C4E708492800FFF7B8F905492800C8
:10420000FFF7B4F9BBE741462800FFF7C7F9B6E767
:10421000B03A0108EC3B0108943A0108AC3A0108B5
:10422000F0B5DE4657464E464546E0B589B003AC8C
:1042300014220021200009F0D7FF384B596B0422CB
:1042400011435963596B0A400092009A5A6B012539
:104250002A435A635A6B2A400192019A5A6B0227E9
:104260003A435A635B6B3B400293029B2C4E2D4BAF
:104270009B4600223100180002F04AFF2A4B9A4662
:10428000A023DB05994601225146180002F040FFA9
:1042900000224021484602F03BFF244B9846012271
:1042A0002221180002F034FF00225021404602F083
:1042B0002FFF03966560A7600026E6602100584640
:1042C00002F06CFE534603936560A560E660210032
:1042D000484602F063FE402303936560A760E660F2
:1042E0002100484602F05AFE222303936560A56030
:1042F000E6602100404602F051FE502303936560C2
:10430000A760E6602100404602F048FE09B0F0BC1C
:10431000BB46B246A946A046F0BDC04600100240CA
:1043200040C0000000080050108000000004005051
:10433000114A53071ED0D11D072399430F4B5B1A17
:104340009B180A000E48026000214160D318083B08
:10435000072083430B48036059601960991A516024
:104360001360094B1960094B1960094B8022120632
:104370001A607047014BE5E7941B0020204E0000B7
:104380008C1B0020881B0020801B0020841B002029
:10439000741B002010B5124B1A001B688342FBD31C
:1043A00051685418844208D041684418A34209D087
:1043B0000360904200D0106010BD40680918516041
:1043C0001000F1E7074C2468A34206D05B68C918C7
:1043D000416013681B680360EBE70460E9E7C046CF
:1043E0008C1B0020881B002070B5040007F0D6FA53
:1043F000304B1B68002B15D02F4B1B68234247D135
:10440000002C47D022000832640702D007239A43C9
:104410000832002A45D0294B1B68934243D32849D0
:104420000C6804E0FFF784FFE6E721001C006368E6
:10443000934202D22368002BF7D11E4B1B68A34284
:1044400033D00D68083523680B6063689B1A102B06
:1044500008D9A018410701D072B6FEE74360626038
:10446000FFF798FF626815490B689B1A0B601549A6
:1044700009688B4201D213490B600F4B1B68134331
:10448000636000232360104A13680133136002E065
:10449000002500E0002507F019FB6B0707D072B676
:1044A000FEE70025F7E70025F5E70025F3E72800FC
:1044B00070BDC046881B0020741B0020841B002098
:1044C0008C1B0020801B00207C1B002070B5002866
:1044D00023D00500083D6B68104A12681A4201D1CA
:1044E00072B6FEE7010008390968002901D072B6EA
:1044F000FEE7083804009343436007F04FFA616811
:10450000074A13685B1813602800FFF743FF054A4A
:1045100013680133136007F0D9FA70BD741B0020D3
:10452000841B0020781B002010B51448144B036036
:10453000144B4360002383600122C2600361436126
:104540008361C361036202F0E9FD00280CD10B48CE
:10455000002102F051FE002809D10848002102F094
:1045600077FE002806D110BD08F002FDEFE708F045
:10457000FFFCF2E708F0FCFCF5E7C046B469002058
:10458000005800406621C10010B588B00400142214
:10459000002103A809F028FE2268124B9A4201D09C
:1045A00008B010BD104C626B01231A436263626B4A
:1045B00013400193019B03A9C0235B0103931223C2
:1045C0004B600C3B0B61A020C00502F0E7FCE36BE5
:1045D0008022D2031343E363E36B13400293029BF5
:1045E000DEE7C046005800400010024003000833D8
:1045F0004360012252428260C36003610023036072
:10460000704700230361704743684B609A688A6073
:10461000516099600861036801330360704730B5E9
:104620000D686B1C10D0030008331C005B681A680F
:10463000AA42FAD963684B6099608C606160086136
:1046400003680133036030BD0469F3E7036941681F
:1046500082688A60416851605A68824206D00022AE
:1046600002611A68013A1A601868704782685A60D5
:10467000F5E7000082B000230193064B1B6801336D
:1046800001D072B6FEE772B6019B002BFCD002B0DF
:104690007047C046640000200000000000000000D9
:1046A0000B4A13681868203080F30988022080F3D1
:1046B0001488BFF36F8F3FBCAE4608BC04BC62B623
:1046C0001847C046C046C046C046C046C046C04661
:1046D000D070002010B5031F802464041C60043BCC
:1046E0001960044B01000C390B600300203B1A6079
:1046F000403810BD7546000870470000044B80220A
:1047000052051A60BFF34F8FBFF36F8F7047C046DB
:1047100004ED00E072B6044A136801331360BFF37E
:104720004F8FBFF36F8F704764000020064B1B68EC
:10473000002B01D172B6FEE7013B034A1360002B48
:1047400000D162B67047C04664000020EFF31080CD
:1047500072B6704780F310887047000000000000B8
:10476000EFF309800E4B1A6820381060F0C0444601
:104770004D4656465F46F0C008B572B607F032FAAD
:1047800062B60CBC116808681030F0C8A046A94693
:10479000B246BB4680F309882038F0C81847C046A7
:1047A000D070002010B5FFF7D1FF040007F004F926
:1047B000002803D0034B802252051A602000FFF727
:1047C000C9FF10BD04ED00E010B5084C00232360C4
:1047D000074A1360074B1868FA218900FEF732FB7D
:1047E0000138054B18600723236010BD10E000E07E
:1047F00018E000E07000002014E000E010B50C4B61
:104800001968FF2212040A431A601968FF2212066F
:104810000A431A60FFF7D8FF064B00221A60FFF721
:104820003FFF07F0DFF9FFF725FF002010BDC0466E
:1048300020ED00E0640000209A4200D288547047C6
:1048400070470100002007E083001B185B00501C2C
:1048500008601078C01830380A681378303BDBB233
:10486000092BF1D97047F0B5DE4657464E4645460E
:10487000E0B583B093461F000C9B9A460D9C0E9B9F
:1048800099460F9B9B0717D0B8460F00060022E001
:10489000551C4B4641462020B84701342A00B442FB
:1048A000F6D33D004F465C46019B9B46B1464646CB
:1048B000B84637002E000EE00192A34688464E46C9
:1048C000B9460700EBE7013C551C5346185D4346CB
:1048D0003900B0472A00002CF5D135003E0047468C
:1048E0000F9B9B0711D4100003B0F0BCBB46B2462F
:1048F000A946A046F0BD541C4B4641462020B8476F
:104900002200531BB342F6D3EDE7B0464E46B946FC
:104910002F005D46F5E7F0B5CE46474680B585B039
:10492000944698460C9D0D9C0EAB1B789946109AA8
:10493000119B129EB7071CD4002B0CD0F7070AD589
:104940004F46002F02D10C37374204D0013B02E022
:1049500030272F550134944201D21F2CF8D9F70784
:1049600007D59C4205D21F2C03D830272F55013480
:10497000F5E7F70612D5770505D4002C03D094424D
:1049800021D09C421FD00F9A102A2FD00F9A022AB2
:1049900036D01F2C0AD830222A5501341F2C05D8B6
:1049A0004A46002A32D02D222A550134039602931A
:1049B0000194009543466246FFF755FF05B0C0BC21
:1049C000B946B046F0BD621E012C17D00F9F102FC4
:1049D0000BD014000F9A102AD8D1B206D6D51F2CAE
:1049E000D4D858222A550134D3E7023CB206F1D478
:1049F0001F2CEFD878222A550134CAE71400C2E7E9
:104A00001F2CD3D860322A550134C2E7720703D570
:104A10002B222A550134C9E73207C7D520222A554F
:104A20000134C3E7F0B5DE4657464E464546E0B58D
:104A300093B081468A46089209931CAB10CB1B7831
:104A40009B461E9D219B9846002C03D11023424675
:104A50009A4390468023DB0046461E4042461A4257
:104A600018D0002C22D0002614E0424692061BD516
:104A70004121C918C9B20A39C9B2771C0AAB995584
:104A800029002000FEF7DEF9AC4210D31F2F0ED80C
:104A90003E00040029002000FEF75AFACBB2092B91
:104AA000E3D83033D9B2E8E76121E2E72700434693
:104AB0000693209B05931F9B049303955B460293EB
:104AC00001970AAB0093099B089A51464846FFF7A5
:104AD00022FF13B0F0BCBB46B246A946A046F0BDCB
:104AE000F0B5DE4657464E464546E0B597B00A90CB
:104AF0000B910C929A46209B9946219F22AA1378EB
:104B00009B46249B0993259C289B98464A463A43FA
:104B100002D11032934398468022D2004546154078
:104B2000434613420AD04A463A4341D000252E005C
:104B300053460D934D46099B9A4621E02E0053465D
:104B40000D934D46099B9A461AE04246920623D59C
:104B50004122D218D2B20A3AD2B2731C99460EAB95
:104B60009A555246230028003900FEF759FBBC42F3
:104B700020D813D04B461F2B16D84E4605000F00E9
:104B80005246230028003900FEF74AFBD3B2092B16
:104B9000DBD83033DAB2E0E76122DAE7AA45E9D9B7
:104BA0004E460D9B9A4608E04E460D9B9A4604E001
:104BB000002602E04E460D9B9A4643460693279BED
:104BC0000593269B0493099B03935B4602930196EE
:104BD0000EAB009353460C9A0B990A98FFF79BFE75
:104BE00017B0F0BCBB46B246A946A046F0BD0000D7
:104BF000F0B5DE4657464E464546E0B591B0814693
:104C0000884692460E931A9E1B9F32003B0030004E
:104C10003900FEF79DFA002800D104E1012252423A
:104C2000D54B30003900FEF7ADFA002800D0FAE08D
:104C300001225242D14B30003900FEF78FFA002892
:104C400000D0F0E00022002330003900FEF786FAA1
:104C5000002800D0FCE0069607978023DB001E9A10
:104C60001A400F921E9A1A4201D106231C930699EC
:104C7000079A0B00100D4005400DC14CA44660443E
:104C8000079C2203120B1C00BE4B13431D000EF0A9
:104C900023FDBD4ABD4B0DF0C1FDBD4ABD4B0CF01F
:104CA00061FD089009910022BB4B200029000EF005
:104CB0007DF8BA4ABA4B0DF0B1FD02000B0008981E
:104CC00009990CF04FFD0EF0CBFC83460EF004FD6D
:104CD00004000D00B34AB44B0DF0A0FD0022B34B0D
:104CE0000CF040FD0EF0BCFC0890B14AB14B200026
:104CF00029000DF093FD04000D0008980EF0ECFC67
:104D0000AD4AAE4B0DF08AFD02000B0020002900D9
:104D10000EF04CF804000D0002000B000DF07EFDBB
:104D20000A900B91089BA64A9446634400210022F6
:104D3000089109921B0509930023089322002B0078
:104D4000200029000CF00EFD0C900D9122002B008C
:104D500000208021C9050EF029F804000D00002272
:104D6000984B0A980B990DF017F90022964B0CF00E
:104D7000F9FC02000B000A980B990DF00DF90022C6
:104D8000924B0CF0EFFC02000B000A980B990DF00F
:104D900003F902000B00200029000CF0E3FC0200E4
:104DA0000B000C980D990DF0F7F80022754B0CF0E4
:104DB000D9FC089A099B0DF031FD04000D00089400
:104DC0000995069A079BFEF7DDF900280BD0012311
:104DD0005B429C46E34400227B4B200029000DF0FF
:104DE000DBF8089009915B466333C62B3CD804245A
:104DF0001E9B1B0544D5764A764B06980799FEF70D
:104E0000CBF9002841D00022734B06980799FEF792
:104E1000A5F9002839D01C9B5B4527DD5A469B1A13
:104E2000013B1C9324E01E9B04931D9B03931C9B3E
:104E30000293009601970E9B52464146484600F069
:104E4000DBF811B0F0BCBB46B246A946A046F0BDA7
:104E50000021002206910792069680231B069C469D
:104E6000BC4463460793F8E60524C1E700231C937E
:104E70008023DB001E9A1A431E92002400239B46C7
:104E80001D9B9C420BD21D1B0AE01C9B002BF7D0E4
:104E90000F9B002BF4D01C9B013B1C93F0E70025DB
:104EA00002231E9A1A400A921E9A134202D0002C24
:104EB00000D000255B46002B07D0089A099B069876
:104EC00007990DF069F80690079100220023300041
:104ED0003900FEF743F900283FD1404B1E9A13409A
:104EE000049303951C9B0293069A079B00920193DF
:104EF0000E9B52464146484600F07EF8002CA0D05A
:104F00001E9B9B0635D545239C46451C0E9E3300B3
:104F1000020041466046C8475A46D317D2185A4045
:104F200005230593013C0494002303930A33029361
:104F30005946CB0F0193009233002A004146484660
:104F4000FFF770FD0A9B002B00D17AE702004E4666
:104F5000474655460E9B984648E0069E079F3200FE
:104F6000390080200006844661440B0006920793B6
:104F7000B3E765239C46C8E7FFFFEF7FFFFFEFFF26
:104F800001FCFFFF0000F03FFB799F501344D33F2B
:104F9000B3C8608B288AC63F0000F83F61436F6347
:104FA000A787D23F71A379094F930A400000E03FE1
:104FB0001655B5BBB16B0240EF39FAFE422EE63F03
:104FC000FF03000000002C400000244000001840B7
:104FD0002D431CEBE2361A3F80842E41FFF7FFFF82
:104FE000541C434639002020B0472200531B1D9912
:104FF0008B42F5D3100024E7F0B5DE4657464E4607
:105000004546E0B595B08346884691469A46209D30
:105010001E9A1F9B10001900FEF79AF8002839D03D
:1050200001225242B44B1E981F99FEF797F80028B0
:105030003FD101225242B14B1E981F99FEF7A2F8B0
:10504000002845D10022AE4B1E981F99FEF79AF812
:10505000002852D10022AB4B1E981F99FEF77EF814
:1050600000284AD1002200231E981F99FEF776F8E7
:10507000002852D100230B93229B5B0558D50024B6
:105080001F2C57D8092D55D90CAB30221A55013D8C
:105090000134F5E7229B0393219B029303230193A1
:1050A000994B009353464A4641465846FFF7DBFB6F
:1050B000F4E0229B0393219B029304230193934BDF
:1050C000009353464A4641465846FFF7CCFBE5E07D
:1050D000229B5B070ED58E4B0422229903912199C6
:1050E00002910192009353464A4641465846FFF7C3
:1050F000BAFBD3E0874B0322EFE7229B0493219B6B
:10510000039302951E9B1F9C0093019453464A46AD
:1051100041465846FFF76CFDC0E01E9A1F9B0020D9
:1051200000210DF043FE1E901F9101230B93A3E776
:105130000625A4E71E981F990EF092FA06000EF0BD
:10514000CBFA02000B001E981F990DF02FFE724B38
:10515000EA009B181A685B68089209930DF05EFBE1
:10516000069007910BF088F907000EF0E3FA0200B1
:105170000B00069807990DF019FE06900791002282
:10518000664BFDF7FFFF002822D0013738000EF0F4
:10519000D1FA02000B0008980999FDF7E9FF0028F1
:1051A00001D001360027002D20D130000EF094FAF6
:1051B00002000B001E981F990DF0F8FD0022574BBE
:1051C000FDF7CCFF00283BD1F30739D5013637E096
:1051D0000022524B06980799FDF7C0FF0028E2D144
:1051E000002F01D0FB07DED50137DCE706961F2C28
:1051F00011D8013D0A213800FDF7AAFE661C3031A6
:105200000CAB19550A213800FDF71CFE092F0ED9E9
:1052100007003400EBE7069E1F2C0BD86B1E002DF9
:1052200008D00CAA302111551D000134F4E73400D8
:10523000069EF1E71F2C03D80CAB2E221A55013421
:105240001F2C10D80A213000FDF76CFF651C30318F
:105250000CAB19550A213000FDF77EFE061E01D069
:105260002C00EDE72C000323229A1340012B1CD0C5
:105270001F2C06D80B9B002B2ED00CAB2D221A55C1
:105280000134229B0393219B029301940CAB009366
:1052900053464A4641465846FFF7E5FA15B0F0BC7A
:1052A000BB46B246A946A046F0BD219B002B0DD0BF
:1052B0000B9B002B02D10C33134207D0219B013BE7
:1052C000219303E00CAB30221A550134219B9C4200
:1052D000CED21F2CF6D9CBE7229B5B0704D50CABB3
:1052E0002B221A550134CCE7229B1B07C9D50CABE6
:1052F00020221A550134C4E7FFFFEFFFFFFFEF7FC5
:1053000065CDCD4165CDCDC10C3B0108103B0108F9
:10531000003B0108083B0108583F01080000E03F3E
:10532000F0B5DE4657464E464546E0B593B0070019
:105330008A4693461193002900D12CE3002508E00A
:105340006C1C5B462A005146B847119B01331193F0
:105350002500119B1878002800D11EE32528EFD1E5
:10536000013311930023180020E001231843013278
:105370001192012418E002231843013211920124F2
:1053800012E0042318430132119201240CE0082397
:10539000184301321192012406E010231843013210
:1053A0001192012400E00024002C09D0119A1378F6
:1053B000203BD9B21029F6D88B00C449CB589F4660
:1053C0008146119B1A781300303BDBB2092B10D9B0
:1053D0002A2A13D00B94119B1A782E2A20D0119AC6
:1053E0001378683BD9B2122965D88B00B849CB58DD
:1053F0009F4611A8FFF725FA0B90ECE71C9B1A1D9E
:105400001C921B68002B04DB0B93119B013311933F
:10541000E1E702220100114389465B420B93F4E766
:105420008022D2004946114389465A1C11925A786B
:105430001300303BDBB2092B0BD92A2ACFD11C9B9E
:105440001A1D1C921C68002C08DB119B0133119360
:10545000C5E711A8FFF7F5F90400C0E70024F4E759
:1054600080235B0049460B43511C119151786C29F4
:1054700001D099461FE0C0239B0049461943894645
:105480000232119217E0802349460B43511C1191BF
:105490005178682901D099460DE0C0234946194347
:1054A00089460232119206E080235B004946194387
:1054B000894601321192119B187867281CD825283B
:1054C00000D25EE20300253BDAB2422A00D958E25C
:1054D0009300804AD3589F4680239B004946194336
:1054E000894601321192E6E780235B004946194361
:1054F000894601321192DEE7782800D941E2692815
:1055000000D23EE20200693AD2B201239340724ACD
:10551000134210D11A0600D50CE25B0500D430E22C
:105520001C9B1A1D1C921E68002C00D0BAE101229F
:105530005242330096E16F2842D005D8582841D016
:10554000622803D1022606E078283DD010234A467F
:105550009A4391460A26582838D0692805D06428ED
:1055600003D00C224B46934399464B465A0502D52D
:1055700001229343994669282DD064282BD04B46AD
:105580009A0500D5AAE0DA0500D5C2E05A0600D493
:10559000D3E01C9A111D1C911168FF220A404B4652
:1055A00005930B9B049303940296002301930092AE
:1055B0005B462A0051463800FFF734FA05002AE01E
:1055C0000826C8E71026C6E71026C4E720224B4667
:1055D00013439946C1E74B469A0520D4DA0551D4C6
:1055E0005A0666D51C9A111D1C911168FF220A40AB
:1055F000D017111841404B4605930B9B049303941D
:105600000296D20F019200915B462A005146380063
:10561000FFF708FA0500119B0133119399E61C9AD4
:10562000073207218A43110008311C911168536821
:105630009C46DB170C930D930C9A0D9B1000484071
:105640000E900D9B61464B400F930E980F990C9A4C
:105650000D9B801A99410E900F914B4608930B9B1E
:10566000079306940496002305936346DA0F02928B
:10567000009001915B462A0051463800FFF730FA4E
:105680000500C8E71C9A111D1C911268D01711184B
:10569000414005930B9B049303940296D20F019211
:1056A00000915B462A0051463800FFF7BBF9050020
:1056B000B1E71A0605D51C9A111D1C910023D25E74
:1056C00096E71C9A111D1C91126891E7BC3D0108D8
:1056D000003E01084C3E0108419000001C9A073230
:1056E00007218A43110008311C9108930B9B0793F3
:1056F000069404960023059302935368126800925F
:1057000001935B462A0051463800FFF7E9F905008E
:1057100081E71C9A111D1C9105930B9B0493039424
:10572000029600230193136800935B462A005146BA
:105730003800FFF777F905006DE71A0606D51C9AC1
:10574000111D1C9112681204120C28E71C9A111DDD
:105750001C91126823E746281AD01C9B07330722A6
:1057600093431A0008321C924A4604920B9A039201
:1057700002941A685B68009201935B462A005146C6
:105780003800FFF739FC0500119B01331193E0E568
:1057900020234A461A439146DFE7672801D047286D
:1057A00004D180231B014A461A439146452801D063
:1057B000472803D120234A461A4391461C9B0733AE
:1057C000072293431A0008321C924A4604920B9A0D
:1057D000039202941A685B68009201935B462A0068
:1057E00051463800FFF704FA0500119B013311936D
:1057F000AFE502234E461E404A4613421ED0012406
:105800001C9B1A1D1C926A1C904618785B462A0045
:105810005146B847002E14D1119B013311934546D0
:1058200097E5551C5B4651462020B84723002A00C7
:105830005C1C0B999942F4D81500E1E701232A007A
:10584000F6E7424606E0561C5B4651462020B84724
:105850002C003200651C0B9BA342F4D89046DBE77A
:1058600001330A001978002902D0511E002AF7D10D
:105870009B1B8022D200494611408846494611426E
:1058800002D0A34200D923000222494611401091C0
:1058900049460A4208D02A00250099463B0047465F
:1058A000984626E0220044E6A1462A005146B24628
:1058B0000E0006E0551C5B4631002020B84723004F
:1058C0002A005C1C0B999942F4D8150022004C4622
:1058D000330056469A4691462A0025003B0047462B
:1058E000984606E01D000136541C5B465146C047F1
:1058F00022003078002804D0002FF4D06B1E002D39
:10590000F0D115004B464746109A002A03D1119B4F
:10591000013311931DE50B9E2A0006E0551C5B46E2
:1059200051462020B84723002A005C1C9E42F5D82F
:105930001500ECE721234A461A4313001C9A111D57
:105940001C9112680593082304930394083302936F
:105950000023019300925B462A0051463800FFF76E
:1059600061F80500119B01331193F2E46C1C5B4656
:105970002A0051462520B847119B01331193250079
:10598000E7E46C1C5B462A005146B847119B013383
:1059900011932500DDE40A4FD0E45D450DD35B464D
:1059A0005A1E5B4651460020B847280013B0F0BC91
:1059B000BB46B246A946A046F0BD2A00F1E7C04664
:1059C000414800080CB430B585B00A0008AC08CCDA
:1059D0000394054D009401002800FFF7A1FC05B0D9
:1059E00030BC08BC02B018473948000810B582B076
:1059F000044C009313000A0001002000FFF790FC04
:105A000002B010BD394800080300406A002803D0E6
:105A10001B6B1B683820C01A704710B50400FEF7D6
:105A200079FEA26BE36B9A4204D00024FEF77EFE5F
:105A3000200010BD0124F9E710B50400FEF76AFE4E
:105A4000A36B002B04D10124FEF770FE200010BDD3
:105A50000024F9E770B504001500866B026C002A7B
:105A60000CD10368002B03D000200136A66370BD63
:105A7000806806F063FA0023A360F6E7002D0DD1DD
:105A8000406808F072FC6368226C9B186360A2682F
:105A900093421AD3236863602800E6E7C06808F0E1
:105AA00064FCE368226C51429B1AE36022689342D3
:105AB00002D2A3685B18E360022D01D00020D4E776
:105AC000002E04D0013E0020CFE72800CDE70020C3
:105AD000CBE710B5030008001A6C002A0AD0DC6876
