:020000040800F2
:1000000000900020C5CC000857AF000859AF000889
:1000100000000000000000000000000000000000E0
:1000200000000000000000000000000089430008FC
:100030000000000000000000F14300081531000836
:1000400015CD000815CD000815CD000815CD000808
:1000500015CD000815CD000815CD000815CD0008F8
:1000600015CD00085DAF00086DAF000885AF000832
:1000700015CD00089DAF0008ADAF0008BDAF00086A
:10008000CDAF000815CD000815CD000815CD00082E
:10009000DDAF000815CD0008EDAF000815CD000854
:1000A00015CD000815CD000815CD000815CD0008A8
:0C00B000FDAF00080DB0000815CD0008E1
:1000C000F8B50F0016001D000024632C0DD8002386
:1000D00032003900280002F07BFB002805D10130F6
:1000E0000BF0B0FB0134E4B2EFE7F8BD10B513003C
:1000F0000A0001000020FFF7E3FF10BD10B5040067
:10010000E06A03F0E7FDA3895801C01A8000C01817
:10011000C000FA21890002F0EBFC0BF093FBEFE743
:10012000F0B58BB004000D1E03925CD006000E36B5
:10013000052230000DF0C3FE300002F0BDFC301887
:100140002B4905220DF055FF2700183709222900F9
:1001500038000DF0B4FE380002F0AEFC3818254926
:1001600008220DF046FF039A131C092A00D80A231F
:10017000A38105AD1422002128000DF079FE802313
:10018000AB80EB8080332B81E03B6B811F3BAB74FA
:100190000597280003F0C8FAE062002825D0164B26
:1001A0000360E36A154A5A608022154823003433FD
:1001B0000193182300932300920031000BF042F9C1
:1001C000012802D000200BB0F0BD606B0BF09AFB51
:1001D0000C4B1A68511C196092009B185C6001233B
:1001E00023700120EFE70020EDE70020EBE7C04699
:1001F000B8370108C0370108E50200080503000808
:10020000FD0000082C02002010B50478002C01D15C
:10021000200010BD406B0BF095F9F9E7002903D0E1
:1002200041608260012070470020FCE7002905D072
:1002300001638160024B4360012070470020FCE7AE
:10024000ED00000810B5002801D003F029FA10BD18
:10025000F0B5C64600B507000E001500002913D002
:10026000002A14D003789846002B09D0002405E01A
:10027000315DF86AFFF7E6FF0134A4B2AC42F7D370
:10028000404680BCB846F0BD00239846F8E70023FE
:100290009846F5E7002808DB064B1B68834206DD1D
:1002A000044B80001B18586870470020FCE70020B2
:1002B000FAE7C0462C02002010B5041E0FD0002221
:1002C000074B1B689A4209DA054B91005B18586886
:1002D000C36AA34203D00132D2B2F1E7002010BDBD
:1002E0002C02002000B583B06B46D971FFF7E4FF04
:1002F000002805D043688268012168460730984786
:1003000003B000BD70B50D00FFF7D6FF041E08D086
:100310004668C82128000DF0E6FDA26881B22800D9
:10032000B04770BD10B5041E0FD00022074B1B68EC
:100330009A4209DA054B91005B185868036BA34297
:1003400003D00132D2B2F1E7002010BD2C02002010
:1003500070B50024012508E0074BA2009B185868DF
:10036000FFF752FF05400134E4B2034B1B689C4287
:10037000F2DB280070BDC0462C0200207047F0B5AB
:10038000C64600B507008846080003F0FBFC0600DF
:100390000A4B3B60092801DC012409E00A26FBE73F
:1003A000A5007D19A1B2404603F06AFA2860013425
:1003B000A642F5DA300080BCB846F0BD38380108F6
:1003C0000EB470B583B005004368002B19D0C82067
:1003D00003F052FE041E17D008AB0193079AC82100
:1003E00005F04CF906006B68AA6881B220009847B6
:1003F000200003F0B3FE300003B070BC08BC03B0B3
:10040000184701267642F6E701267642F3E784B0E4
:1004100030B583B004000791089209930078002852
:100420000ED0002911D00B9B002B10D0E06A0AAB34
:100430006A4612CB12C20799089A099B03F03EF94B
:1004400003B030BC08BC04B018470020F8E7002017
:10045000F6E784B070B582B00690079108920993D0
:10046000002401250FE00D4BA2009B18586809AB32
:100470006A4642CB42C20699079A089BFFF7C7FF1C
:1004800005400134E4B2054B1B689C42EBDB2800BD
:1004900002B070BC08BC04B01847C0462C02002053
:1004A00010B588B003AC03900491227206930A9AA7
:1004B00007920092059AFFF7CCFF08B010BDC04626
:1004C00030B505490A684B680024012512196B41B3
:1004D0000A604B6030BDC0464802002010B5054C94
:1004E000200008F0C5F8044A0E21200008F0BAF9EF
:1004F00010BDC046A0700020C1040008034B1B685B
:10050000586A034B596818607047C046A0700020B5
:100510004802002010B5FFF7F1FFFA2292000023F5
:1005200002F0D4FC014B986010BDC0464802002088
:1005300010B543011B1A9B001818C000FA2189004E
:1005400002F0D6FA0BF07EF910BDC04610B50400DB
:100550000448FFF7E7FE002803D0A2882168FFF7D0
:1005600077FE10BD5402002010B504000448FFF7C8
:10057000D9FE002803D0A2882168FFF769FE10BDCC
:100580005402002010B503480CF048F902480CF062
:1005900045F910BDF00200205402002010B50B4AAE
:1005A0000B490C4C200001F05FFF0B49002220009A
:1005B00001F0A1FF094A0A490A4C200001F054FF4A
:1005C00009490022200001F096FF10BDF8760020B6
:1005D000C8370108F0020020690500082C760020C9
:1005E000D0370108540200204D0500080FB4F0B5C3
:1005F00083B00025C82003F03FFD071E24D009ABBF
:100600000193089AC82105F039F806000024632CEC
:100610000DD8B2B20E480023390002F0D9F8051EF9
:1006200005D101200BF00EF90134E4B2EFE7002D03
:1006300001D101267642380003F090FD300003B06E
:10064000F0BC08BC04B0184701267642F6E7C04665
:10065000540200200FB4F0B583B00025C82003F089
:100660000BFD071E2ED009AB0193089AC82105F097
:1006700005F806000024632C0DD8B2B213480023FD
:10068000390002F0A5F8051E05D101200BF0DAF8BB
:100690000134E4B2EFE70E490C480023022202F0D5
:1006A00097F80236002D0AD0002808D0380003F051
:1006B00055FD300003B0F0BC08BC04B0184701265B
:1006C0007642F3E701267642F3E7C0465402002063
:1006D0007438010810B5FFF755FF10BD10B58AB08A
:1006E0000C00FFF7E9FD002806D021006846FFF75F
:1006F00046FE0248FFF77AFF0AB010BDD83701085E
:1007000010B58AB00C00FFF7D7FD00280AD02100F1
:100710006846FFF734FE0448002100F0ACF90348B6
:10072000FFF764FF0AB010BD78090020E837010820
:1007300010B58AB00C00FFF7BFFD002808D02100DB
:100740006846FFF71CFE06F08BF80248FFF74EFFE5
:100750000AB010BDF837010830B58DB00C00FFF7B6
:10076000ABFD002815D0210001A8FFF708FE0028E6
:1007700011DD02980BA90DF0D7F90FF0A9FCC4B256
:10078000029A0B9B9A4201D0012C08D90A48FFF724
:100790002DFF0DB030BD0948FFF728FFF9E7210014
:1007A0004B1E9941C9B2064800F052F90548210094
:1007B000FFF71CFFEDE7C046243801080C3801089C
:1007C000780900203C38010830B58DB00C00FFF7E7
:1007D00073FD00281AD0210001A8FFF7D0FD0028E2
:1007E00016DD02980BA90DF09FF9041C029A0B9BD1
:1007F0009A4211D00A48211C00F090F9201C12F0F6
:1008000001FE02000B000748FFF7F0FE0DB030BDFF
:100810000548FFF7EBFEF9E70448FFF7E7FEF5E7C9
:10082000780900205C3801080C38010824380108D8
:1008300010B58CB00C00FFF73FFD002814D021004C
:1008400001A8FFF79CFD002810DD02980BA90DF010
:100850006BF9029A0B9B9A420CD012F0D3FD020066
:100860000B000648FFF7C2FE0CB010BD0448FFF7AE
:10087000BDFEF9E70348FFF7B9FEF5E77838010850
:100880000C3801082438010870B506000C000C492A
:1008900080220AF027FB802C00D98024094D0849CA
:1008A000220028000DF0A5FB8023EC5282220121BA
:1008B000A954F3581A68136803318B43136070BD51
:1008C00038040020B8040020F0B5C64600B5050085
:1008D0001E00002A1FD0920094B2231D9BB298469E
:1008E000134B28229B5C002B18D1124F5A425341C4
:1008F0000F4A28201354220038000DF07AFB3819D3
:100900000D4904220DF075FB002E09D14246390035
:10091000280009F0FDFA80BCB846F0BD074FE5E7B6
:10092000330042463900280009F0C7FFF3E7C0460C
:100930000C0400208C030020D4350108E0030020C3
:100940000EB470B597B006001BAB1D88142D00D9EE
:1009500014251CAB019300240FE0019B07330722F1
:1009600093431A00083201921868596812F092FDF8
:10097000A30002AAD0500134A4B2A542EDD80023AE
:100980002A0002A93000FFF79FFF17B070BC08BC17
:1009900003B0184710B50400084BC022835009F07B
:1009A00015FB0749802220000AF09CFA8023E358B7
:1009B0001A68136804218B43136010BD890800086E
:1009C00038040020F0B5C64600B51C4B0120187055
:1009D000002100255980FC27BF055F60184A9A60F6
:1009E000D960A022D2051A6140269E82154A9A61DA
:1009F00002249C839D77144C5C629862FF24A0467D
:100A00009C85CF3C185559865F6310499963042132
:100A1000D9631A6440315E529A644C222439995247
:100A20001A00303295778022D2055A6510229A65D5
:100A30004C324146995280BCB846F0BD780900203E
:100A4000D472002000040050002C014018720020D5
:100A500010B5030000699B8A002905D00022190007
:100A600006F09EF9002303E00122F8E7C0460133B7
:100A7000C72BFBDD10BD10B503000A1E0DD0406A68
:100A8000016A9C6A214301629869998B002A0AD005
:100A9000002206F085F9002309E0406A016A9C6A99
:100AA000A1430162F0E70122F3E7C0460133C72BFF
:100AB000FBDD10BD70B505000C1CFE218905201C56
:100AC00002F0F0F9002812D0FC24A405AB681E68DF
:100AD000F06A10F045FC211C10F028F80FF0F8FA2D
:100AE000EB68102B16D89B000B4AD3589F46002169
:100AF000201C02F0C3F90028E8D0FC24A405E5E797
:100B0000706308E0B06306E0F06304E0306402E084
:100B1000B06500E0F06570BDD835010870B504001F
:100B2000081C10F0ADFB05B22C22A35EAB4200D135
:100B30006FE0A585002D16D001212000FFF79BFF57
:100B4000002D16DD2E0001252378AB4218D1256A31
:100B50003100280001F0CCFF2F4B984216D8B54247
:100B600015D2012013E000212000FFF784FF0120AF
:100B70004EE0002D01DB0025E6E76E420025E3E7AD
:100B800029002000FFF764FF2570E0E72348A368F1
:100B90001B6800225A62431E9BB2A2681268D3628D
:100BA000A268D360E368102B2BD89B001C4AD35853
:100BB0009F464308A26812681B041B0C5363012064
:100BC00026E04308A26812681B041B0C93630120F3
:100BD0001EE04308A26812681B041B0CD3630120AB
:100BE00016E04308A26812681B041B0C1364012062
:100BF0000EE04308A26812681B041B0C93650120D9
:100C000006E04008A3681B680004000CD8650120BA
:100C100070BD0020FCE7C046FEFF0000FFFF0000A3
:100C20001C36010810B5040006F028FCA3681B68F8
:100C3000996A013101F05CFF2062608810F090FB3E
:100C4000011C2000FFF76AFFE368102B1CD89B00F3
:100C50001E4AD3589F46A3681B6800225A6317E0B8
:100C6000A3681B6800229A6312E0A3681B68002235
:100C7000DA630DE0A3681B6800221A6408E0A36829
:100C80001B6800229A6503E0A3681B680022DA65EE
:100C9000E168A06808F02CF900212000FFF7EBFEC6
:100CA000A06807F0E5FC0A4B9C4205D0094B9C422A
:100CB00007D00123A37710BDA168074B84228B5076
:100CC000F4E7A168054B84228B50F2E760360108F7
:100CD00078090020A80900205D1E0008751E000884
:100CE00010B5FFF76FFE10BDF0B5D6464F4646462D
:100CF000C0B588B0284C2948294920606160294A3C
:100D0000294BA260E3600022228200256561A56173
:100D1000264B2362A023DB05636210212185A28577
:100D200025636563224AE26323644423214AE25235
:100D3000FE26B605220010321F492048043B0793C7
:100D40001F4B9A46069301239946059304950395F4
:100D500002961C4B98460193FC27BF050097331C55
:100D60000BF0CCFD22002C32174918488023DB0100
:100D70000793534606934B460593049503950296B5
:100D8000434601930097331C0BF0B8FD08B0E0BC5C
:100D9000BA46B146A846F0BDD8090020F004EC716F
:100DA000476F73405260AEFB229DE740786A002097
:100DB000146A00200080FFFF780900200C0B00203F
:100DC00000080050CDCCCC3DA8090020280A002006
:100DD00070B5040000238370154DA830291C00F065
:100DE0009DFF2000B030291C00F098FF2000B83093
:100DF000052100F08FFCD423E0589C3BE15C00F01F
:100E0000C7FEE06DFFF70EFFE06B0125002102F049
:100E10002FF8002800D10025EAB2DC23E15A043B78
:100E2000E05805F0BDFF002363630123637070BDCC
:100E30003333333F30B583B00400D425405900F03C
:100E40003AFD605900F090FD454B98646060A378CE
:100E5000002B00D06DE012F0D5FA424A424B10F060
:100E6000C5FA12F017FB41490BF066FF051C002183
:100E700002F004F8002850D1281C12F0C3FA394AB5
:100E8000394B11F0D7FD12F005FB051C6060A1681D
:100E90000FF09EFF324BD864A56012F0B3FA314ACE
:100EA000314B10F0A3FA12F0F5FA30490BF044FF81
:100EB000051C002101F0E2FF002834D1281C12F0AB
:100EC000A1FA284A284B11F0B5FD12F0E3FA011CF3
:100ED000E0602000B03000F039FF206124490FF0BD
:100EE00025FE011C60612000B83000F029FC011CC7
:100EF000A0612000A83000F029FF051CE0616068B7
:100F0000A06212F07FFA1B4A1B4B11F0CBFA12F0D1
:100F1000C1FAE062256303B030BD1449281C0FF00C
:100F200029FA051CA8E71149281C0FF023FA051C13
:100F3000C4E72300243322002032094900910F49DD
:100F400000F0A4FF206AA06212F05CFA094A0A4B82
:100F500011F0A8FA12F09EFAE062636A2363DAE7FE
:100F6000D8090020182D4454FB210940DB0FC9404B
:100F700000007A45F8C1631ADCA54C406F12833932
:100F800070B50400DE23C55AC06B0FF0A1F880B223
:100F9000854209D1E06D616BFFF7C0FD002802D0EA
:100FA00054230022E25270BD43425841C2B2DC23B6
:100FB000E15A043BE05805F0F3FEE06B0FF088F8CF
:100FC000DE23E052E6E710B50400406C216B0FF021
:100FD000FFFE011C2064200060300BF03BFC011C74
:100FE000606B0FF0C7F96063094901F05BFF0028EF
:100FF00001D0074B6363606B064901F03FFF002897
:1010000001D0044B63632000FFF7BAFF10BDC04658
:1010100000803B4500803BC510B50400806CA16A90
:101020000FF0D6FE011CE064200084300BF012FCAF
:10103000011C606C0FF09EF96064094901F032FFF9
:10104000002801D0064B6364606C064901F016FF6E
:10105000002801D0034B63642000FFF7B4FF10BDEC
:1010600000007042000070C210B504004378002BED
:1010700018D0806D0FF02CF8E023E358984212D17D
:10108000A06D0FF025F8002803D05423E35A9842AE
:1010900008D95422A35A01339BB2A352002801D08D
:1010A00098420AD910BD54230022E2528C33E050FA
:1010B000E06D0121FFF7DFFCE2E7E06D0021FFF7C3
:1010C000DAFCEFE710B5FFF70FFE10BD034B00226F
:1010D0001A705A609A60DA621A637047F00B002047
:1010E00010B582B02049214C0A222000FFF718F8E1
:1010F0001F492000FFF79AF81E481F4B009300235A
:1011000001220100FFF7CCF91C481D4B009300237E
:1011100001220100FFF7C4F91A481B4B009300237A
:1011200001220100FFF7BCF918491948194B009337
:1011300000230122FFF7B4F91748184B009300234E
:1011400001220100FFF7ACF915491648164B009330
:1011500000230122FFF7A4F9FFF7FAF800200AF0B4
:10116000A1F902B010BDC04694380108F00B002070
:10117000540200209C380108DD060008A43801084C
:1011800001070008AC38010831070008B43801082D
:10119000DC38010859070008E4380108C9070008CD
:1011A000EC3801080C3901083108000810B5FFF7C8
:1011B0008DFF10BD70B582B080256D000F491048BD
:1011C000104C01942823009300232A000AF03AF9D6
:1011D0000D490E48231D01931826009600232A006E
:1011E0000AF030F90A490B480834019400960023AC
:1011F0002A000AF027F902B070BDC046183901086C
:1012000021120008280C002024390108C11200080E
:101210002C390108B314000810B5FFF7CBFF10BD3F
:1012200010B5FFF75BF9FFF7B9F90848FFF7B2FB14
:101230000749084800F0F4FD0748FFF7C9FD0748D3
:10124000FFF7C6FD00200AF02DF910BDF87600204A
:10125000201400205C7100200C0B0020280A0020C4
:10126000014B024A1A607047280200208069002062
:1012700070B5104D0021280007F03AFE0E4C0421F5
:10128000200007F035FE0D4E00220221300005F04F
:1012900087FD00222021300005F082FD29683C23D3
:1012A000CB62EB602268D362E3601E3B4B639363C7
:1012B00070BDC046D4720020187200200004005097
:1012C00010B5FA2040000AF0BDFAFAE710B5FFF7B2
:1012D000C7FF10BD00230DE09A00821851681A0064
:1012E0001E32920082185160C218F432002111702F
:1012F0000133DBB202789A42EED87047F0B5DE4691
:1013000057464E464546E0B583B0354B04219946D5
:101310001970344A032390461370334F05223A70F4
:10132000324A93461370324E023B3370314B9A4629
:1013300019704B460433304D304C00912A00210087
:1013400020000BF06BFB434604332A001032414669
:1013500009780091210020000BF060FB3B1D2A0062
:101360001C3239780091210020000BF057FB5B46BE
:1013700004332A00303259460978009121002000B8
:101380000BF04CFB331D2A003C32317800912100D8
:1013900020000BF043FB534604332A0040325146F1
:1013A00009780091210020000BF038FB4846FFF738
:1013B00091FF4046FFF78EFF3800FFF78BFF58463E
:1013C000FFF788FF3000FFF785FF5046FFF782FFE9
:1013D00003B0F0BCBB46B246A946A046F0BDC0462D
:1013E000A811002094100020800F00206C0E002017
:1013F000580D0020440C002000000020B8040020FC
:1014000070B505000C000F480BF085FC002813D1C7
:1014100020000FF0A5FF021C0B490C4B18000BF02D
:10142000D3FA0FF02DFFC0B2064A1279824202D0E1
:101430002870044A107170BD024804710BF078FCEA
:10144000E6E7C046380C002038390108B80400200F
:1014500010B54318F4331B78002B0CD08B00C31845
:101460005C6814600B001E339B00C3185C6040185E
:10147000F4300023037010BDF8B50600002404E02A
:101480007519F4352F700134E4B23378A3420FD9C3
:101490002500A300F318586823001E339B00F3189F
:1014A0005968012701F0E4FC0028E9D00027E7E7AC
:1014B000F8BDF0B5D6464F464646C0B582B0FFF7F8
:1014C0001DFF53E0844C854D00232200012128009C
:1014D000FFF7BEFF22000832002302212800FFF799
:1014E000B7FF22002432002303212800FFF7B0FFBA
:1014F00022002C327A4D012300212800FFF7A8FF9B
:1015000022003032012301212800FFF7A1FF220031
:101510003432012302212800FFF79AFF22005032C3
:10152000704D012300212800FFF792FF2200543262
:10153000012301212800FFF78BFF220058320123ED
:1015400002212800FFF784FF22001032664D00239D
:1015500002212800FFF77CFF22001432002304211F
:101560002800FFF775FF0A200AF06CF95F4C200095
:101570000BF0DCFA5E4B5F4D1A1F92461278009218
:101580002A00210020000BF049FA5B4B2A001032A0
:10159000191F894609780091210020000BF03EFABE
:1015A000564B2A001C32191F8846097800912100E9
:1015B00020000BF033FA524B2A0030321F1F3978CB
:1015C0000091210020000BF029FA4E4B2A003C32FA
:1015D0001E1F31780091210020000BF01FFA4A4BAA
:1015E0002A0040321D1F29780091210020000BF0B5
:1015F00015FA5046FFF740FF4846FFF73DFF4046CB
:10160000FFF73AFF3800FFF737FF3000FFF734FFEE
:101610002800FFF731FF3D4C220008320023002153
:101620002800FFF715FFA0680EF052FD80B20028D9
:1016300000D147E7364C294D002322000121280024
:10164000FFF706FF22000832002302212800FFF7DF
:10165000FFFE22002432002303212800FFF7F8FEBA
:1016600022002C321E4D012300212800FFF7F0FE3E
:1016700022003032012301212800FFF7E9FE220079
:101680003432012302212800FFF7E2FE220050320B
:10169000144D012300212800FFF7DAFE2200543206
:1016A000012301212800FFF7D3FE22005832012335
:1016B00002212800FFF7CCFE220010320A4D002341
:1016C00002212800FFF7C4FE220014320023042167
:1016D0002800FFF7BDFE46E7400B0020440C002029
:1016E000941000206C0E0020800F0020B804002011
:1016F000AC1100200000002098100020840F002072
:10170000700E00205C0D0020480C0020380C0020DA
:101710005C0A002010B5040001290DD90023C36024
:101720000170002303724372880002F0A5FC606020
:10173000002803D0012010BD0020FCE70020FAE7BC
:10174000F0B5C64600B504000D1C427A03789A42F3
:1017500001D20132D3B26372E0686668237A9B00DB
:10176000F61831680FF034FB291C0EF003FEE06020
:101770003560207A01302778390001F029FB217289
:10178000A5616561607A874224D0E5680FF098FD15
:10179000011C281C0EF0FCFF2061206980BCB846AB
:1017A000F0BD0136B74217DD6568B300ED182B6850
:1017B00098466169181C01F075FB002801D043466A
:1017C00063612D68A169281C01F058FB0028E8D04E
:1017D000A561E6E70026E5E7E06861690FF0F8FA41
:1017E000A1690FF0F5FA051CB81E0FF069FD011C88
:1017F000281C0EF0CDFF2061CFE700230372437257
:101800000023C360436183617047000010B503008B
:1018100040691B8B002904D00122190005F0C0FA91
:1018200010BD0022F9E710B503691A68136840215A
:101830008B43136003691A6814688023DB01234318
:10184000136003691A6813680B43136010BD10B569
:1018500003691A68136840218B43136003691A688F
:101860001368044C2340136003691A6813680B4320
:10187000136010BDFFBFFFFF30B50D000024002036
:101880000FE0490007204840C0B20133DBB2072B0C
:1018900005D841B20029F4DB4000C0B2F5E70134BD
:1018A000E4B2944203D22B5D58400023EFE7552366
:1018B0005840C0B230BD30B583B004006B46DD1D6A
:1018C00000232B700322002101A80CF0D1FA002183
:1018D0002000FFF79BFF206901230122290006F069
:1018E0003BFA002801D003B030BD2000FFF7AFFF66
:1018F00020690123032201A906F044FC0028F2D14B
:101900002000FFF790FF01212000FFF77FFF01ADCE
:10191000022229002000FFF7AFFFAB788342E2D11B
:10192000287800026B7818432080237B002B08D195
:101930000FF0C6FC011C09480FF04AFA0EF0C8FB74
:10194000208020880FF0BCFC05490FF0EFF86060A4
:1019500004490FF0EBF8A060C5E7C04600FF7F47E1
:10196000A410C938E02E654240687047806870470F
:1019700070B584B0040003AD00232B8011222A70BF
:10198000697002AA13800021FFF740FF20690A2333
:101990000222290006F0E0F9061E05D12000FFF71B
:1019A00056FF002300930BE001212000FFF72EFFDC
:1019B0000025280004B070BDC046009B0133009391
:1019C000009B1B2BF8D920690A23022202A906F0EA
:1019D000D9FB051E02D1002301930CE00121200058
:1019E000FFF714FF2000FFF71EFF3500E1E7C046B8
:1019F000019B01330193019B1B2BF8D92000FFF7BA
:101A000012FF01212000FFF701FF02AE0122310089
:101A10002000FFF731FF73788342CAD13578C8E7D9
:101A2000F0B587B004000F0015002F4B059304AEEE
:101A30000322002130000CF01BFA3323337077703F
:101A4000B5700026243B6B441E7000212000FFF778
:101A5000DDFE20690A23042205A906F07DF9012193
:101A60002000FFF7D3FE00212000FFF7CFFE0096F5
:101A700003E0C046009B01330093009B1B2BF8D969
:101A800020690A23032204A906F066F900230193C2
:101A900003E0C046019B01330193019B1B2BF8D946
:101AA0002000FFF7D4FE20690A2301220F21694498
:101AB00006F068FB01212000FFF7A8FE0023029337
:101AC00003E0C046029B01330293029B1B2BF8D913
:101AD0002000FFF7A8FE0F236B441878401B4342F9
:101AE0005841C0B207B0F0BD2024010170B5050017
:101AF0000C1E15D00221FFF73BFF80225242024309
:101B0000D2B202212800FFF78BFF02212800FFF745
:101B10002FFF40B2002801DB002070BD2000FCE751
:101B20000221FFF725FF7F22024002212800FFF754
:101B300077FF02212800FFF71BFF40B2002801DBDE
:101B40000120EAE72000E8E730B583B0040001ADEA
:101B50000E4B1A882A809B78AB70FFF778FE002125
:101B60002000FFF753FE20690A230322290006F014
:101B7000F3F8050001212000FFF748FEFA2040009D
:101B800009F060FE280003B030BDC046303A0108BD
:101B900070B504000173FFF7A9FF050088220D212D
:101BA0002000FFF73DFF2000FFF7CEFF280070BDAB
:101BB000F8B5CE46474680B58146884617001E00D8
:101BC000002408E03D194346195D4846FFF7D0FE62
:101BD00028700134E4B2B442F4D3C0BCB946B04674
:101BE000F8BDF8B5CE46474680B5060088461700D2
:101BF0001D0008AB1B789946002407E03A5D434678
:101C0000195D3000FFF70CFF0134E4B2AC42F5D3AC
:101C10004B46002B03D1C0BCB946B046F8BD3000DE
:101C2000FFF792FFF7E710B57221FFF7A1FE000959
:101C30000323184010BDF8B5CE46474680B50700CF
:101C40000E001621FFF794FE814608220243D2B20D
:101C500016213800FFF7E4FE052009F0F3FD1822F5
:101C60004B461A43D2B216213800FFF7D9FE09F0CD
:101C7000E5FC80460A2009F0E5FD3800FFF7D3FFB8
:101C80000400022821D009F0D9FC4346C51A73018B
:101C90009B1B9801C01AC00080198001FA2189009D
:101CA00000F026FF854210D8012CE3D010234A46CD
:101CB0009A4308231A43D2B216213800FFF7B0FE28
:101CC0003800FFF741FF01200AE010234A469A43FB
:101CD00008231A43D2B216213800FFF7A1FE0020D4
:101CE000C0BCB946B046F8BD704710B5040002212B
:101CF000FFF73EFE40231843C2B202212000FFF747
:101D00008FFE322009F09EFD02212000FFF730FEF9
:101D1000400601D5012010BD0020FCE770B505008C
:101D20000C1C0021201C01F0A9F8002809D1FE217B
:101D30008905201C01F0B6F8002803D0FE24A40574
:101D400000E000242C6000236B6070BD70B50400BF
:101D5000081C65682668291C0FF03AF8011C301C25
:101D60000EF0E4FE011C281C0EF004FB606070BD48
:101D700070B50400081C151C6668311C0FF028F8AB
:101D8000291C0EF0D3FE011C301C0EF0F3FA60602B
:101D900070BD00234360704710B50A4B5B78002B81
:101DA0000FD0094B5B78002B0BD003681B68DB0658
:101DB00007D4064C2088064900F020FF89B2013183
:101DC000218010BD0C0B0020280A0020BC1200202E
:101DD0001027000010B50D4B9A6ADB6A0C4B5B783C
:101DE000002B03D00B4B5B78002B00D110BD0848B3
:101DF000FFF7C6F80748FFF7C3F8074C60880749A4
:101E000000F0FCFE89B201316180EFE70004004080
:101E10000C0B0020280A0020BC1200201027000014
:101E200010B5040008000A49642204F06DFC236820
:101E300032225A63200006F01BFC0021200006F02D
:101E400095FF044B8422A350034B1C32A35010BDBA
:101E5000C0120020991D0008D51D000810B5044BC4
:101E60005B78002B00D110BD0148FFF7FDF8FAE7C1
:101E70000C0B002010B5044B5B78002B00D110BD7B
:101E80000148FFF7F1F8FAE7280A0020F0B5DE462E
:101E900057464E464546E0B585B0051C8B469046F4
:101EA00099460E9B9A461468211C201C0FF0D2F90B
:101EB00000280DD1640064086549201C0FF0CAF9A0
:101EC000002808D16249201C00F0E2FF002802D15E
:101ED00000234246136043461968281C0EF078FF21
:101EE00011F090FA5B4A5C4B0FF080FA11F0D2FAD5
:101EF0005A490AF021FF041C002100F0BFFF00280E
:101F000000D099E0201C11F07DFA524A524B10F09B
:101F100091FD11F0BFFA02904B461C68211C201C59
:101F20000FF098F900280DD1640064084849201C7E
:101F30000FF090F9002808D14549201C00F0A8FFB7
:101F4000002802D100234A4613604346186811F066
:101F500059FA009001914B46186811F053FA0600A7
:101F60000F0053461C685D68029811F04BFA02009E
:101F70000B00029203932000290010F093FA020054
:101F80000B00300039000FF031FA04000D00584604
:101F900011F038FA06000F0002000B0020002900A3
:101FA00010F080FA02000B00009801990FF01EFA61
:101FB00011F070FA4346186011F024FA254A264BB6
:101FC0000FF014FA11F066FA24490AF0B5FE041C69
:101FD000002100F053FF002834D1201C11F012FA28
:101FE0001C4A1D4B10F026FD11F054FA43461860B0
:101FF0004B46186811F006FA04000D0053469A6823
:10200000DB680298039910F04DFA02000B003000D3
:10201000390010F047FA02000B00200029000FF0F1
:10202000E5F911F037FA4B46186005B0F0BCBB4635
:10203000B246A946A046F0BD0849201C0EF09AF908
:10204000041C5FE70549201C0EF094F9041CC4E74A
:10205000FFFF7F7F182D4454FB210940DB0FC9404F
:1020600010B50400002301E00133DBB2064A202151
:10207000525C9A4206D9044A990088584269A242A1
:10208000F2D100E0002010BD8813002000280FD0FE
:102090000223037043708023DB004380838080230E
:1020A0005B00C38003819C3B438183810120704797
:1020B0000020FCE770B504007825405B01F0DCFFF0
:1020C000A0612062635BA3830025A577A5847A269F
:1020D000A05B01F0D1FFA0622063A35BA385002277
:1020E0002E23E254A586A369002B03D0002803D039
:1020F000012070BD0020FCE70020FAE710B50400C5
:102100008023C05A00220C2103F0E8FBA063822345
:10211000E05A00220C2103F0E1FBE063A36B002BEB
:1021200003D0002803D0012010BD0020FCE70020D0
:10213000FAE710B5040003220021012003F0CEFBD2
:10214000206403220021012003F0C8FB0300606427
:10215000206C00280ED0002B0ED00023002200217E
:1021600003F0DAFB606C00230022002103F0D4FBB3
:10217000012010BD0020FCE70020FAE7F0B5C646BC
:1021800000B582B0040005005035184A0300132141
:10219000280003F05FFA80267600154823004833B4
:1021A00001931827009723003200290009F04AF90B
:1021B0000125054063239846A0440E4A23001321BD
:1021C000404603F047FA0C4823004C330193009734
:1021D00023003200414609F035F9284204D001209D
:1021E00002B080BCB846F0BD0020F9E7343A0108DF
:1021F0006F2A00083C3A01089D2A000870B50500C6
:102200000C49406907F004FE04000B4A686901218B
:1022100007F08EFD0443E4B2084A6869042107F020
:1022200087FD0443E4B2002C01D1012070BD0020E1
:10223000FCE7C046B32500080B2600085526000819
:10224000F8B507000E009223C05A11F089F8040077
:102250000D007A23F85A11F083F8104A104B10F051
:1022600021F902000B002000290000F0E1FD002808
:102270000FD1002E09D0F86B03F006FE8223FB5A23
:10228000181A012807D90020F8BDF86B03F0F0FDFB
:10229000F4E70120F8E70120F6E7C0469A999999FA
:1022A0009999E93F10B5002903DD882403595B188B
:1022B0000351002A03DD8C2403599B1803519024F9
:1022C000035B5B1803539221435A9B18435210BD82
:1022D00070B504007623C35C012B03D0022B17D00A
:1022E000002070BD7B33C25A016A406908F0C2FD0C
:1022F000022815D16369842500225A557C23E25AAD
:10230000216A606908F0B6FD635B0133635307E03F
:102310007A33C25A016A406908F0E4FD022803D00A
:102320000028DDD10120DCE76369842500225A55AD
:102330007C23E25A216A606908F0D4FD635B0133B3
:102340006353EDE7F0B5C64600B505000E00140076
:102350001F00002921D0002A1FD0002B1DD02021D2
:1023600030000BF0C0FD0F2811D82378002B0ED0C1
:102370006378002B0BD0E388002B08D02389002B37
:1023800005D06389002B02D0A389002B09D101233A
:102390006B74002080BCB846F0BD01236B74002034
:1023A000F8E71022002128000BF062FD0E22002128
:1023B00076239846A84440460BF05AFD2800843006
:1023C000102200210BF054FD1022310028000BF0E8
:1023D00076FD0E22210040460BF00BFE6F613800A7
:1023E000FFF73EFE002803D001236B740020D1E7E5
:1023F0001C4B20215A5C9000C55001325A542800D1
:10240000FFF758FE002802D101236B74C2E72800B1
:10241000FFF774FE002802D101236B74BAE728008D
:10242000FFF787FE002802D101236B74B2E7280072
:10243000FFF7A4FE002802D101236B74AAE728004D
:10244000FFF7DCFE002802D101236B74A2E728000D
:10245000FFF73EFF002802D001232B749AE70223E6
:102460006B7497E788130020F0B585B004000D0069
:1024700016006846FFF70AFE33006A46290020006E
:10248000FFF760FF05B0F0BD70B504000D007723C5
:10249000C35C012B03D0022B15D0002070BD09684E
:1024A000AA88406907F0CCFC022813D1636984260E
:1024B00000229A552968AA88606907F0C1FCA35BCD
:1024C0000133A35306E00968AA88406907F020FD9C
:1024D000022803D00028E0D10120DFE763698426C9
:1024E00000229A552968AA88606907F011FDA35B4C
:1024F0000133A353EEE7002905D09423C1500433E0
:10250000C250012070470020FCE730B585B00400C0
:102510000D00002303937633C35C022B07D142697D
:102520005A33D35A5B088B422FD00023A37429B2AD
:1025300000222000FFF7B6FEFDF7ECFF6A4602908E
:10254000A38C5B199BB2A384216A00919580A28B16
:10255000D31A7C22A25A934201DA0023A384A369EE
:10256000A28C9B1823622000FFF7B2FEA06B002311
:1025700003AA694603F062FA039B002B03D0064BC3
:10258000802252051A6005B030BD837C002BCCD16F
:1025900001338374F7E7C04604ED00E010B508008E
:1025A0001400FFF75DFD002802D02100FFF7ADFF0A
:1025B00010BD10B50A0001000020FFF7EFFF10BDAD
:1025C00010B582B0040042695423D25A524212B26A
:1025D0000021FFF767FE00230193206C01A903F09F
:1025E00083FA019B002B03D0024B802252051A6014
:1025F00002B010BD04ED00E010B50800FFF730FD9B
:10260000002801D0FFF7DCFF10BD10B5010000204D
:10261000FFF7F2FF10BD10B5436990229A58002AC7
:102620000CD01A68D3695B0701D504231362436990
:102630001A68D3699B0701D502231362FFF748FE8E
:1026400010BD10B50800FFF70BFD002801D0FFF703
:10265000E2FF10BD10B501000020FFF7F2FF10BD32
:10266000F0B5DE4657464E464546E0B587B0070012
:102670000C001600002900D199E00B68002B00D156
:1026800097E08888002800D195E03D7C002D00D19E
:1026900092E010F065FE009001917A23F85A10F054
:1026A0005FFE494A494B0FF0FDFE02000B00009807
:1026B000019900F0BDFB002801D000257CE000213D
:1026C0003800FFF7BDFD002801D0002574E001218E
:1026D000786C494203F0D6FA002E35D1BE8DBB8E00
:1026E0009946F31A9BB29846A2889A4230D8386B22
:1026F00021680BF07EFC3B6B03A90393A3888B80BE
:102700000122F86B0023524203F006F9BB8EA28827
:102710009B189BB2BB86BA8DD31A7E22BA5A9342BB
:1027200001DA0023BB86BB6ABA8E9B183B63042385
:10273000E25E00213800FFF7B5FD786C002300222F
:10274000002103F0E9F837E0FDF7E4FE0590C5E766
:10275000386B21681A000BF04CFC3B6B03AA9246C5
:102760000393130042469A8001235B429B46F86B19
:1027700000235A46514603F0CFF8A3884A46921BDD
:102780009E18B6B2B86A2168414432000BF031FCA1
:10279000BB6A039353469E80F86B00235A4651460A
:1027A00003F0BAF8BE86BB6A9B193B63BFE70025FE
:1027B00002E0002500E00025280007B0F0BCBB4681
:1027C000B246A946A046F0BD9A9999999999E93FD0
:1027D00010B584B00C0001A901948A808B605A4224
:1027E0005341DAB2FFF73CFF04B010BDF0B5DE464E
:1027F00057464E464546E0B589B005000091171E84
:10280000019300D198E0047C002C00D195E01000E9
:1028100010F0A6FD029003917A23E85A10F0A0FD73
:102820004B4A4C4B0FF03EFE02000B0002980399FE
:1028300000F0FEFA002801D000247EE001212800EB
:10284000FFF7FEFC061E01D0002476E0686C04AAA7
:10285000002103F0C2FA012800D076E0019B002B92
:1028600038D0AB8D9B46AB8E98465B4642469E1A4F
:10287000B6B2B74232D8286B3A0000990BF0B9FBD8
:102880002B6B05A905938F80E86B002304AA03F046
:10289000D5F8AB8EDB199BB2AB86AA8DD31A7E22FC
:1028A000AA5A934201DA0023AB86AB6AAA8E9B1820
:1028B0002B633AB200212800FFF7F4FC686C04A9EE
:1028C00003F012F9049B002B37D0234B80225205D2
:1028D0001A6032E0FDF71EFE0790C2E7286B320057
:1028E00000990BF086FB2B6B05AA91460593968009
:1028F00004AB9A46E86B00235246494603F09EF823
:1029000042465846131AFB189AB29046A86A009B92
:1029100099190BF06EFBAB6A05934B4642469A80C1
:10292000E86B00235246494603F088F84346AB86DD
:10293000AB6A43442B63BCE70024200009B0F0BC21
:10294000BB46B246A946A046F0BD3400F5E7C046F6
:102950009A9999999999E93F04ED00E010B50029F9
:1029600012D0002A12D0047C002C10D07723C35C34
:10297000012B05D0022B0AD1406907F0C9FA06E005
:10298000406907F05DFA02E0002400E00024200026
:1029900010BD0EB4F0B584B006000025C82001F0CB
:1029A0006BFB071E26D00AAB0393099AC82102F0DD
:1029B00065FE01900024632C0ED86B469A88002394
:1029C00039003000FFF704FF051E05D1012008F093
:1029D00039FF0134E4B2EEE7002D02D101235B425E
:1029E0000193380001F0BAFB019804B0F0BC08BCB8
:1029F00003B0184701235B420193F5E70EB470B5AD
:102A000083B00600C82001F037FB041E19D008ABC4
:102A10000193079AC82102F031FE050082B200231B
:102A200021003000FFF7E2FE002801D101256D42B0
:102A3000200001F093FB280003B070BC08BC03B079
:102A4000184701256D42F6E710B584B00400012255
:102A5000A06B524201A903F08AF89423E358002B9B
:102A6000F5D09822A258210001A89847EFE710B5A9
:102A7000FFF7EAFF70B584B004000126764201AD8D
:102A8000E06B3200290003F072F8206C310003F093
:102A9000F9F829002000FFF7F7FCEEE710B5FFF783
:102AA000E9FF704702780B78002A03D0013001312A
:102AB0009A42F7D0D01A70470023C25C0133002A33
:102AC000FBD1581E7047000002B471464908490006
:102AD000095C49008E4402BC7047C04603B471468D
:102AE000490840004900095E49008E4403BC704714
:102AF000002243088B4274D303098B425FD3030A3D
:102B00008B4244D3030B8B4228D3030C8B420DD34F
:102B1000FF22090212BA030C8B4202D312120902DD
:102B200065D0030B8B4219D300E0090AC30B8B421B
:102B300001D3CB03C01A5241830B8B4201D38B03C9
:102B4000C01A5241430B8B4201D34B03C01A52416E
:102B5000030B8B4201D30B03C01A5241C30A8B42B1
:102B600001D3CB02C01A5241830A8B4201D38B029C
:102B7000C01A5241430A8B4201D34B02C01A524140
:102B8000030A8B4201D30B02C01A5241CDD2C309B2
:102B90008B4201D3CB01C01A524183098B4201D32E
:102BA0008B01C01A524143098B4201D34B01C01A19
:102BB000524103098B4201D30B01C01A5241C30891
:102BC0008B4201D3CB00C01A524183088B4201D300
:102BD0008B00C01A524143088B4201D34B00C01AEC
:102BE0005241411A00D20146524110467047FFE758
:102BF00001B5002000F0F0F802BDC0460029F7D072
:102C000076E7704703460B437FD4002243088B428C
:102C100074D303098B425FD3030A8B4244D3030B63
:102C20008B4228D3030C8B420DD3FF22090212BA28
:102C3000030C8B4202D31212090265D0030B8B42A4
:102C400019D300E0090AC30B8B4201D3CB03C01A8E
:102C50005241830B8B4201D38B03C01A5241430B69
:102C60008B4201D34B03C01A5241030B8B4201D359
:102C70000B03C01A5241C30A8B4201D3CB02C01AC4
:102C80005241830A8B4201D38B02C01A5241430A3C
:102C90008B4201D34B02C01A5241030A8B4201D32B
:102CA0000B02C01A5241CDD2C3098B4201D3CB01D2
:102CB000C01A524183098B4201D38B01C01A524181
:102CC00043098B4201D34B01C01A524103098B4285
:102CD00001D30B01C01A5241C3088B4201D3CB0070
:102CE000C01A524183088B4201D38B00C01A524153
:102CF00043088B4201D34B00C01A5241411A00D203
:102D000001465241104670475DE0CA0F00D049426B
:102D1000031000D34042534000229C4603098B42DB
:102D20002DD3030A8B4212D3FC22890112BA030A63
:102D30008B420CD3890192118B4208D389019211E5
:102D40008B4204D389013AD0921100E08909C3096A
:102D50008B4201D3CB01C01A524183098B4201D36C
:102D60008B01C01A524143098B4201D34B01C01A57
:102D7000524103098B4201D30B01C01A5241C308CF
:102D80008B4201D3CB00C01A524183088B4201D33E
:102D90008B00C01A5241D9D243088B4201D34B0059
:102DA000C01A5241411A00D20146634652415B109B
:102DB000104601D34042002B00D54942704763467C
:102DC0005B1000D3404201B5002000F005F802BDC1
:102DD0000029F8D016E770477047C04684461000B7
:102DE00062468C461900634600E0C0461FB50FF0EE
:102DF000EBFA002801D40021C8421FBD10B50FF026
:102E00002DFA4042013010BD10B50FF0DDFA002858
:102E100001DB002010BD012010BDC04610B50FF031
:102E2000D3FA002801DD002010BD012010BDC046EE
:102E300010B50FF059FA002801DC002010BD012068
:102E400010BDC04610B50FF04FFA002801DA00207F
:102E500010BD012010BDC046844608006146FFE752
:102E60001FB50DF01BFE002801D40021C8421FBD74
:102E700010B50DF0A3FD4042013010BD10B50DF0AE
:102E80000DFE002801DB002010BD012010BDC04652
:102E900010B50DF003FE002801DD002010BD01205B
:102EA00010BDC04610B50DF0B1FD002801DC0020BA
:102EB00010BD012010BDC04610B50DF0A7FD0028C3
:102EC00001DA002010BD012010BDC046002B11D139
:102ED000002A0FD1002900D1002802D00021C943C7
:102EE000080007B4024802A14018029003BDC04682
:102EF000E9FEFFFF03B4684601B502980DF06EF9D4
:102F0000019B9E4602B00CBC7047C0461C210123A9
:102F10001B04984201D3000C10391B0A984201D3BC
:102F2000000A08391B09984201D30009043902A29A
:102F3000105C40187047C046040302020101010101
:102F4000000000000000000010B5002903D1FFF7C9
:102F5000DDFF203002E00800FFF7D8FF10BDC046BB
:102F60000448054B10B5834203D0044B002B00D01E
:102F7000984710BD28020020280200200000000011
:102F800006480749091A8B10C90FC91810B549100E
:102F900003D0044B002B00D0984710BD280200201E
:102FA000280200200000000010B5074C2378002BF9
:102FB00009D1FFF7D5FF054B002B02D0044800E0F4
:102FC00000BF0123237010BDA913002000000000E2
:102FD000A4350108054B10B5002B03D00449054862
:102FE00000E000BFFFF7CCFF10BDC04600000000AE
:102FF000AC130020A435010800B585B00C220021D7
:1030000001A80AF035FF1948194B036080231B06FD
:10301000436000238360C36003610422426103763E
:103020004376033A8276C261436283622C21425422
:10303000036302324263826339328354C36403F010
:1030400035F800280CD101A90123019300234B601E
:103050008B60064803F0A2F9002804D105B000BD3A
:1030600009F0CAFDEFE709F0C7FDF7E720140020DB
:103070000024014010B588B004001422002103A8E8
:103080000AF0F6FE22681D4B9A4201D008B010BD2E
:103090001B4B1A6C802149030A431A641A6C0A40BC
:1030A0000192019A596B0122114359635B6B1340E2
:1030B0000293029B03A9039203234B60A020C00547
:1030C00003F0B4FD0F48104B036005234360002359
:1030D0008360C36080220261803242618022D2001C
:1030E0008261C361036203F013FC002803D1054B26
:1030F00023659C62CAE709F07FFDF8E700240140E0
:1031000000100240C41300205800024010B5FEF722
:1031100083F810BD10B5054B1B6808F0FBFC0128B7
:1031200000D110BD01F086F9FBE7C04610E000E0D9
:10313000EFF30583002B06D1064B1868002805D154
:1031400001221A60704706204042FBE701204042FE
:10315000F8E7C0463C1B002010B5EFF30583002BB9
:103160000FD10B4B1B68012B0ED10A4AD3691B02EE
:103170001B0AD361064B02221A6008F019FA0020DC
:1031800010BD06204042FBE701204042F8E7C04660
:103190003C1B002000ED00E0034B0360034B0B6081
:1031A000802313607047C046E01A0020E01800201A
:1031B000034B0360034B0B6080235B00136070477D
:1031C000841800208414002000B583B0114A916B4C
:1031D000012319439163926B13400193019B0022D9
:1031E0000321092003F02CFB092003F02DFB002212
:1031F00003210A2003F024FB0A2003F025FB002210
:1032000003210B2003F01CFB0B2003F01DFB03B07C
:1032100000BDC0460010024010B54368984710BD7D
:1032200070B504000D004B68002B0AD0036809211B
:10323000984769682000FFF7EFFF02492000FFF779
:10324000EBFF70BD7438010870B504000D0008492B
:10325000FFF7E2FF29002000FFF7DEFF054920000D
:10326000FFF7DAFF04492000FFF7D6FF70BDC04624
:10327000A4360108B8360108743801080A280CD0B1
:1032800005D90D280FD07F280FD17E380CE00828F3
:1032900005D0092805D1083806E0012004E0012006
:1032A00002E0002000E0012070470020FCE7203809
:1032B000C3B200205E229A424041C0B27047C38828
:1032C00081888B4202D35B1A98B270470289521AE6
:1032D00092B29B1898B2F8E770B504008088E38832
:1032E000984209D023681D5C013080B22189FFF724
:1032F00085FCA180280070BD0025FBE770B50400A7
:103300000D00C688701C80B22189FFF777FC89B256
:10331000A2888A4204D022689555E180012070BDC0
:103320000020FCE710B5021E15D0002915D001239E
:10333000002001E0013080B28B4208D0145C002CE8
:10334000F8D101339BB214186478002CF2D1135CCD
:10335000002B04D010BD0348FCE70248FAE70148FF
:10336000F8E7C046FFFF0000F8B5050007693E8E8C
:103370003868FFF7A1FB36182B680D212800984705
:10338000002404E02B682021280098470134B4422F
:10339000F8D32B680D212800984700233B86BB8675
:1033A000F8BDF0B5D6464F4680B583B007000C0097
:1033B0009146002303608380C3801000FFF77CFBED
:1033C000060023699A469B8D002B4ED000284CD0D6
:1033D00000241EE00123002B1AD053469A6A009B5A
:1033E000D35C01210B4300995354FB88002B02D07E
:1033F000BA88824201D9019ABA8001339BB2FB801C
:10340000012B04D053461B8C25E00023E3E73D60ED
:10341000013453469B8DA34227DD53465A6A0094DC
:10342000A3001B199B00D5582800FFF745FB01900E
:1034300053469A6A135D01218B4313558642E7D8A0
:103440000023B342C6D24A46D15CEA5C9142DCD149
:103450000133F6E70133BA889A42D9D93A68D15C88
:10346000EA5C9142F6D0BB80D2E7380003B0C0BC22
:10347000BA46B146F0BD0000F0B583B0060004695D
:10348000E2696D4601006846FFF78BFFED88002D6D
:1034900020D0012D04D06B469A88238C9A4222D9E1
:1034A000E06900996B469F883A000AF0A2FD012D61
:1034B00012D0E3696A4695885B1900271F70E1699D
:1034C000238CA28E9B1AC9183000FFF7A5FE258415
:1034D0002586A78603B0F0BDE3692022DA550137BF
:1034E0006B469F80E5E73000FFF73EFF002500E0D8
:1034F0000135A38DAB4210DDA36A5B5DDB07F7D519
:10350000626AAB005B199B00D1583000FFF784FE64
:1035100007493000FFF780FEEAE721683000FFF737
:103520007BFEE1693000FFF777FE238C2386D1E72D
:1035300074380108F0B5C64600B505000E000469F0
:10354000238C0233628C934202DB80BCB846F0BD10
:10355000E36998461800FFF7AFFAA28E871A781C25
:1035600040444346D91901320AF070FC238C0133E0
:103570002384238E01332386E369DE55A38E002B3B
:1035800004D12B68310028009847DEE70249280063
:10359000FFF742FEF5E7C046EC36010870B584B08F
:1035A00005000C001600002911D00922002101A8F5
:1035B0000AF05EFC002E0CD04323074901AE220026
:1035C00030000AF0D5FB31002800FFF725FE04B0DB
:1035D00070BD4423F1E7C046F0360108F0B5C64699
:1035E00000B582B004000369984633234246D35C99
:1035F0009B0603D402B080BCB846F0BDD2696D46CC
:1036000001006846FFF7CDFEEB88002B02D1434650
:103610001A8CAA8014492000FFF7FEFD4346998EBC
:1036200001222000FFF7BAFF43461E8C05E0236805
:10363000009A915D2000984701366B469F883D00B7
:10364000B742F4D804E023682021200098470135D0
:1036500043461B8EAB42F6D843461F8603492000E3
:10366000FFF7DAFDC6E7C046F8360108FC36010868
:103670004289013292B2838803339B08C1880331A7
:1036800089085B18018903318908581893009B1831
:10369000C0180332920880181330800080B270473F
:1036A00010B5046920001030FFF728FE002804D16F
:1036B0003322A35C01210B43A35410BD84B070B529
:1036C00005AC0591069207930169888DCB8D9842D0
:1036D00012D04A6A83001B189B00D218230070CBBB
:1036E00070C2100014CB14C08B8D01338B85012068
:1036F00070BC08BC04B018470020F9E770B588B06A
:1037000003AC084B220062CB62C222CB22C206ABC2
:103710006A4622CB22C20399049A059BFFF7CEFF8B
:1037200008B070BDC0350108F0B5C64600B504004C
:1037300045890135ADB2FFF79BFF0700E368002B19
:1037400050D0238A984255D800239846E6683A001C
:10375000002130000AF08CFB330014333361320057
:103760004C321A61A1880331032081435218DA6177
:10377000E1880331814352185A62A900491989002E
:103780000331814352189A620335854352195A60B6
:1037900022891A814246002A04D033215A5C04202F
:1037A00002435A54A27C002A04D033215A5C2020C0
:1037B00002435A54A2881A8300229A82DA82E1884C
:1037C00059849A8561890131D98500203221585464
:1037D000216819609A863000FFF790FF300080BCA6
:1037E000B846F0BD00F048FC061EE060F6D00123AC
:1037F0009846ABE70026F1E7F8B5CE46474680B5D8
:10380000071E36D00025002600239846994611E071
:1038100001234A465A40D3B29946002E0ADDBB190D
:10382000013B1B78002B05D0002401E000239846C3
:10383000BC5501367C5D002C15D001354346002B6C
:10384000F4D15C2C0CD0222CE2D04B46002BEFD1D3
:103850000A4821000AF014FB0028DED1C846E7E739
:1038600001239846E6E7BA19002313700136BF1901
:103870003B70C0BCB946B046F8BDC0460037010831
:1038800010B50400FFF74EFD034B984201D02018FD
:1038900010BD0020FCE7C046FFFF000010B5002966
:1038A00006D003898B4205D30068FFF7E9FF10BDFE
:1038B0000020FCE70020FAE7F0B5C64600B5050099
:1038C0000E000469A389002B33D0002934D062890B
:1038D00093422ED02800FFF747FD21682800FFF70C
:1038E0009BFC002E2CD06389013363816189201DEC
:1038F000FFF7D4FF071E27D03800FFF7DDF80600DA
:1039000083B29846E0693604360C320039000AF07A
:1039100070FBE3699B1900261E7043462384E1690E
:103920002800FFF779FC238C2386A6862800FFF762
:1039300055FE80BCB846F0BD6389002BCAD1F8E7BC
:103940006389013B6381D1E7004FD5E7383801082F
:1039500070B505000C0006690B00403BDBB23E2B46
:103960000DD83322B35C08218B43B3542300413B71
:10397000DBB2012B04D9432C0AD0442C12D070BDE9
:10398000210041394B425941C9B2FFF795FFF2E797
:10399000B38E002BF1D0013BB38609492800FFF715
:1039A0003BFCEAE7B48EF069FFF786F88442E6D282
:1039B0000134B48603492800FFF72EFCDFE7C04638
:1039C000043701080837010810B50400FFF7AAFC06
:1039D000034B984201D0201810BD0020FCE7C046E0
:1039E000FFFF0000F0B5C64600B507008846002975
:1039F00028D00689002E25D0012401E00134A4B28C
:103A0000A6420AD338682100FFF7DEFF05004146D1
:103A1000FFF748F80028F1D100E00025002D11D073
:103A2000013EB6B23E810136B4420BD02800FFF70A
:103A300043F8BA88013029183B68CB1AD21A2800FB
:103A40000AF004FA80BCB846F0BDF0B5C64600B531
:103A5000050088460800FFF72FF8AB88471CBB42DB
:103A600003D2002080BCB846F0BD41462800FFF7D5
:103A7000B9FF2E89002E11D031002800FFF70EFF6C
:103A80000400FFF719F82B68E41A24180134AB88F6
:103A90001B1B9F4202D9013E2E81EAE7002E09D16D
:103AA00028683A0041460AF0A4FA2B8901332B8199
:103AB0000120D7E72968C81922000AF0C7F9EFE703
:103AC000F0B5D6464F464646C0B582B08146046939
:103AD000002300E00133228C9A4205DDE269D25CCA
:103AE000202AF7D0002500E00125002D05D002B0E6
:103AF000E0BCBA46B146A846F0BDE169201DFFF71B
:103B0000A4FF002300229046924607E04246002A86
:103B100016D05246002A00D001250133228C9A4249
:103B200012DDE269D118D25C202AEFD05246002A79
:103B300008D04246002AF0D1002DEED08846ECE7AE
:103B40000A70E6E78A46E8E7E36901329B1800223B
:103B50001A705346002BCAD00027A38DBB423DDD0F
:103B6000666ABD00ED19AD00761931685046FEF762
:103B700099FF002801D00137EFE73369002B2DD0E2
:103B8000337A002B19D13322A35C10210B43A354A9
:103B90004346002B15D01F494046FEF783FF0028FF
:103BA00005D01D494046FEF77DFF002809D1616A16
:103BB00049194846FFF734FB0AE04046FFF71CFE70
:103BC000E1E7636A5B191D69DA6841464846A84720
:103BD0003322A35C10218B43A35488E74B469B6898
:103BE000002B12D069465346009343460193332578
:103BF000635D1022134363554B469B6848469847C4
:103C0000635D10229343635571E751464846FFF7C1
:103C10001BFB6CE70C3701081037010870B5050075
:103C200004693223E35C0D2B0FD00A2B10D00D2931
:103C300011D00A290FD0082928D07F2926D0092998
:103C40001FD12800FFF718FC1BE00A29EDD118E06E
:103C50000D29EED115E02800FFF70EFC1A492800C7
:103C6000FFF7DAFA238C002B0CD100232384E269BE
:103C70000021117023866381A38621682800FFF745
:103C8000CBFA70BD2800FFF71BFFEEE7238CA28E56
:103C90009B1A002BD3DD0D492800FFF7BDFA0C4914
:103CA0002800FFF7B9FAE5692800FEF705FFA28EA4
:103CB000811A481E2818691801320AF0C7F8238CA7
:103CC000013B2384DDE7C04674380108083701084A
:103CD0001837010870B506000368002B51D005693C
:103CE0003323EB5C9A070FD4022213433322AB54E5
:103CF0002968FFF791FA07E03000FFF729FE30004E
:103D0000FFF76CFC3223EC542C0010342000FFF73A
:103D1000D6FA002827D02000FFF7DEFA04000100C1
:103D20003323EB5C1A07E7D43222AA5C1B2A0ED09D
:103D30002000FFF7A3FA002810D12000FFF7B7FA00
:103D40000028DCD021003000FFF7F4FBD7E75B2828
:103D5000EED1082213433322AB54D0E721003000C8
:103D6000FFF75CFFCBE73323EB5CDB0709D50023D0
:103D70002B84EB6900221A703322AB5C01218B4348
:103D8000AB5470BD011E10D00378002B0FD0012062
:103D9000002300E00133CA5C002AFBD1CA18527824
:103DA000002A05D0013080B2F4E7002000E00020B6
:103DB00070470000F8B5CE46474680B505000C00B8
:103DC0000769BE8D002E0FD00800FFF7DBFF00282B
:103DD0002FD001282FD039492800FFF71DFA384984
:103DE0002800FFF719FA20E03649FFF715FA3449A1
:103DF0002800FFF711FA18E033492800FFF70CFA02
:103E00007B6AB400A419A40019592800FFF704FA2A
:103E10002B492800FFF700FA796A09192800FFF7F3
:103E2000FFF90136BB8DB342E6DCC0BCB946B046F3
:103E3000F8BD0026F6E701212000FFF721FD8046AE
:103E40000024A64235DD7A6AA3001B199B00914627
:103E500099444B4618684146FEF724FE002801D0DD
:103E60000134EEE74B465C68002C19D01649280057
:103E7000FFF7D2F941462800FFF7CEF9104E310086
:103E80002800FFF7C9F92B6809212800984721006D
:103E90002800FFF7C1F931002800FFF7BDF9C4E79A
:103EA00008492800FFF7B8F905492800FFF7B4F9D9
:103EB000BBE741462800FFF7C7F9B6E738370108E6
:103EC000743801081C37010834370108F0B5DE46A4
:103ED00057464E464546E0B589B003AC1422002152
:103EE000200009F0C5FF314B596B0422114359637F
:103EF000596B0A400092009A5A6B01252A435A6373
:103F00005A6B2A400192019A5A6B022632435A6335
:103F10005B6B33400293029B254F264B9B4600224E
:103F20003900180002F03CFF234B9A46A023DB0522
:103F3000984601225146180002F032FF002240212B
:103F4000404602F02DFF1D4B9946002272211800B9
:103F500002F026FF03976560A6600027E760210056
:103F6000584602F063FE534603936560A560E76020
:103F70002100404602F05AFE402303936560A6608C
:103F8000E7602100404602F051FE72230393656012
:103F9000A660E7602100484602F048FE09B0F0BC88
:103FA000BB46B246A946A046F0BDC046001002403E
:103FB00040C00000000800501080000000040050C5
:103FC000114A53071ED0D11D072399430F4B5B1A8B
:103FD0009B180A000E48026000214160D318083B7C
:103FE000072083430B48036059601960991A516098
:103FF0001360094B1960094B1960094B80221206A6
:104000001A607047014BE5E7601B0020204E00005E
:10401000581B0020541B00204C1B0020501B00206C
:10402000401B002010B5124B1A001B688342FBD3C3
:1040300051685418844208D041684418A34209D0FA
:104040000360904200D0106010BD406809185160B4
:104050001000F1E7074C2468A34206D05B68C9183A
:10406000416013681B680360EBE70460E9E7C04642
:10407000581B0020541B002070B5040007F0D6FA2E
:10408000304B1B68002B15D02F4B1B68234247D1A8
:10409000002C47D022000832640702D007239A433D
:1040A0000832002A45D0294B1B68934243D3284944
:1040B0000C6804E0FFF784FFE6E721001C0063685A
:1040C000934202D22368002BF7D11E4B1B68A342F8
:1040D00033D00D68083523680B6063689B1A102B7A
:1040E00008D9A018410701D072B6FEE743606260AC
:1040F000FFF798FF626815490B689B1A0B6015491A
:1041000009688B4201D213490B600F4B1B681343A4
:10411000636000232360104A13680133136002E0D8
:10412000002500E0002507F019FB6B0707D072B6E9
:10413000FEE70025F7E70025F5E70025F3E728006F
:1041400070BDC046541B0020401B0020501B0020A7
:10415000581B00204C1B0020481B002070B5002875
:1041600023D00500083D6B68104A12681A4201D13D
:1041700072B6FEE7010008390968002901D072B65D
:10418000FEE7083804009343436007F04FFA616884
:10419000074A13685B1813602800FFF743FF054ABE
:1041A00013680133136007F0D9FA70BD401B00207B
:1041B000501B0020441B002010B51448144B036012
:1041C000144B4360002383600122C260036143619A
:1041D0008361C361036202F0E9FD00280CD10B4842
:1041E000002102F051FE002809D10848002102F008
:1041F00077FE002806D110BD08F0FEFCEFE708F0BE
:10420000FBFCF2E708F0F8FCF5E7C0468069002007
:10421000005800406621C10010B588B00400142287
:10422000002103A809F024FE2268124B9A4201D013
:1042300008B010BD104C626B01231A436263626BBD
:1042400013400193019B03A9C0235B010393122335
:104250004B600C3B0B61A020C00502F0E7FCE36B58
:104260008022D2031343E363E36B13400293029B68
:10427000DEE7C0460058004000100240030008334B
:104280004360012252428260C360036100230360E5
:10429000704700230361704743684B609A688A60E7
:1042A000516099600861036801330360704730B55D
:1042B0000D686B1C10D0030008331C005B681A6883
:1042C000AA42FAD963684B6099608C6061600861AA
:1042D00003680133036030BD0469F3E70369416893
:1042E00082688A60416851605A68824206D0002222
:1042F00002611A68013A1A601868704782685A6049
:10430000F5E7000082B000230193064B1B680133E0
:1043100001D072B6FEE772B6019B002BFCD002B052
:104320007047C04650000020000000000000000060
:104330000B4A13681868203080F30988022080F344
:104340001488BFF36F8F3FBCAE4608BC04BC62B696
:104350001847C046C046C046C046C046C046C046D4
:104360009C70002010B5031F802464041C60043B73
:104370001960044B01000C390B600300203B1A60EC
:10438000403810BD0543000870470000044B8022F0
:1043900052051A60BFF34F8FBFF36F8F7047C0464F
:1043A00004ED00E072B6044A136801331360BFF3F2
:1043B0004F8FBFF36F8F704750000020064B1B6874
:1043C000002B01D172B6FEE7013B034A1360002BBC
:1043D00000D162B67047C04650000020EFF3108055
:1043E00072B6704780F3108870470000000000002C
:1043F000EFF309800E4B1A6820381060F0C0444675
:104400004D4656465F46F0C008B572B607F032FA20
:1044100062B60CBC116808681030F0C8A046A94606
:10442000B246BB4680F309882038F0C81847C0461A
:104430009C70002010B5FFF7D1FF040007F004F9CD
:10444000002803D0034B802252051A602000FFF79A
:10445000C9FF10BD04ED00E010B5084C0023236037
:10446000074A1360074B1868FA218900FEF740FBE2
:104470000138054B18600723236010BD10E000E0F1
:1044800018E000E05C00002014E000E010B50C4BE8
:104490001968FF2212040A431A601968FF221206E3
:1044A0000A431A60FFF7D8FF064B00221A60FFF795
:1044B0003FFF07F0DFF9FFF725FF002010BDC046E2
:1044C00020ED00E0500000209A4200D2885470474E
:1044D00070470100002007E083001B185B00501CA0
:1044E00008601078C01830380A681378303BDBB2A7
:1044F000092BF1D97047F0B5DE4657464E46454682
:10450000E0B583B093461F000C9B9A460D9C0E9B12
:1045100099460F9B9B0717D0B8460F00060022E074
:10452000551C4B4641462020B84701342A00B4426E
:10453000F6D33D004F465C46019B9B46B14646463E
:10454000B84637002E000EE00192A34688464E463C
:10455000B9460700EBE7013C551C5346185D43463E
:104560003900B0472A00002CF5D135003E004746FF
:104570000F9B9B0711D4100003B0F0BCBB46B246A2
:10458000A946A046F0BD541C4B4641462020B847E2
:104590002200531BB342F6D3EDE7B0464E46B94670
:1045A0002F005D46F5E7F0B5CE46474680B585B0AD
:1045B000944698460C9D0D9C0EAB1B789946109A1C
:1045C000119B129EB7071CD4002B0CD0F7070AD5FD
:1045D0004F46002F02D10C37374204D0013B02E096
:1045E00030272F550134944201D21F2CF8D9F707F8
:1045F00007D59C4205D21F2C03D830272F550134F4
:10460000F5E7F70612D5770505D4002C03D09442C0
:1046100021D09C421FD00F9A102A2FD00F9A022A25
:1046200036D01F2C0AD830222A5501341F2C05D829
:104630004A46002A32D02D222A550134039602938D
:104640000194009543466246FFF755FF05B0C0BC94
:10465000B946B046F0BD621E012C17D00F9F102F37
:104660000BD014000F9A102AD8D1B206D6D51F2C21
:10467000D4D858222A550134D3E7023CB206F1D4EB
:104680001F2CEFD878222A550134CAE71400C2E75C
:104690001F2CD3D860322A550134C2E7720703D5E4
:1046A0002B222A550134C9E73207C7D520222A55C3
:1046B0000134C3E7F0B5DE4657464E464546E0B501
:1046C00093B081468A46089209931CAB10CB1B78A5
:1046D0009B461E9D219B9846002C03D110234246E9
:1046E0009A4390468023DB0046461E4042461A42CB
:1046F00018D0002C22D0002614E0424692061BD58A
:104700004121C918C9B20A39C9B2771C0AAB9955F7
:1047100029002000FEF7ECF9AC4210D31F2F0ED871
:104720003E00040029002000FEF768FACBB2092BF6
:10473000E3D83033D9B2E8E76121E2E72700434606
:104740000693209B05931F9B049303955B4602935E
:1047500001970AAB0093099B089A51464846FFF718
:1047600022FF13B0F0BCBB46B246A946A046F0BD3E
:10477000F0B5DE4657464E464546E0B597B00A903E
:104780000B910C929A46209B9946219F22AA13785E
:104790009B46249B0993259C289B98464A463A436E
:1047A00002D11032934398468022D20045461540EC
:1047B000434613420AD04A463A4341D000252E00D0
:1047C00053460D934D46099B9A4621E02E005346D1
:1047D0000D934D46099B9A461AE04246920623D510
:1047E0004122D218D2B20A3AD2B2731C99460EAB09
:1047F0009A555246230028003900FEF767FBBC4259
:1048000020D813D04B461F2B16D84E4605000F005C
:104810005246230028003900FEF758FBD3B2092B7B
:10482000DBD83033DAB2E0E76122DAE7AA45E9D92A
:104830004E460D9B9A4608E04E460D9B9A4604E074
:10484000002602E04E460D9B9A4643460693279B60
:104850000593269B0493099B03935B460293019661
:104860000EAB009353460C9A0B990A98FFF79BFEE8
:1048700017B0F0BCBB46B246A946A046F0BD00004A
:10488000F0B5DE4657464E464546E0B591B0814606
:10489000884692460E931A9E1B9F32003B003000C2
:1048A0003900FEF7ABFA002800D104E101225242A0
:1048B000D54B30003900FEF7BBFA002800D0FAE0F3
:1048C00001225242D14B30003900FEF79DFA0028F8
:1048D00000D0F0E00022002330003900FEF794FA07
:1048E000002800D0FCE0069607978023DB001E9A84
:1048F0001A400F921E9A1A4201D106231C93069960
:10490000079A0B00100D4005400DC14CA4466044B1
:10491000079C2203120B1C00BE4B13431D000EF01C
:104920001FFDBD4ABD4B0DF0BDFDBD4ABD4B0CF09A
:104930005DFD089009910022BB4B200029000EF07C
:1049400079F8BA4ABA4B0DF0ADFD02000B00089899
:1049500009990CF04BFD0EF0C7FC83460EF000FDEC
:1049600004000D00B34AB44B0DF09CFD0022B34B84
:104970000CF03CFD0EF0B8FC0890B14AB14B2000A1
:1049800029000DF08FFD04000D0008980EF0E8FCE2
:10499000AD4AAE4B0DF086FD02000B002000290051
:1049A0000EF048F804000D0002000B000DF07AFD37
:1049B0000A900B91089BA64A94466344002100226A
:1049C000089109921B0509930023089322002B00EC
:1049D000200029000CF00AFD0C900D9122002B0004
:1049E00000208021C9050EF025F804000D000022EA
:1049F000984B0A980B990DF013F90022964B0CF086
:104A0000F5FC02000B000A980B990DF009F9002241
:104A1000924B0CF0EBFC02000B000A980B990DF086
:104A2000FFF802000B00200029000CF0DFFC020060
:104A30000B000C980D990DF0F3F80022754B0CF05B
:104A4000D5FC089A099B0DF02DFD04000D0008947B
:104A50000995069A079BFEF7EBF900280BD0012376
:104A60005B429C46E34400227B4B200029000DF072
:104A7000D7F8089009915B466333C62B3CD80424D1
:104A80001E9B1B0544D5764A764B06980799FEF780
:104A9000D9F9002841D00022734B06980799FEF7F8
:104AA000B3F9002839D01C9B5B4527DD5A469B1A79
:104AB000013B1C9324E01E9B04931D9B03931C9BB2
:104AC0000293009601970E9B52464146484600F0DD
:104AD000DBF811B0F0BCBB46B246A946A046F0BD1B
:104AE0000021002206910792069680231B069C4611
:104AF000BC4463460793F8E60524C1E700231C93F2
:104B00008023DB001E9A1A431E92002400239B463A
:104B10001D9B9C420BD21D1B0AE01C9B002BF7D057
:104B20000F9B002BF4D01C9B013B1C93F0E700254E
:104B300002231E9A1A400A921E9A134202D0002C97
:104B400000D000255B46002B07D0089A099B0698E9
:104B500007990DF065F806900791002200233000B8
:104B60003900FEF751F900283FD1404B1E9A1340FF
:104B7000049303951C9B0293069A079B0092019352
:104B80000E9B52464146484600F07EF8002CA0D0CD
:104B90001E9B9B0635D545239C46451C0E9E330027
:104BA000020041466046C8475A46D317D2185A40B9
:104BB00005230593013C0494002303930A330293D5
:104BC0005946CB0F0193009233002A0041464846D4
:104BD000FFF770FD0A9B002B00D17AE702004E46DA
:104BE000474655460E9B984648E0069E079F320072
:104BF000390080200006844661440B00069207932A
:104C0000B3E765239C46C8E7FFFFEF7FFFFFEFFF99
:104C100001FCFFFF0000F03FFB799F501344D33F9E
:104C2000B3C8608B288AC63F0000F83F61436F63BA
:104C3000A787D23F71A379094F930A400000E03F54
:104C40001655B5BBB16B0240EF39FAFE422EE63F76
:104C5000FF03000000002C4000002440000018402A
:104C60002D431CEBE2361A3F80842E41FFF7FFFFF5
:104C7000541C434639002020B0472200531B1D9985
:104C80008B42F5D3100024E7F0B5DE4657464E467A
:104C90004546E0B595B08346884691469A46209DA4
:104CA0001E9A1F9B10001900FEF7A8F8002839D0A3
:104CB00001225242B44B1E981F99FEF7A5F8002816
:104CC0003FD101225242B14B1E981F99FEF7B0F816
:104CD000002845D10022AE4B1E981F99FEF7A8F878
:104CE000002852D10022AB4B1E981F99FEF78CF87A
:104CF00000284AD1002200231E981F99FEF784F84D
:104D0000002852D100230B93229B5B0558D5002429
:104D10001F2C57D8092D55D90CAB30221A55013DFF
:104D20000134F5E7229B0393219B02930323019314
:104D3000994B009353464A4641465846FFF7DBFBE2
:104D4000F4E0229B0393219B029304230193934B52
:104D5000009353464A4641465846FFF7CCFBE5E0F0
:104D6000229B5B070ED58E4B042222990391219939
:104D700002910192009353464A4641465846FFF736
:104D8000BAFBD3E0874B0322EFE7229B0493219BDE
:104D9000039302951E9B1F9C0093019453464A4621
:104DA00041465846FFF76CFDC0E01E9A1F9B00204D
:104DB00000210DF03FFE1E901F9101230B93A3E7EE
:104DC0000625A4E71E981F990EF08EFA06000EF035
:104DD000C7FA02000B001E981F990DF02BFE724BB4
:104DE000EA009B181A685B68089209930DF05AFB59
:104DF000069007910BF084F907000EF0DFFA02002D
:104E00000B00069807990DF015FE069007910022F9
:104E1000664BFEF70DF8002822D0013738000EF05F
:104E2000CDFA02000B0008980999FDF7F7FF00285A
:104E300001D001360027002D20D130000EF090FA6D
:104E400002000B001E981F990DF0F4FD0022574B35
:104E5000FDF7DAFF00283BD1F30739D5013637E0FB
:104E60000022524B06980799FDF7CEFF0028E2D1A9
:104E7000002F01D0FB07DED50137DCE706961F2C9B
:104E800011D8013D0A213800FDF7B8FE661C30310B
:104E90000CAB19550A213800FDF72AFE092F0ED94F
:104EA00007003400EBE7069E1F2C0BD86B1E002D6D
:104EB00008D00CAA302111551D000134F4E734004C
:104EC000069EF1E71F2C03D80CAB2E221A55013495
:104ED0001F2C10D80A213000FDF77AFF651C3031F5
:104EE0000CAB19550A213000FDF78CFE061E01D0CF
:104EF0002C00EDE72C000323229A1340012B1CD039
:104F00001F2C06D80B9B002B2ED00CAB2D221A5534
:104F10000134229B0393219B029301940CAB0093D9
:104F200053464A4641465846FFF7E5FA15B0F0BCED
:104F3000BB46B246A946A046F0BD219B002B0DD032
:104F40000B9B002B02D10C33134207D0219B013B5A
:104F5000219303E00CAB30221A550134219B9C4273
:104F6000CED21F2CF6D9CBE7229B5B0704D50CAB26
:104F70002B221A550134CCE7229B1B07C9D50CAB59
:104F800020221A550134C4E7FFFFEFFFFFFFEF7F38
:104F900065CDCD4165CDCDC1943701089837010865
:104FA0008837010890370108E03B01080000E03F26
:104FB000F0B5DE4657464E464546E0B593B007008D
:104FC0008A4693461193002900D12CE3002508E07E
:104FD0006C1C5B462A005146B847119B0133119364
:104FE0002500119B1878002800D11EE32528EFD159
:104FF000013311930023180020E0012318430132EC
:105000001192012418E00223184301321192012465
:1050100012E0042318430132119201240CE008230A
:10502000184301321192012406E010231843013283
:105030001192012400E00024002C09D0119A137869
:10504000203BD9B21029F6D88B00C449CB589F46D3
:105050008146119B1A781300303BDBB2092B10D923
:105060002A2A13D00B94119B1A782E2A20D0119A39
:105070001378683BD9B2122965D88B00B849CB5850
:105080009F4611A8FFF725FA0B90ECE71C9B1A1D11
:105090001C921B68002B04DB0B93119B01331193B3
:1050A000E1E702220100114389465B420B93F4E7DA
:1050B0008022D2004946114389465A1C11925A78DF
:1050C0001300303BDBB2092B0BD92A2ACFD11C9B12
:1050D0001A1D1C921C68002C08DB119B01331193D4
:1050E000C5E711A8FFF7F5F90400C0E70024F4E7CD
:1050F00080235B0049460B43511C119151786C2968
:1051000001D099461FE0C0239B00494619438946B8
:105110000232119217E0802349460B43511C119132
:105120005178682901D099460DE0C02349461943BA
:1051300089460232119206E080235B0049461943FA
:10514000894601321192119B187867281CD82528AE
:1051500000D25EE20300253BDAB2422A00D958E2CF
:105160009300804AD3589F4680239B0049461943A9
:10517000894601321192E6E780235B0049461943D4
:10518000894601321192DEE7782800D941E2692888
:1051900000D23EE20200693AD2B201239340724A41
:1051A000134210D11A0600D50CE25B0500D430E2A0
:1051B0001C9B1A1D1C921E68002C00D0BAE1012213
:1051C0005242330096E16F2842D005D8582841D08A
:1051D000622803D1022606E078283DD010234A46F3
:1051E0009A4391460A26582838D0692805D0642861
:1051F00003D00C224B46934399464B465A0502D5A1
:1052000001229343994669282DD064282BD04B4620
:105210009A0500D5AAE0DA0500D5C2E05A0600D406
:10522000D3E01C9A111D1C911168FF220A404B46C5
:1052300005930B9B04930394029600230193009221
:105240005B462A0051463800FFF734FA05002AE091
:105250000826C8E71026C6E71026C4E720224B46DA
:1052600013439946C1E74B469A0520D4DA0551D439
:105270005A0666D51C9A111D1C911168FF220A401E
:10528000D017111841404B4605930B9B0493039490
:105290000296D20F019200915B462A0051463800D7
:1052A000FFF708FA0500119B0133119399E61C9A48
:1052B000073207218A43110008311C911168536895
:1052C0009C46DB170C930D930C9A0D9B10004840E5
:1052D0000E900D9B61464B400F930E980F990C9AC0
:1052E0000D9B801A99410E900F914B4608930B9B92
:1052F000079306940496002305936346DA0F0292FF
:10530000009001915B462A0051463800FFF730FAC1
:105310000500C8E71C9A111D1C911268D0171118BE
:10532000414005930B9B049303940296D20F019284
:1053300000915B462A0051463800FFF7BBF9050093
:10534000B1E71A0605D51C9A111D1C910023D25EE7
:1053500096E71C9A111D1C91126891E7443A0108C6
:10536000883A0108D43A0108419000001C9A07329B
:1053700007218A43110008311C9108930B9B079366
:1053800006940496002305930293536812680092D2
:1053900001935B462A0051463800FFF7E9F9050002
:1053A00081E71C9A111D1C9105930B9B0493039498
:1053B000029600230193136800935B462A0051462E
:1053C0003800FFF777F905006DE71A0606D51C9A35
:1053D000111D1C9112681204120C28E71C9A111D51
:1053E0001C91126823E746281AD01C9B073307221A
:1053F00093431A0008321C924A4604920B9A039275
:1054000002941A685B68009201935B462A00514639
:105410003800FFF739FC0500119B01331193E0E5DB
:1054200020234A461A439146DFE7672801D04728E0
:1054300004D180231B014A461A439146452801D0D6
:10544000472803D120234A461A4391461C9B073321
:10545000072293431A0008321C924A4604920B9A80
:10546000039202941A685B68009201935B462A00DB
:1054700051463800FFF704FA0500119B01331193E0
:10548000AFE502234E461E404A4613421ED0012479
:105490001C9B1A1D1C926A1C904618785B462A00B9
:1054A0005146B847002E14D1119B01331193454644
:1054B00097E5551C5B4651462020B84723002A003B
:1054C0005C1C0B999942F4D81500E1E701232A00EE
:1054D000F6E7424606E0561C5B4651462020B84798
:1054E0002C003200651C0B9BA342F4D89046DBE7EE
:1054F00001330A001978002902D0511E002AF7D181
:105500009B1B8022D20049461140884649461142E1
:1055100002D0A34200D92300022249461140109133
:1055200049460A4208D02A00250099463B004746D2
:10553000984626E0220044E6A1462A005146B2469B
:105540000E0006E0551C5B4631002020B8472300C2
:105550002A005C1C0B999942F4D8150022004C4695
:10556000330056469A4691462A0025003B0047469E
:10557000984606E01D000136541C5B465146C04764
:1055800022003078002804D0002FF4D06B1E002DAC
:10559000F0D115004B464746109A002A03D1119BC3
:1055A000013311931DE50B9E2A0006E0551C5B4656
:1055B00051462020B84723002A005C1C9E42F5D8A3
:1055C0001500ECE721234A461A4313001C9A111DCB
:1055D0001C911268059308230493039408330293E3
:1055E0000023019300925B462A0051463800FFF7E2
:1055F00061F80500119B01331193F2E46C1C5B46CA
:105600002A0051462520B847119B013311932500EC
:10561000E7E46C1C5B462A005146B847119B0133F6
:1056200011932500DDE40A4FD0E45D450DD35B46C0
:105630005A1E5B4651460020B847280013B0F0BC04
:10564000BB46B246A946A046F0BD2A00F1E7C046D7
:10565000D14400080CB430B585B00A0008AC08CCC1
:105660000394054D009401002800FFF7A1FC05B04C
:1056700030BC08BC02B01847C944000810B582B05D
:10568000044C009313000A0001002000FFF790FC77
:1056900002B010BDC94400080300406A002803D0CE
:1056A0001B6B1B683820C01A704710B50400FEF74A
:1056B00079FEA26BE36B9A4204D00024FEF77EFED3
:1056C000200010BD0124F9E710B50400FEF76AFEC2
:1056D000A36B002B04D10124FEF770FE200010BD47
:1056E0000024F9E770B504001500866B026C002AEF
:1056F0000CD10368002B03D000200136A66370BDD7
:10570000806806F063FA0023A360F6E7002D0DD150
:10571000406808F06EFC6368226C9B186360A268A6
:1057200093421AD3236863602800E6E7C06808F054
:1057300060FCE368226C51429B1AE360226893424A
:1057400002D2A3685B18E360022D01D00020D4E7E9
:10575000002E04D0013E0020CFE72800CDE7002036
:10576000CBE710B5030008001A6C002A0AD0DC68E9
:10577000A418DC6099688C4201D31968D960D96893
:1057800008F037FC10BD70B50500FEF70BFE452391
:10579000EC5C64B201E0013C64B2002C0BDD6B6A8E
:1057A000002B08D02800243006F02CF90028F2D075
:1057B00006F0AAF9EFE74523FF22EA54FEF7FEFDC3
:1057C000FEF7F0FD4423EC5C64B201E0013C64B2FE
:1057D000002C0BDD2B69002B08D02800103006F0C0
:1057E00011F90028F2D006F08FF9EFE74423FF22E9
:1057F000EA54FEF7E3FD70BD70B504000D0000280B
:105800001DD0FEF7CFFD2268E36B206C01005943E9
:105810005118A1600021A1636260013B4343D2188B
:10582000E260FF234422A3540132A354002D11D17E
:105830002369002B05D1FEF7C1FD012070BD72B6B2
:10584000FEE72000103006F0DDF80028F3D0FEF768
:105850009DFDF0E720001030FEF710FD2000243001
:10586000FEF70CFDE7E770B51D00049C002909D187
:105870002460E063216401212000FFF7BDFF4C2379
:10588000E55470BD2260F4E770B584B01D0008AC2B
:105890002378002801D172B6FEE7002D05D0002A3A
:1058A00005D0002903D172B6FEE772B6FEE7002AE2
:1058B00006D050240394039C502C05D072B6FEE70A
:1058C0000029F6D072B6FEE7039C462401262E5529
:1058D0000095FFF7C8FF280004B070BDF0B583B095
:1058E00004000D001600002801D172B6FEE7080082
:1058F00060435030FEF7C0FB071E0AD00200503252
:1059000046230021C1540090330029002000FFF7F6
:10591000AAFF380003B0F0BDF0B585B004000F0059
:1059200001921D00002808D0002908D0022D0BD1BB
:10593000E36B012B08D072B6FEE772B6FEE7036C8C
:10594000002BF3D072B6FEE706F0E4F8061E04D191
:10595000019B002B32D072B6FEE700262EE02A0013
:1059600039002000FFF7BEFE636A002B06D1002835
:105970000DD1FEF723FD012005B0F0BD200024303D
:1059800006F040F80028F4D0FEF700FDF1E7FEF73E
:10599000FDFCEEE7FEF712FD0020EDE702A806F0A1
:1059A00073F8013617E00022E2541FE00022E254AF
:1059B00021E02000FFF7E7FE05F0D0FEFEF7F2FC45
:1059C000A26BE36B9A42CAD3022DC8D0019B002B75
:1059D000E0D0002EE2D0FEF7F1FC05F027FEFEF746
:1059E000E1FC4423E25C52B20132DCD04523E25CAC
:1059F00052B20132DAD0FEF7E1FC01A902A806F0AA
:105A00004FF8002813D12000FFF74FFE0028D0D018
:105A100001992000103005F0CBFF2000FFF7B3FE06
:105A200005F09CFE0028C9D1FEF7B0FCC6E72000B7
:105A3000FFF7A9FE05F092FE00209DE7F0B5C646EF
:105A400000B582B004000F0001921D00002808D0AC
:105A5000002908D0022D0BD1E36B012B08D072B6C0
:105A6000FEE772B6FEE7036C002BF3D072B6FEE7DA
:105A7000FEF7B4FC0600A26BE36B9A420AD3022D38
:105A800008D000243000FEF7ADFC200002B080BC3E
:105A9000B846F0BD4523E35C5BB29846A36B2A0091
:105AA00039002000FFF71EFE4346013306D043466F
:105AB00001335BB24522A3540124E3E7636A002B60
:105AC00001D10124DEE72000243005F09BFF0028EF
:105AD00006D0019A002A05D0012313600124D1E7E2
