:020000040800F2
:1000000000900020655A0008955400089754000895
:1000100000000000000000000000000000000000E0
:1000200000000000000000000000000099500008DF
:1000300000000000000000004F540008CD500008F0
:10004000B55A0008B55A0008B55A0008B55A000854
:10005000B55A0008B55A0008B55A0008B55A000844
:10006000B55A000899540008A9540008C154000862
:10007000B55A0008B55A0008D9540008E9540008D8
:10008000B55A0008B55A0008B55A0008B55A000814
:10009000F9540008B55A000809550008B55A000877
:1000A000B55A0008B55A0008B55A0008B55A0008F4
:0C00B0001955000829550008B55A000831
:1000C000EFF30583002B06D1064B1868002805D1F5
:1000D00001221A60704706204042FBE7012040429F
:1000E000F8E7C04660000020034B0360034B0B6041
:1000F000802313607047C04664000020C051002078
:10010000034B0360034B0B6080235B00136070475D
:10011000C0000020C04D002010B5104A53071AD06F
:10012000D11D072399430E4B5B1A9B180A000D49FA
:10013000CA6300200864D318083B0724A3434B6418
:1001400058601860981A506013608864C8648023EF
:100150001B060B6510BD024BE9E7C04628130020C3
:10016000983A0000E000002010B5124B1A001B68FE
:100170008342FBD351685418844208D04168441824
:10018000A34209D00360904200D0106010BD4068C7
:10019000091851601000F1E7074C646CA34206D0C7
:1001A0005B68C918416013681B680360EBE7046073
:1001B000E9E7C0461C010020E000002003000833EE
:1001C0004360012252428260C360036100230360E6
:1001D000704700230361704743684B609A688A60E8
:1001E000516099600861036801330360704730B55E
:1001F0000D686B1C10D0030008331C005B681A6884
:10020000AA42FAD963684B6099608C6061600861AA
:1002100003680133036030BD0469F3E70369416893
:1002200082688A60416851605A68824206D0002222
:1002300002611A68013A1A601868704782685A6049
:10024000F5E710B5031F802464041C60043B1960AB
:10025000044B01000C390B600300203B1A6040384E
:1002600010BDC0466902000882B000230193064B0E
:100270001B68013301D072B6FEE772B6019B002BFA
:10028000FCD002B07047C04600000020084A136846
:100290001868203080F30988022080F31488BFF3A7
:1002A0006F8F3FBCAE4608BC04BC62B61847C04660
:1002B00088010020044B802252051A60BFF34F8F43
:1002C000BFF36F8F7047C04604ED00E072B6044A7A
:1002D000136801331360BFF34F8FBFF36F8F704705
:1002E00000000020064B1B68002B01D172B6FEE710
:1002F000013B034A1360002B00D162B67047C04631
:100300000000002010B5084C00232360074A13604A
:10031000074B5868FA21890005F098F90138054B18
:1003200018600723236010BD10E000E018E000E033
:100330000000002014E000E010B50400FFF7C6FF45
:10034000A36B002B04D10124FFF7CCFF200010BDCC
:100350000024F9E710B50400FFF7B8FFA26BE36BC8
:100360009A4204D00024FFF7BDFF200010BD0124F5
:10037000F9E710B50022072A0BD8064BD4001B1949
:100380005B6D002B01D00132F5E7024B1B1959655B
:10039000986510BDE0000020024A536901335361A3
:1003A0007047C04660010020014B58697047C04645
:1003B00060010020F0B583B00400002301930669BA
:1003C0005433C35C012B00D12EE154230122C254CB
:1003D00000688368033215001D401A4209D0A26DDF
:1003E00020231343A365012054230022E25403B0C9
:1003F000F0BD4B68022B00D1D4E080221206964259
:1004000025D08A4A964222D01F221340103A9A40A1
:10041000276E97430A6856032FD1920E1F25154069
:100420009D403D4325664A6893080133E569AB4228
:1004300013D80B68856A1F263240103E370097405C
:10044000BD439B0E334093402B43836205E00B6812
:10045000826A5B035B0B1343836220680B688D68C1
:1004600042691B029A432B40714D2B401343436159
:100470000B68002B4FDB0020B6E7D607D0D49507DA
:1004800027D4550727D4150727D4D50627D4950692
:1004900027D4550627D4150627D4D50527D4950586
:1004A00027D4550527D4150527D4D50427D495047A
:1004B00027D4550427D4150427D4D50327D495036E
:1004C00027D48026F602150035403242A8D01225E6
:1004D000A6E70125A4E70225A2E70325A0E7042556
:1004E0009EE705259CE706259AE7072598E7082556
:1004F00096E7092594E70A2592E70B2590E70C2556
:100500008EE70D258CE70E258AE70F2588E7102555
:1005100086E7112584E7474A1168E02252040A4021
:100520004548834207D04548834221D0444883420E
:100530002BD0002058E70802F5D480231B041A436F
:100540003C490B683F48034013430B603E4B5868DF
:100550003E4905F07BF8431C0C205843019002E013
:10056000019B013B0193019B002BF9D100203BE74C
:10057000C801DBD480235B041A432E490B68314841
:10058000034013430B6000202EE749024AD4802326
:10059000DB031A4327490B682A48034013430B60C7
:1005A000002021E780231B069E4202D01F4B9E4263
:1005B00005D10B68826A5B035B0B9A4382620B680E
:1005C000002B01DB00200FE71A4A12681A498B4200
:1005D00007D01A498B420FD019498B4217D00020FF
:1005E00002E7A0235B041A4012490B681548034038
:1005F00013430B600020F7E6C0231B041A400D498B
:100600000B681048034013430B600020ECE6C02346
:100610005B041A4007490B680A48034013430B6008
:100620000020E1E60020DFE60220E0E60400008092
:1006300000FFFF0708270140001000B0004000B88D
:10064000002000B4FFFF3FFE00000020400D03002B
:1006500070B5002811DB8308134DC0339B005C5933
:1006600003221040C000FC3216008640B4438901CA
:100670000A40824022435A5170BD0F230340083B79
:100680009B0806339B00094A944663445C68032236
:100690001040C000FC3215008540AC4389010A407F
:1006A000824022435A60E7E700E100E000ED00E00D
:1006B00010B5FFF7CDFF10BD002805DB1F2202405B
:1006C00001239340014A13607047C04600E100E0F7
:1006D00000B583B0114A916B012319439163926B6A
:1006E00013400193019B002203210920FFF7E0FF43
:1006F0000920FFF7E1FF002203210A20FFF7D8FFBE
:100700000A20FFF7D9FF002203210B20FFF7D0FFBB
:100710000B20FFF7D1FF03B000BDC0460010024020
:1007200030B5002836D02523C35C022B06D0042325
:10073000C36320330022C254012030BD01680A681F
:1007400001239A430A6001680A680E24A2430A60E2
:10075000416C0A68104C22400A6010494C68026CD7
:100760001C252A40934023434B60836CC26C5A6023
:10077000036D002B06D01A6807490A401A60436DC2
:10078000826D5A6025230122C254013B0022C254CB
:100790000020D2E70120D0E7FFFEFFFF000002406B
:1007A00070B52523C35C022B03D00423C36301204F
:1007B00070BD01680A6801239A430A6001680A68EB
:1007C0000E24A2430A60416C0A68134C22400A605E
:1007D00012494C68026C1C252A40934023434B600D
:1007E000836CC26C5A60036D002B06D01A680A49EC
:1007F0000A401A60436D826D5A6025230122C2545B
:10080000013B0022C254836B002B02D0984700208A
:10081000CEE70020CCE7C046FFFEFFFF000002400D
:1008200070B5314B196804682568026C1C231340AD
:1008300004229A40114216D06A0714D523689B06F9
:1008400003D4236804229343236027494C68026C35
:100850001C231A40183B934023434B60036B002B2F
:1008600000D0984770BD02229A4011421CD0AA07BE
:100870001AD523689B0606D423680A229343236073
:100880002523093AC25418494C68026C1C231A40AB
:100890001A3B934023434B6024230022C254C36A73
:1008A000002BDFD09847DDE708229A401142D9D0CB
:1008B0002D07D7D523680E22934323600A494C683D
:1008C000026C1C231A401B3B1D0095402A0022434A
:1008D0004A60C3632522835423330022C254436BEE
:1008E000002BBFD09847BDE70000024010B50400C0
:1008F000036C9B08094A944663449B004364036865
:10090000FF2018400838142104F0A0FE044BA36413
:100910001F2318401E3B8340E36410BD008200107B
:100920008008024042683F231340064A9A1892000A
:100930000265054A4265013B03221A4001239340A8
:10094000836570473F8200104009024070B5041E65
:100950004DD00568274BE818142104F077FE80007D
:10096000206425230222E2542B68234A13402B6083
:1009700022681168A368E068034320690343606943
:100980000343A0690343E0690343206A03430B4325
:1009900013602000FFF7AAFFA2688023DB019A42C0
:1009A00018D06168626C3F230B401360A36CE26C4B
:1009B0005A606368013B032B0FD9002323656365ED
:1009C000A3650023E36325220121A154013AA35426
:1009D000002070BD00236360E3E72000FFF7A2FF63
:1009E000236D00221A60636DA26D5A60E9E7012051
:1009F000EFE7C046F8FFFDBF0F80FFFFF0B5002313
:100A000059E086685F000324BC40A643CC68BC4024
:100A100034438460446894434E683609012232406E
:100A20009A402243426056E0DE080836B600375846
:100A300005321A4092000F249440A7430C69944059
:100A400022003A43325059E0032600E00026A64037
:100A500034003C43424E1832920094513768EA43C6
:100A60003E00AE434C68E40201D53E002E433C4CB0
:100A7000266067683E0016404C68A40201D53E001F
:100A80002E43374C66608426A7593E0016404C68BA
:100A9000A40301D53E002E43314C8427E651802625
:100AA000A65932404C68E40301D52A0032432C4D4C
:100AB00080242A5101330C682200DA404ED00122F2
:100AC0009A40250015401442F4D04E680324344067
:100AD000013C012C95D94C6803222240032A08D0FE
:100AE000C4685E000322B24094438A68B240224345
:100AF000C2604C6803222240022A95D004685E003E
:100B000003221700B740BC434F683A40B24022432B
:100B100002604C68C02292021442CBD09A081400A2
:100B20001834A4000E4EA75903241C40E4000F26DD
:100B3000A640B743A026F605B04287D0094EB04282
:100B400008D0094EB04207D0084EB04200D17BE732
:100B500005267CE701267AE7022678E7F0BDC04645
:100B6000001802400004005000080050000C005023
:100B700010B588B004001422002103A804F09BFFE4
:100B80002268124B9A4201D008B010BD104C636B22
:100B9000012213436363636B13400193019B03A919
:100BA000C0235B01039312234B600C3B0B61A0201D
:100BB000C005FFF723FFE36B8022D2031343E363F7
:100BC000E36B13400293029BDEE7C04600580040EF
:100BD0000010024010B58AB004001422002105A8BC
:100BE00004F069FF2368214A934204D0204A9342CB
:100BF0001DD00AB010BD1F4B1A6C802149010A4359
:100C00001A641A6C0A400192019A5A6B01210A4334
:100C10005A635B6B0B400293029B05A982230593E9
:100C2000803B4B60A020C005FFF7E8FEE1E7114BD9
:100C3000DA6B8021C9010A43DA63DA6B0A40039256
:100C4000039A596B0222114359635B6B134004935F
:100C5000049B05A9C0235B0005934A60803BFF3BD2
:100C60000B610548FFF7CAFEC3E7C04600300140EC
:100C7000003800400010024000040050002A01D05B
:100C8000816170478162FCE7F0B5DE4657464E460B
:100C90004546E0B589B003AC14220021200004F0E1
:100CA0000AFF314B596B042211435963596B0A40B7
:100CB0000092009A5A6B01252A435A635A6B2A40C4
:100CC0000192019A5A6B022632435A635B6B33409E
:100CD0000293029B254F264B9B46002239001800A9
:100CE000FFF7CCFF234B9A46A023DB059846012251
:100CF00051461800FFF7C2FF002240214046FFF78F
:100D0000BDFF1D4B9946002272211800FFF7B6FF68
:100D100003976560A6600027E76021005846FFF74B
:100D20006DFE534603936560A560E7602100404671
:100D3000FFF764FE402303936560A660E76021002F
:100D40004046FFF75BFE722303936560A660E76091
:100D500021004846FFF752FE09B0F0BCBB46B24640
:100D6000A946A046F0BDC0460010024040C00000A9
:100D700000080050108000000004005010B5041E50
:100D800060D04123C35C002B48D041232422E2548D
:100D90002268136801218B431360636822682A4923
:100DA0000B4013612268936828490B409360E36805
:100DB000012B39D0A168226884231B020B43936066
:100DC000E368022B37D02268536821490B405360F7
:100DD000226851681F4B0B4353602268D3681B493C
:100DE0000B40D360236962691343A2691202216830
:100DF0001343CB60E369216A22680B4313602268C6
:100E0000136801210B4313600023636441221F31E7
:100E1000A15423630132A354002010BD40330022AB
:100E2000C254FFF7A5FEB0E7A168226880231B0229
:100E30000B439360C4E72268516880231B010B4376
:100E40005360C5E70120E8E7FFFFFFF0FF7FFFFFEA
:100E5000FFF7FFFF00800002F0B503004122825C33
:100E6000202A1FD12032825C012A1DD04024012279
:100E700002554125242058551E6830689043306043
:100E80001E683068094F384030601E683068014382
:100E900031601968086802430A6020225A55002010
:100EA0001855F0BD0220FCE70220FAE7FFEFFFFF34
:100EB000F0B503004122825C202A1DD12032825CE1
:100EC000012A1BD0402401220255412524205855D7
:100ED0001E683068904330601E683068084F3840A4
:100EE0000902014331601968086802430A60202240
:100EF0005A5500201855F0BD0220FCE70220FAE701
:100F0000FFF0FFFF00B583B00C4B196C01221143B9
:100F10001964196C0A400092009ADA6B8021490525
:100F20000A43DA63DB6B0B400193019B0220002232
:100F300003214042FFF7BCFB03B000BD001002409C
:100F400010B5104A136810490B4003431360802307
:100F50009B00984201D0002010BD0C4B586806231E
:100F600058430B4904F072FB0130064B5B695B058B
:100F700003D5002803D00138F7E70020ECE7032071
:100F8000EAE7C04600700040FFF9FFFF00000020C4
:100F900040420F0010B5294B9B6838221A4207D1F6
:100FA000264B1B68DB0A313A13402548D84010BD58
:100FB000224B9B6838221340082B39D01F4B9B686B
:100FC0001340102B0CD01D4B9B6838221340202B54
:100FD00030D01A4B9B681340182B26D00020E6E730
:100FE000164AD36803210B40D16809090722114032
:100FF0000131032B0FD0124804F028FB0F4BDB68A4
:101000001B0A7F22134058430C4BD968490F01310A
:1010100004F01CFBCBE70B4804F018FB074BDB6824
:101020001B0A7F2213405843EEE7FA20C001BEE7B7
:101030000448BCE780200002B9E7C0460010024027
:101040000024F40000127A00014B58687047C04633
:101050000000002010B5FFF7F7FF064B9968064A1D
:10106000090B07230B409B009B581F221340D840BD
:1010700010BDC046001002405C5D000830B507237B
:101080000360094A94681C4044609468F0252D016F
:101090002C4084609268E024E4012240C260034A4C
:1010A000126813400B6030BD001002400020024067
:1010B000F0B583B0040003689B0362D5814BDB6B02
:1010C000DB001ED47F4BDA6B802149050A43DA63CB
:1010D000DB6B0B400193019B01267B4A1168802347
:1010E0005B000B431360FFF75FF90500764B1B684D
:1010F000DB0508D4FFF758F9401B0228F6D9032571
:1011000002E00026E9E70025002D23D16D4BD96DC3
:10111000C02292000B001340114212D0226B9A425F
:101120000DD0684AD36D69490B40D06D80214902CA
:101130000143D165D16D66480140D165D365DB07B8
:1011400010D4002D06D15F4AD36D60490B40216B4E
:101150000B43D365012E15D15A4AD36B5D490B4021
:10116000D3630FE0FFF720F90700564BDB6D9B07B9
:10117000E7D4FFF719F9C01B574B9842F5D903255F
:10118000DFE700252368DB0706D54E4A536D0321B0
:101190008B4361680B43536523689B0706D5494A17
:1011A000536D0C218B43A1680B4353652368DB0609
:1011B00006D5444A536D49490B40E1680B435365DA
:1011C00023689B0506D53F4A536D45490B40A169ED
:1011D0000B43536523685B0506D53A4A536D414975
:1011E0000B40E1690B43536523689B0606D5354ADE
:1011F000536D3D490B4021690B43536523685B04E4
:101200000BD5304A536D9B009B08216A0B435365F5
:10121000226A8023DB059A4239D023681B0306D556
:10122000284A536D40218B43616A0B435365236801
:101230009B020BD5234A536D2C490B40A16A0B43EB
:101240005365A26A8023DB039A4227D023685B029E
:101250000BD51C4A536D26490B40E16A0B4353657D
:10126000E26A80235B049A421FD023681B050BD5DA
:10127000144A536D1F490B4061690B435365626902
:101280008023DB019A4215D0280003B0F0BD0D4A3F
:10129000D16880235B020B43D360BEE7094AD16863
:1012A00080235B040B43D360D0E7064AD1680B432D
:1012B000D360DAE7034AD16880235B020B43D36033
:1012C000E2E7C0460010024000700040FFFCFFFF54
:1012D000FFFFFEFFFFFFFFEF88130000FFF3FFFF9C
:1012E000FFFFF3FFFFFFCFFFFFCFFFFFFFFFBFFFBA
:1012F000FFFFFFFEFF3FFFFF70B5041E00D179E046
:10130000436A002B07D142680533FF339A4205D068
:101310000023C36102E00023036143610023A36251
:101320005D33E35C002B5BD05D230222E254226834
:10133000136840218B431360E368E022D20093429C
:1013400055D90022F02109018B4205D0E021C900C6
:101350008B4201D00023A362206863688221490088
:101360000B40A16884252D0229400B4321690225E9
:1013700029400B43012165690D402B43A569802657
:10138000B60035402B43E569C93EFF3E35402B434F
:10139000256A483635402B43A56A8026B60135407C
:1013A0002B4303602568608B04230340606A10268A
:1013B00030400343606B083E30400343E068F02652
:1013C00036013040034313436B602268D3690A48F7
:1013D0000340D361002323665D33E154002070BDD8
:1013E0005C330022E2542000FFF7F4FB9CE78022EC
:1013F0005201A7E70120F2E7FFF7FFFF3D23C35C9F
:10140000012B29D13C330222C2540268D1683C3BF3
:101410000B43D3600368134A93420FD08022D20556
:1014200093420BD0104A934208D0104A934205D001
:10143000196801220A431A6000200EE09A680C49DC
:101440000A40062A0AD007398A4209D019680122BF
:101450000A431A60002000E0012070470020FCE7EA
:101460000020FAE7002C0140000400400040014049
:1014700007000100704770B504000368DE681D694D
:10148000AA0710D5B2070ED5032252421A610123D2
:10149000037703689B699B0700D182E09423C358BC
:1014A0009847002323776B0714D5730712D5236859
:1014B000052252421A610223237723689A69C023C6
:1014C0009B001A4200D174E09423E358200098470F
:1014D000002323772B0711D533070FD52368092263
:1014E00052421A61042323772368DB699B0769D082
:1014F0009423E3582000984700232377EB0613D565
:10150000F30611D52368112252421A61082323776A
:101510002368DA69C0239B001A425CD09423E35805
:101520002000984700232377EB0709D5F30707D559
:101530002368022252421A618423E358200098470C
:1015400082239B011D4208D0330606D52368264A14
:101550001A61B423E35820009847EB0508D53306F9
:1015600006D52368214A1A61B823E358200098471A
:101570006B0609D5730607D52368412252421A61CA
:101580008C23E35820009847AD0609D5B60607D549
:101590002368212252421A61AC23E3582000984765
:1015A00070BD9C23C3589847A023E3582000984758
:1015B00077E79C23E35820009847A023E3582000B6
:1015C000984785E79C23E35820009847A023E358D9
:1015D0002000984790E79C23E35820009847A023D9
:1015E000E358200098479DE77FDFFFFFFFFEFFFFE6
:1015F0007047704770477047704770477047704733
:1016000070470368234A904206D08022D205904258
:1016100002D0214A904203D1702293434A68134377
:101620001C4A904212D08022D20590420ED01A4A13
:1016300090420BD0194A904208D0194A904205D0E6
:10164000184A904202D0184A904203D1174A1A40D1
:10165000CB681343802293434A6913438A68C2626A
:101660000A6882620B4A904208D00D4A904205D027
:101670000C4A904202D00C4A904201D10A6902639E
:10168000026804210A43026001224261BFF34F8FC6
:1016900003607047002C014000040040002000401F
:1016A000004001400044014000480140FFFCFFFFB2
:1016B00070B5056A036A0122934303624268836935
:1016C000194C23400C681C4302239D438B682B4319
:1016D000164DA84208D0164DA84205D0154DA84277
:1016E00002D0154DA84207D1056A0426B54305620C
:1016F0000825AB43CD682B430C4DA84208D00C4DB8
:10170000A84205D00B4DA84202D00B4DA84205D1EE
:101710000A4D2A404D6915438A692A434260846113
:101720004A684263036270BD8CFFFEFF002C0140DB
:10173000004001400044014000480140FFFCFFFF21
:1017400070B5026A036A1024A34303624468836984
:10175000164D2B400D682D021D4320239A438B68A4
:101760001B011343124A904209D0124A90420FD0F3
:10177000114A90420CD0114A904211D108E0026AFD
:101780004026B243026280229343CA681201134387
:101790000B4A14404A69920022438C69A400144306
:1017A000446085614A688263036270BDFF8CFFFEFE
:1017B000002C01400040014000440140004801402D
:1017C000FFF3FFFF70B5046A036A194A134003620E
:1017D0004268C369174D2B400D681D43164B1C40D2
:1017E0008B681B022343154CA04209D0144CA04225
:1017F0000FD0144CA0420CD0134CA04211D108E0E1
:10180000046A124E34400462114C1C40CB681B0227
:101810002343104C22404C69240114438A6912016D
:1018200022434260C5614A68C263036270BDC0461C
:10183000FFFEFFFF8CFFFEFFFFFDFFFF002C0140BE
:10184000004001400044014000480140FFFBFFFF11
:10185000FFF7FFFFFFCFFFFF30B5046A036A134AAB
:10186000134003624368C269114D2A400D682D027E
:101870001543104A14408A68120322430E4CA042BA
:1018800008D00E4CA04205D00D4CA04202D00D4C09
:10189000A04204D10C4C1C404B699B012343436084
:1018A000C5614B680364026230BDC046FFEFFFFFB5
:1018B000FF8CFFFEFFDFFFFF002C014000400140D6
:1018C0000044014000480140FFBFFFFF30B5046AFB
:1018D000036A124A134003624368426D104D2A4066
:1018E0000D6815430F4A14408A68120422430E4CB7
:1018F000A04208D00D4CA04205D00D4CA04202D011
:101900000C4CA04204D1054C1C404B691B022343E4
:10191000436045654B688365026230BDFFFFFEFF93
:101920008FFFFEFFFFFFFDFF002C01400040014044
:10193000004401400048014030B5046A036A134A7C
:10194000134003624368426D114D2A400D682D0219
:101950001543104A14408A68120522430E4CA042D7
:1019600008D00E4CA04205D00D4CA04202D00D4C28
:10197000A04204D10C4C1C404B699B0223434360A2
:1019800045654B68C365026230BDC046FFFFEFFF8F
:10199000FF8FFFFEFFFFDFFF002C014000400140F2
:1019A0000044014000480140FFFFFBFF70B5040008
:1019B0000D003C23C35C012B00D192E03C230121AC
:1019C000C154142A00D987E09200474B9B589F4688
:1019D00029000068FFF76CFE2268916908230B4319
:1019E00093612268936904218B4393612268936910
:1019F00029690B43936100206FE029000068FFF71D
:101A00009FFE2268916980231B010B43936122682A
:101A1000936936490B40936121688B692A691202E8
:101A200013438B61002058E029000068FFF7CAFECD
:101A30002268D16908230B43D3612268D36904214A
:101A40008B43D3612268D36929690B43D36100209A
:101A500043E029000068FFF7FFFE2268D169802378
:101A60001B010B43D3612268D36920490B40D3612A
:101A70002168CB692A6912021343CB6100202CE054
:101A800029000068FFF722FF2268516D08230B43ED
:101A900053652268536D04218B4353652268536D4F
:101AA00029690B435365002017E029000068FFF700
:101AB00043FF2268516D80231B010B43536522684D
:101AC000536D0A490B40536521684B6D2A69120218
:101AD00013434B65002000E001203C230022E25428
:101AE00070BD0220FCE7C046E05C0008FFFBFFFF82
:101AF00030B50B00016A046A0125AC4304620D4C49
:101B0000A04208D00C4CA04205D00C4CA04202D000
:101B10000B4CA04203D1046A0425AC4304628469DF
:101B2000F025AC43120122430A24A14319438261E8
:101B3000016230BD002C01400040014000440140E2
:101B40000048014030B5036A046A1025AC430462C2
:101B5000094CA0420BD08469084D2C40120322434B
:101B6000A024A343090119438261016230BD046AC4
:101B70003035AC430462EEE7002C0140FF0FFFFF5D
:101B80008368034A13400B43072213438360704763
:101B90008FFFCFFF30B58468034D2C401B021343E9
:101BA0000B432343836030BDFF00FFFF10B50400EB
:101BB0000B003C22825C012A00D177E03C2201210B
:101BC000815401320131815401688A6838480240E9
:101BD0008A60196860294FD023D8402957D011D87E
:101BE000202904D00AD8002901D0102904D1206866
:101BF000FFF7C6FF00202AE0012028E03029F6D0B8
:101C0000012024E050290AD15968DA682068FFF7DA
:101C10006FFF50212068FFF7B3FF002017E001207D
:101C200015E08022520191423CD0802292019142E3
:101C300014D0702938D199685A68DB682068FFF79A
:101C4000A9FF2268916877230B43936000203D230E
:101C50000122E254013B0022E25410BD99685A6807
:101C6000DB682068FFF796FF226891688023DB011C
:101C70000B4393600020EAE75968DA682068FFF7B1
:101C800061FF60212068FFF77BFF0020DFE75968D4
:101C9000DA682068FFF72CFF40212068FFF770FF0B
:101CA0000020D4E70020D2E70120D0E70220D4E7CB
:101CB0008800CEFF154B84228350154B043283508D
:101CC000144B04328350144B04328350134B0432B0
:101CD0008350134B04328350124B04328350124B07
:101CE00004328350114B04328350114B0432835021
:101CF000104B04328350104B043283500F4B04328C
:101D000083500F4B043283507047C046351E000885
:101D1000F1150008FD150008FF150008F51500086D
:101D2000F7150008F3150008F9150008FB15000861
:101D3000011600084D1E00084F1E0008511E000825
:101D4000531E000870B5041E33D03D23C35C002B26
:101D500020D03D2502236355210001C9FFF751FC26
:101D600001234822A3540A3AA3540132A354013256
:101D7000A3540132A3540132A3540132A3540132BB
:101D8000A3540132A3540132A3540132A354635526
:101D9000002070BD3C330022C254FFF78BFFE36C80
:101DA000002B03D0E36C20009847D2E7024BE3649A
:101DB000F8E70120EDE7C0461944000870B5041E9D
:101DC00033D03D23C35C002B20D03D250223635537
:101DD000210001C9FFF715FC01234822A3540A3A48
:101DE000A3540132A3540132A3540132A35401324B
:101DF000A3540132A3540132A3540132A35401323B
:101E0000A3540132A3546355002070BD3C3300221B
:101E1000C254FFF74FFF636E002B03D0636E2000A8
:101E20009847D2E7024B6366F8E70120EDE7C0462A
:101E30007514000810B50268034B9A4200D010BD1B
:101E4000FEF7AAFAFBE7C04600480140704770471A
:101E50007047704730B53C23C35C012B30D03C2326
:101E60000122C25401330132C2540268536895689A
:101E7000144CA2421FD07024A3430C682343536028
:101E80000368104A934209D08022D205934205D0BC
:101E90000D4A934202D00D4A934204D180229543C9
:101EA0008A682A439A603D230122C254013B0022E2
:101EB000C254002030BD064C23404C682343DAE76F
:101EC0000220F7E7002C01400004004000400140E0
:101ED000FFFF0FFF10B53C23C35C012B40D03C2318
:101EE0000122C254CB681F4A13408A6813431E4A1A
:101EF00013404A6813431D4A13400A6813431C4A9F
:101F000013400A6913431B4A13404A6913431A4A90
:101F100013400A6B1343194A13408A69120413438E
:101F2000174A1340CA6913430468164A944205D0FD
:101F300063643C230022C254002010BD124A1340A7
:101F40008A6A12051A43114B1A400B6A1A43104B46
:101F50001A404B6A1A430F4B1A40CB6A1343E7E708
:101F60000220EAE7FFFCFFFFFFFBFFFFFFF7FFFF99
:101F7000FFEFFFFFFFDFFFFFFFBFFFFFFFFFF0FFF0
:101F8000FFFFFFEF002C0140FFFF0FFFFFFFFFFEF1
:101F9000FFFFFFFDFFFFFFDF30B587B00500214BDE
:101FA0001A6C8021C9020A431A641B6C0B4000930F
:101FB000009B02AC01A92000FFF760F8059B002BF5
:101FC00017D1FFF747F8184903F040FB421E174BA3
:101FD000174918001960174BC36042600023036162
:101FE00083608361FFF7AEFE041E06D0200007B0B9
:101FF00030BDFFF72FF84000E5E70C48FFF7FEF98A
:10200000041EF3D11620FEF757FB032D01D901243E
:10201000ECE7002229001620FEF74AFB064B9D60E4
:10202000E4E7C0460010024040420F006C1200205E
:1020300000480140E70300000000002010B5084AF6
:10204000116880235B000B4313600320FFF7A4FF9C
:10205000041E02D00124200010BDFEF753FFFAE752
:102060000020024070B582B0041E00D12FE2036848
:10207000DB073AD5C14A936838210B40D26835391D
:102080000A40102B27D0082B27D0636880225202E9
:10209000934200D180E0A022D202934200D182E09C
:1020A000B64B1A68B6490A401A601A68B5490A4020
:1020B0001A606368002B00D181E0FEF775F9050016
:1020C000AE4B1B689B0310D4FEF76EF9401B6428CF
:1020D000F6D90320FCE18A42D5D1A84B1B689B03AB
:1020E00003D56368002B00D1F4E123689B0732D548
:1020F000A24A936838210B40D26835390A40102B28
:102100006BD0002B6CD19D4A1268520503D5E26852
:10211000002A00D1E0E199484168626912029A4DB3
:1021200029400A434260002B0ED1036897490B40B7
:1021300021690B4303600368DB0A07221340944ABA
:10214000DA401300934A5360924B9868FFF724FFDC
:10215000002800D0C2E123681B0700D481E0874B30
:102160009B6838221340182B73D0A369002B00D131
:10217000B4E0824A116E01230B431366FEF714F993
:1021800005007E4B1B6E9B076BD4FEF70DF9401BC1
:102190000228F6D903209BE1784A116880235B026C
:1021A0000B43136085E7754B19688022D2020A43FE
:1021B0001A601968802252020A431A6079E7FEF712
:1021C000F3F805006D4B1B689B038ED5FEF7ECF80A
:1021D000401B6428F6D903207AE1022A91D192E7C4
:1021E000E368002B22D0654A136868490B402169D7
:1021F0000B431360116880235B000B431360FEF7F1
:10220000D3F805005D4B1B685B0506D4FEF7CCF8E0
:10221000401B0228F6D903205AE158494A686369ED
:102220001B025948024013434B6094E7534A13681A
:1022300059490B401360FEF7B7F805004F4B1B6878
:102240005B0588D5FEF7B0F8401B0228F6D90320BD
:102250003EE14A4B1B6E9B0703D5A369002B00D1BF
:102260003EE123685B0700D49EE0444B9B68382224
:102270001340202B45D0414BDB6BDB004AD43F4B56
:10228000DA6B802149050A43DA63DB6B0B4001936B
:10229000019B0125414B1B68DB053DD5A368012B44
:1022A0004ED0052B51D0354BDA6D01218A43DA65CA
:1022B000DA6D03318A43DA65A368002B4FD0FEF74D
:1022C00073F806002D4BDB6D9B076BD4FEF76CF8A3
:1022D000801B334B9842F5D90320F9E0274A136E4F
:1022E00001218B431366FEF75FF80500234B1B6E3D
:1022F0009B07B6D5FEF758F8401B0228F6D90320F5
:10230000E6E01E4BDB6D9B074ED5A368002B4BD13F
:102310000120DDE00025BDE7204A116880235B0035
:102320000B431360FEF740F806001C4B1B68DB05EF
:10233000B4D4FEF739F8801B0228F6D90320C7E091
:102340000E4AD16D0B43D365B6E70C4BD96D042211
:102350000A43DA65D96D01220A43DA65ACE7FEF774
:1023600023F80600054BDB6D9B071BD5FEF71CF819
:10237000801B0B4B9842F5D90320A9E000100240C6
:10238000FFFFFEFFFFFFFBFFFF80FFFFFFC7FFFF19
:102390000024F40000000020FFFEFFFF007000405A
:1023A00088130000012D1ED0E369002B00D199E0B5
:1023B000544A926838210A40102A60D0022B18D063
:1023C000504A136850490B401360FDF7EDFF0400BD
:1023D0004C4B1B689B014BD5FDF7E6FF001B022809
:1023E000F6D9032074E0474AD36B48490B40D363C6
:1023F000DAE7444A136844490B401360FDF7D4FF01
:102400000500404B1B689B0106D5FDF7CDFF401B27
:102410000228F6D903205BE03A4AD168236A606A51
:102420000343A06A00020343E06A0343206B0343B3
:10243000606B0343364801400B43D360116880232F
:102440005B040B431360D16880235B050B43D360AF
:10245000FDF7AAFF04002B4B1B689B0106D4FDF778
:10246000A3FF001B0228F6D9032031E000202FE053
:10247000244AD36827490B40D360002028E0012B71
:1024800032D0204BDA6803231340216A8B422DD1CE
:1024900070231340616A8B422AD1FE21C901114089
:1024A000A36A1B02994225D1F8239B031340E16ADA
:1024B0008B4221D1E0231B051340216B8B421DD1A0
:1024C000520F5207636B9A421AD1002000E001209C
:1024D00002B070BD0120FBE70120F9E70120F7E71A
:1024E0000120F5E70020F3E70120F1E70120EFE705
:1024F0000120EDE70120EBE70120E9E70120E7E714
:102500000120E5E700100240FFFFFFFEFFFFFFEFA5
:102510008C80C111FCFFFEEE70B504000D00002898
:1025200000D1AAE0574B1A68072313408B4221D3EE
:1025300023689A070ED55B0705D5534A9168E023B7
:10254000DB010B439360504A936850490B40A168EC
:102550000B4393602368DB0754D56368012B20D0BD
:10256000022B3BD0002B3FD1474A126852051CD4A6
:1025700001206AE0434A136807218B432B43136011
:10258000FDF712FF06003F4B1A6807231340AB42CA
:10259000CED0FDF709FF801B3D4A9042F3D90320BE
:1025A00053E0394A1268920369D537498A6807208F
:1025B000824313438B60FDF7F7FE0600324B9B68A6
:1025C00038221A406368DB009A421BD0FDF7ECFE0C
:1025D000801B2F4B9842F1D9032036E02A4A12681B
:1025E0009201E2D4012030E0032B05D0264AD26DBF
:1025F0009207DAD4012028E0234A126E9207D4D43D
:10260000012022E01F4B1B6807221340AB421DD85C
:1026100023685B0706D51C4A93681E490B40E16896
:102620000B439360FEF7B6FC174B9B681B0A0F2207
:102630001340194A9B00D218136A1F221340D84036
:10264000164B58609868FFF7A7FC70BD0D4A1368D9
:1026500007218B432B431360FDF7A6FE0600094BB1
:102660001A6807231340AB42D2D0FDF79DFE801BB2
:10267000074B9842F3D90320E7E70120E5E7012063
:10268000E3E7C0460020024000100240FFF0FFFFD9
:1026900088130000FF8FFFFF5C5D00080000002032
:1026A00010B5806AA423C358984710BD704770477F
:1026B0007047704770477047704770477047124BBC
:1026C00094228350114B04328350114B04328350B7
:1026D000104B04328350104B043283500F4B0432A2
:1026E00083500F4B043283500E4B043283500E4BF9
:1026F000043283500D4B043283500D4B043283500F
:102700000C4B043283507047AF260008AD260008FA
:10271000B3260008B1260008B5260008B726000831
:10272000B9260008BB260008392700083B27000807
:102730003D270008BD260008704770477047F0B578
:10274000C64600B504008368026913434269134317
:10275000C269134301680A68AD48024013430B6025
:1027600022685368AB490B40E1680B435360A16991
:102770002268A94B9A4201D0236A19439368A7485B
:1027800003400B4393602268D36A0F218B43616A35
:102790000B43D3622368A24A934222D0A14A9342B8
:1027A00030D0A14A934264D0A04A934263D09A4A5F
:1027B000934238D0102298498B4266D0E06980233A
:1027C0001B02984200D1ACE0042A00D103E100D9F9
:1027D000DEE0002A00D1E2E0022A00D0D6E09448F0
:1027E000E1E0944A526D03210A40022A33D005D811
:1027F000002A32D0012A32D10332DCE7032A30D159
:102800000532D8E78B4A526D0C210A40082A2AD09B
:1028100005D8002A29D0042ACDD01022CBE70C2AD3
:1028200025D1043AC7E7834A526DC02109010A4005
:10283000802109018A4220D007D8002A1FD0802198
:10284000C9008A421DD10422B5E7C02109018A428C
:1028500019D10822AFE70222ADE70022ABE7102230
:10286000A9E71022A7E70222A5E70022A3E710228A
:10287000A1E700229FE700229DE702229BE70022BA
:1028800099E7102297E7102295E7042A45D007D848
:10289000002A0CD0022A01D1654D0EE00120ACE0E7
:1028A000082A02D180252D0207E00120A5E0FEF7CD
:1028B000D1FB0500002D00D190E0626A5E4B520012
:1028C0009B1860229F5A3900280002F0BFFE6668FC
:1028D00003237343834200D982E03303834200D24F
:1028E00080E0002398463A002800190003F042F8DF
:1028F000050E0B022B430202700841468018594115
:102900003200434603F036F84C4BC2184C4B9A4207
:102910006AD82368D86040466FE0FEF73BFB0500AD
:10292000C8E7042A2FD007D8002A09D0022A01D1EB
:102930003F4809E0012060E0082A05D001205CE062
:10294000FEF788FB002851D065683B4B626A520055
:102950009B186022995A02F079FE40006B08C0185B
:10296000290002F073FE0200103A364B9A423FD81B
:1029700083B20F2293434008083A1040184323685B
:10298000D860002039E0FEF705FBDBE7012034E0EA
:10299000082A02D18020000205E001202DE0FEF788
:1029A00059FB002826D06568234B626A52009B18A9
:1029B0006022995A02F04AFE6B08C018290002F002
:1029C00045FE0200103A1F4B9A4215D8236880B288
:1029D000D860002011E0FEF7DDFAE2E700200CE00D
:1029E00001200AE0012008E0012006E0002004E0C8
:1029F000012002E0002000E0012001236A22A3520E
:102A0000023AA35200236367A36780BCB846F0BDB7
:102A1000F369FFCFFFCFFFFF00800040FFF4FF11FD
:102A2000003801400044004000480040004C004095
:102A30000024F400001002405C5D000800FDFFFF70
:102A4000FFFC0F00EFFF0000836A1B0706D502683A
:102A500053682C490B40816B0B435360836ADB073F
:102A600006D50268536828490B40C16A0B4353607E
:102A7000836A9B0706D50268536824490B40016BA3
:102A80000B435360836A5B0706D50268536820498D
:102A90000B40416B0B435360836ADB0606D502682B
:102AA00093681C490B40C16B0B439360836A9B0680
:102AB00006D50268936818490B40016C0B4393607C
:102AC000836A5B060BD50268536814490B40416C5E
:102AD0000B435360426C80235B039A420AD0836AA3
:102AE0001B0606D5026853680D490B40C16C0B43A9
:102AF00053607047026853680A490B40816C0B436E
:102B00005360ECE7FF7FFFFFFFFFFDFFFFFFFEFFCE
:102B1000FFFFFBFFFFEFFFFFFFDFFFFFFFFFEFFF09
:102B2000FFFFF7FFFFFF9FFF30B5EFF31084012297
:102B300082F3108801680B68124D2B400B6084F300
:102B40001088EFF3108182F31088026893680E4CAE
:102B50002340936081F31088C36E012B06D08C2331
:102B60002022C2500023C366436730BDEFF31081BB
:102B700083F31088026813681024A343136081F361
:102B80001088ECE7DFFEFFFFFEFFFFEFF8B5CE4653
:102B9000474680B506000D0017009946089B9846E9
:102BA0003368DC692C40641B63425C41BC4233D116
:102BB00043460133F4D0FDF7F7FB4B46C01A4045BE
:102BC0002FD84346002B2ED0326813685B07E7D519
:102BD000802DE5D0402DE3D0D3691B0710D4D369F5
:102BE0001B05DDD580231B0113623000FFF79CFF1E
:102BF00090232022F2500C3B0022F25403200CE0E0
:102C0000082414623000FFF78FFF9023F4500C3B30
:102C10000022F254012000E00020C0BCB946B046BA
:102C2000F8BD0320F9E70320F7E730B583B00400CF
:102C300090230022C250FDF7B7FB050023681B68F4
:102C40001B0710D423681B685B072BD42023882222
:102C5000A3500432A3500023E3662367083AA35429
:102C6000002003B030BD8021234B009303000022DD
:102C700089032000FFF78AFF0028E3D0EFF31081DB
:102C8000012383F310882268136880208343136034
:102C900081F3108888232022E250043B0022E25472
:102CA0007D38DEE78021144B00932B000022C903FE
:102CB0002000FFF76BFF0028C8D0EFF3108001223F
:102CC00082F3108821680B680C4D2B400B6080F359
:102CD0001088EFF3108082F3108821688B6893438B
:102CE0008B6080F310888C231F32E250083B002257
:102CF000E2540320B5E7C046FFFFFF01DFFEFFFF00
:102D000010B5041E3CD08823C358002B22D0882342
:102D10002422E2502268136801218B431360A36AC6
:102D2000002B29D12000FFF70AFD012811D02268CD
:102D3000536814490B405360226893682A218B43DF
:102D400093602268116801230B4313602000FFF792
:102D50006CFF10BD84330022C254FFF7B0FCC423C3
:102D6000E358002B04D0C423E35820009847CEE753
:102D7000054BC422A350F6E72000FFF765FED1E71C
:102D80000120E6E7FFB7FFFFE944000810B5EFF3C5
:102D90001081012383F31088026813684024A34341
:102DA000136081F3108888232022C2500023836798
:102DB0009833C358984710BDF8B504000268D3692A
:102DC00010689168BD4D2B420BD19D0611D585062B
:102DD00001D4CD000DD5636F002B01D020009847A2
:102DE000F8BDB74D0E002E40294226D1B54D2842E0
:102DF00023D1E56E012D00D1ABE0DD0202D54D02FD
:102E000000D553E11A0605D5020600D564E1090292
:102E100000D561E15A0602D5420600D563E11A02E7
:102E200002D5420000D562E1DB01D9D50028D7DA0E
:102E3000B823E35820009847D2E7DD0707D5C5053A
:102E400005D501271762902562593A4362519A07C6
:102E500009D5CA0707D52268022515628E35625941
:102E600004273A4362515A0709D5CA0707D5226891
:102E7000042515628C35625902273A4362511A07BC
:102E80000AD5820601D4002E06D0226808261662D2
:102E900090256259324362511A050AD5420108D57C
:102EA000226880252D011562902562592026324323
:102EB00062519022A258002A00D191E79B0608D5C2
:102EC000800601D4C90004D5636F002B01D0200017
:102ED00098479023E25823689B685B0602D4282316
:102EE00013422ED02000FFF71FFE23689B685B066D
:102EF00022D5EFF31081012383F3108822689368B1
:102F000040208343936081F310888023E358002B93
:102F10000DD06D4A9A638023E058FDF741FC0028EC
:102F200000D15DE78023E058836B984758E7A423DE
:102F3000E3582000984753E7A423E358200098471C
:102F40004EE7A423E3582000984790230022E25044
:102F500046E7DD0600D450E7C50600D44DE7102350
:102F6000136223689B685B0664D58023E1580A6876
:102F700053689BB2002B4DD05C20205A984249D90F
:102F80005E22A3520B681B689B060CD502232367A5
:102F9000BE33E3585C22A15A0232A25A891A89B27E
:102FA000200098471CE7EFF31080012383F310887B
:102FB00021680A68454D2A400A6080F31088EFF3C3
:102FC000108083F3108821688A689A438A6080F3AE
:102FD0001088EFF3108083F3108821688A684235E7
:102FE000FF35AA438A6080F310888C222021A150EB
:102FF0000022E266EFF3108183F3108822681368E1
:1030000010208343136081F310888023E058FDF77C
:1030100087FBBBE75C21615A994200D0E0E6136868
:103020009B0600D4DCE602232367BE33E35820006E
:103030009847D5E65C23E35A5E22A15A591A89B211
:10304000A35A002B00D1CBE6002900D1C8E6EFF34C
:103050001085012383F31088206802681C4E3240DB
:10306000026085F31088EFF3108583F310882068E1
:103070008268184E3240826085F310888C222020AE
:10308000A0500022E2666267EFF3108083F310889D
:10309000226813681025AB43136080F31088022365
:1030A0002367BE33E3582000984799E680235B03EB
:1030B0001362B423E3582000984791E60F080000FC
:1030C0000100001020010004A1260008FFFEFFFF00
:1030D000DFFEFFFFFEFFFFEFA36F002B00D17FE6B7
:1030E000200098477CE62000FFF750FE78E6BC23DE
:1030F000E3582000984773E670B58423C35C012B26
:1031000015D08424012606558825242343510268BE
:1031100013681168B1431160064A134000224266E9
:1031200001680B60202343510255002070BD02202E
:10313000FCE7C046FFFFFFDFF0B5C64600B5040060
:10314000436E002B07D101336A228352023A835225
:1031500080BCB846F0BD03689D686D0E072215401F
:103160009B685B0F13400B4E71329046F21841463C
:10317000505CC000084FF95C02F0F2FA6A23E0529A
:1031800076194346F05CC000795D02F0E9FA6823E5
:10319000E052DDE75C5D0008DC5D0008F8B5040086
:1031A0000A008423C35C012B1BD0842501206055B9
:1031B00088262423A35123681F6819688143196056
:1031C00020688368DB00D908114381602000FFF785
:1031D000B3FF23681F602023A35100236355002001
:1031E000F8BD0220FCE7F8B504000B008422825CE5
:1031F000012A1BD084250120605588262422A25153
:103200002268176811688143116022689168084834
:103210000140194391602000FFF78EFF23681F6073
:103220002023A351002363550020F8BD0220FCE7B2
:10323000FFFFFFF1024A9369013393617047C04673
:1032400060010020014BD8697047C0466001002032
:1032500010B5184B9B69002B03D0164B01221A6244
:1032600010BD144B00221A625B6A13499A00D218EF
:1032700090004258002A05D1002B01D0013BF4E711
:1032800072B6FEE714225A438C186068406860608A
:1032900008325218904209D0074A14215943521853
:1032A0005268D168034A91625362D9E7406860600E
:1032B000F2E7C04660010020400A002010B50C4B28
:1032C0001968FF2212040A431A601968FF221206C5
:1032D0000A431A60FDF716F8064B00221A60FCF745
:1032E000D5FFFFF7B5FFFCF7BFFF002010BDC046BC
:1032F00020ED00E00000002070B5C368DC68002C01
:1033000026D0250018352800FCF788FF154B9B694F
:10331000002B1FD1251D2800FCF780FFE36A114A0E
:10332000526A934201D90F4A53629800C018800034
:103330000D4BC0182900FCF74FFFE26A094B9B6A4E
:10334000DB6A9A420BD9074B01221A62012070BD39
:1033500072B6FEE705482900FCF73EFFEDE70020C6
:10336000F5E7C04660010020400A00208C010020E3
:1033700070B504000D0000281DD0FCF7A7FF2268DF
:10338000E36B206C010059435118A1600021A16337
:103390006260013B4343D218E260FF234422A354FE
:1033A0000132A3548D4211D123698B4205D1FCF720
:1033B00099FF012070BD72B6FEE720001030FFF7C4
:1033C0009BFF0028F3D0FCF775FFF0E720001030DA
:1033D000FCF7F4FE20002430FCF7F0FEE7E770B5C0
:1033E0001D00049C002909D12460E06321640121AF
:1033F0002000FFF7BDFF4C23E55470BD2260F4E7C9
:1034000070B584B01D0008AC2378002801D172B6D5
:10341000FEE7002D05D0002A05D0002903D172B6A1
:10342000FEE772B6FEE7002A06D050240394039C00
:10343000502C05D072B6FEE70029F6D072B6FEE732
:10344000039C462401262E550095FFF7C8FF28004F
:1034500004B070BD024B1A6C0260DB6943607047B8
:1034600060010020F8B504000D00002817D00029E5
:1034700017D0FCF72BFF134BD9696368C81A2A6869
:10348000561C18D027680F4E366CB74201D08B42BD
:1034900016D9824207D800232B6001240CE072B6B3
:1034A000FEE772B6FEE75B1A9B182B602000FFF761
:1034B000D1FF002400E00024FCF714FF2000F8BD39
:1034C0000124F9E760010020014B01221A627047D4
:1034D0006001002070B50500FCF7F8FE4523EC5CA8
:1034E00064B201E0013C64B2002C0BDD6B6A002B7E
:1034F00008D028002430FFF7FFFE0028F2D0FFF7A5
:10350000E3FFEFE74523FF22EA54FCF7EBFEFCF76D
:10351000DDFE4423EC5C64B201E0013C64B2002CAB
:103520000BDD2B69002B08D028001030FFF7E4FEDC
:103530000028F2D0FFF7C8FFEFE74423FF22EA5448
:10354000FCF7D0FE70BD70B5002407E0A3001B1986
:103550009800104BC018FCF731FE0134372CF5D918
:103560000D4C260044363000FCF728FE2500583567
:103570002800FCF723FE20002C30FCF71FFE200063
:103580006C30FCF71BFE054C2000FCF717FE666153
:10359000A56170BD400A002060010020E00100200C
:1035A00010B50400FCF792FE204AD3690133D361C1
:1035B0001F4B9B6A002B0CD01C4B1B6A002B0DD1A0
:1035C0001B4B9B6ADA6AE36A9A4207D8184B9C62E3
:1035D00004E0174B9C62D369012B20D0134A536A35
:1035E000013353626364E26A114B5B6A9A4201D908
:1035F0000F4B5A62211D93009B189B000D48181811
:10360000FCF7EAFDFCF76EFE084B1B6A002B05D0A9
:10361000074B9B6ADA6AE36A9A4203D310BDFFF74D
:1036200092FFDBE7FCF746FEF8E7C046E00100202A
:1036300060010020400A0020084B5B691B68002BDA
:1036400004D1064B012252429A627047034B5A69D9
:10365000D268D26852689A62F7E7C046E00100205B
:10366000F8B5384B9B69002B65D1364BDD690135C8
:10367000DD61002D11D1344B5B691B68002B01D03B
:1036800072B6FEE7304B5A69996959619A612D4AC1
:10369000136C01331364FFF7CFFF2B4B9B6AAB42D4
:1036A0003FD90027274B9B6AD96A284A8B005B18B1
:1036B00099008B58012B00D90127224B1B6A002B44
:1036C0003ED001273CE001271F4B5B691B68002BA4
:1036D00029D01D4B5B69DB68DC6863689D4227D39A
:1036E000261D3000FCF79AFDA36A002B03D02000B2
:1036F0001830FCF793FDE26A124B5B6A9A4201D9DB
:10370000104B5A6293009B189800104BC018310060
:10371000FCF762FDE26A0B4B9B6ADB6A9A42D2D2EB
:10372000D2E70027D0E7084B012252429A62B9E75C
:10373000054A9362B6E7044AD36A0133D36200278D
:103740003800F8BD60010020E0010020400A0020A0
:1037500070B5304B9B69002B01D172B6FEE7FCF7C8
:10376000B5FD2C4B9A69013A9A619B69002B4CD1AB
:10377000294BDB69002B01D1002447E00024254BB5
:10378000DB6A002B22D0234EB36BDC68200018309C
:10379000FCF744FD251D2800FCF740FDE36A726A32
:1037A000934201D91B4A53629800C01880001B4BFA
:1037B000C0182900FCF710FDE26A164B9B6ADB6A11
:1037C0009A42DCD3134B01221A62D8E7002C01D0B5
:1037D000FFF732FF104BDC6A002C0AD10D4B1C6A3C
:1037E000002C13D0FCF766FD01240FE0013C002CF7
:1037F00007D0FFF735FF0028F8D0064B01221A62E8
:10380000F4E7054B0022DA62E8E70024FCF76AFDE2
:10381000200070BD60010020E0010020400A00206F
:1038200070B50400FFF706FD304B5B6C002B16D023
:103830002E4B1B6D234247D1002C47D0220008326B
:10384000640702D007239A430832002A45D0274B49
:10385000DB6C934243D32549CC6B3C3104E0FCF74D
:103860005BFCE5E721001C006368934202D22368F9
:10387000002BF7D11D4B5B6CA34232D00D6808358D
:1038800023680B6063689B1A102B08D9A0184107A6
:1038900001D072B6FEE743606260FCF765FC6168C8
:1038A000124AD36C5B1AD364926C934201D20F4AD2
:1038B00093640E4B1B6D0B436360002323600C4A23
:1038C000136B0133136302E0002500E00025FFF7CE
:1038D0003FFF6B0707D072B6FEE70025F7E700252C
:1038E000F5E70025F3E7280070BDC046E0000020A2
:1038F000E001002070B5002823D00500083D6B686A
:10390000104A126D1A4201D172B6FEE70100083961
:103910000968002901D072B6FEE708380400934315
:103920004360FFF787FC6168064AD36C5B18D36479
:103930002800FCF719FC044A536B01335363FFF76B
:1039400007FF70BDE0000020E001002010B504007A
:103950005923C35C002B05D0012B0AD0022B07D0C2
:1039600072B6FEE7006BFFF7C5FF2000FFF7C2FF4E
:1039700010BDFFF7BFFFFBE710B513E0FCF7A6FC97
:103980000B4B9B6FDC68201DFCF748FC094BDA6988
:10399000013ADA619A6B013A9A63FCF7A3FC2000C2
:1039A000FFF7D4FF034B9B6B002BE7D110BDC04644
:1039B00060010020E001002010B5FFF7DDFF034BA0
:1039C0001B68012BF9D9FCF775FCF6E7400A0020CB
:1039D000064B1B6A002B07D0054B9B69002B01D0BF
:1039E000002002E0022000E001207047E0010020FA
:1039F0006001002070B5041E2DD0194B9B6A8342D4
:103A000001D072B6FEE7036D002B01D172B6FEE75E
:103A1000013B0365C16AC26C91421ED0002B01D0EC
:103A2000002019E0051D2800FCF7F8FBE36CE362B9
:103A30003822D21AA2610A4A526A934201D9084A2C
:103A400053629800C0188000064BC0182900FCF78C
:103A5000C3FB012000E0002070BD0020FCE7C04651
:103A600060010020400A002070B504000D00164BD4
:103A7000DE69986A0430FCF7D1FB631C0DD0341961
:103A8000114B9B6A5C60A64210D9104B98690E4B93
:103A9000996A0431FCF7ABFB70BD002DEFD00A4BE7
:103AA000996A04310948FCF797FBF5E7074D686907
:103AB000054B996A0431FCF79AFBAB6AA342EBD938
:103AC000024B9C62E8E7C04660010020E001002054
:103AD00010B5041E0FD0094B9B69002B01D072B6A4
:103AE000FEE7FFF7A7FB00212000FFF7BDFFFFF770
:103AF0002FFE002801D1FCF7DDFB10BD6001002086
:103B000010B5EFF30583002B07D1002801D1002069
:103B100010BDFFF7DDFF0020FAE706204042F7E77F
:103B200010B50120FFF7ECFFFBE710B50C000028F3
:103B300009D0064B996A1831FCF759FB0121200086
:103B4000FFF792FF10BD72B6FEE7C046600100208D
:103B500070B50D00140000280DD0084B996A18317B
:103B6000FCF73AFB002C01D001256D422100280012
:103B7000FFF77AFF70BD72B6FEE7C0466001002015
:103B800070B504000D001600FCF7A0FB4423E35CB5
:103B90005BB201330DD04523E35C5BB201330CD043
:103BA000FCF7A0FBA36B002B0BD02000FFF792FCCF
:103BB00070BD44230022E254EDE745230022E25485
:103BC000EEE72000243032002900FFF7C1FFECE7C8
:103BD00070B588B004001422002103A801F06BFF27
:103BE0002268164B9A4201D008B070BD144B5A6B34
:103BF000012632435A635A6B32400192019A5A6B42
:103C000002252A435A635B6B2B400293029B03AC51
:103C100080235B00039304950795A0202100C00535
:103C2000FCF7ECFE08230393049500230593069309
:103C3000079621000348FCF7E1FED5E7002C014080
:103C40000010024000040050074BDA6B1368002B91
:103C500006D101330360002B04D1D3681868704784
:103C60000023F7E70020FAE7E001002010B54160EB
:103C7000006191420CD8D21A83699A4201D3012083
:103C800010BD011D094B186CFCF7B1FA0020F7E7D5
:103C90009A4201D2994206D2011D044BD86BFCF71F
:103CA000A6FA0020ECE70120EAE7C046E001002088
:103CB00070B582B0FCF70AFB114B5B6C002B03D094
:103CC000FCF710FB02B070BD0D4C0E4E3000FCF73F
:103CD00075FA25005C352800FCF770FAE663256468
:103CE00023007033084A0021009110310A20FFF7A9
:103CF00087FB60640028E3D00449FCF73AFBDFE768
:103D0000E001002028020020A0090020085E000831
:103D100070B504001022002101F0CDFE00252574AD
:103D20006574A574200050301322002101F0C3FEF9
:103D3000200063301322002101F0BDFE9423E550E2
:103D40000433E550200070BD10B50348FFF7E0FFD5
:103D50000248FFF7DDFF10BD0409002068080020BD
:103D600010B5FFF7F1FF10BDF0B5CE46474680B560
:103D70001C4B00221A644021894619004031012061
:103D800084460871FA27BF00CF80FC26B6059E64E2
:103D90000A73154D1D655A65A020C00598654846F3
:103DA00088831248186602248C84190066310A70D0
:103DB000DA66063164460C71CF805E670A73DD6790
:103DC000802504265E51043558514C468C834C3472
:103DD00018512020888492331A70C0BCB946B0466E
:103DE000F0BDC04660020020B01100200004005069
:103DF00010B5FFF7B9FF10BD70B509AC26780224E5
:103E00000470002545708570002444608460C4609F
:103E1000046144618461C461046244628462C46276
:103E2000046385868463C463046444644167826771
:103E3000C3678023049AC2500433059AC250114AC2
:103E40000433C25004331049C15004330F49C150E8
:103E50000833C450043BC4500833C450043306999B
:103E6000C1500300A0330799596008999960DA603E
:103E7000074A1A61074A5A61DC619C611C62C423CB
:103E8000C65470BD6F12833900004843000048C318
:103E90000000C0400000C0C0F0B5D6464F464646C0
:103EA000C0B586B0274A284828499061D161284882
:103EB0002849106251620023984613850025D56277
:103EC0001563130044339363A021C905D1634023D4
:103ED0001020D052204C40462085E562256320000A
:103EE0004430A063E1631D49E152FE27BF0528323B
:103EF0001B4E310040311B483F3B05930495039511
:103F00000297194B9A460193FC239B05994600930F
:103F10003B1CFFF771FF2200283231006C3113483F
:103F200043460593049503950297534601934B46E8
:103F300000933B1CFFF760FF06B0E0BCBA46B146F9
:103F4000A846F0BDE0020020F004EC71476F73401A
:103F50005260AEFB229DE740600300200080FFFF1F
:103F600060020020A0070020CDCCCC3DD806002068
:103F700010B5FFF791FF10BD044B002228215A54C1
:103F8000DA621A635A659A657047C046E0030020FA
:103F900010B5FFF7F1FF10BD72B6FEE710B588B09F
:103FA00004001422002103A801F085FD22681F4BA4
:103FB0009A4201D008B010BD1D4B1A6C80214903F4
:103FC0000A431A641A6C0A400192019A596B012241
:103FD000114359635B6B13400293029B03A9039245
:103FE00003234B60A020C005FCF708FD1148124BCD
:103FF00003660523436600238366C3668022026747
:104000008021490041678021C9008167C3678350CF
:104010006030FCF79BFC002805D1064B074A22655F
:1040200088229C50C6E7FFF7B7FFC0460024014036
:1040300000100240E003002058000240400400202D
:1040400030B583B0040000230193002800D104E1BF
:10405000836D002B13D023689A68D2001CD4996812
:104060007F4A1140802252050A439A607D4B58686E
:104070007D4901F0EBFA01304000019009E0FFF7C3
:104080008DFF0023E3655422A354E4E7019B013B29
:104090000193019B002BF9D123689A68D20000D5C7
:1040A0009BE0A16D10220A43A265E26D012002434C
:1040B000E2659A6804210D001540114200D00125E7
:1040C000A26DD20600D5C1E0002D00D0BEE0A16DEA
:1040D000664A11400632FF320A43A2659A68D20747
:1040E00052D4A268217E89030A43617EC9030A4330
:1040F000A57E69030A43216B002901D08021490173
:104100000A43E1680A432169002968DB80218903A9
:104110000A432C21615C49000A432021615C01298A
:1041200060D0616A002905D0E0256D002940A56AAC
:1041300029430A43D9684E4D29400A43DA6063682F
:104140009B0F9B07E26C1A433C21615C012958D00C
:1041500021680B69474D2B4013430B616368C022F4
:104160001206934210D08022D20593420CD08022B6
:104170001206934208D040490A68404D2A40F02573
:10418000AD032B4013430B602268616B5369072515
:10419000AB430B4353612168A26B4B696935AB4359
:1041A000120113434B612369002B34D12268916AB9
:1041B000103B0B43936223685B6907221340626BD9
:1041C0009A423AD0A26D12239A43023B1343A3654D
:1041D000E36D01200343E3653DE0002069E749000A
:1041E000490895E7002D03D1802149020A4398E749
:1041F000A56D20212943A165E56D01212943E165D4
:104200008FE7216C0B43616C0B43A16C0B43134391
:1042100001221A439CE7802292039342CBD121686A
:104220008B6AE369013B9B001C2213402C3A9A40A5
:104230001300226E13438B62BDE70023E365A26D7A
:1042400003339A43023B1343A36504E0A26D10239A
:104250001343A365012003B030BD0120FBE7C04636
:10426000E8FFFF6F00000020400D0300FDFEFFFF90
:104270000102DEFF02FCFF1F08270140FFFFC3FF12
:1042800010B584B00C22002101A801F014FC1B4BD6
:104290001B4ADA63802212061A6400225A649A6466
:1042A000DA640421196518003C300276427603393D
:1042B000817699651A665A661C0068342170DA6640
:1042C000023119675967190078310A7088215A50EC
:1042D000FFF7B6FE00280CD101A9012301930023AA
:1042E0004B608B600748FCF765F8002803D104B0E9
:1042F00010BDFFF751FEFFF74FFEC04660040020DF
:10430000002401409C04002010B51348134B0362A5
:10431000134B4362002383620122C262036343633F
:104320008363C36303642030FCF728FD00280CD1AD
:104330000C480021FCF790FD002808D10948002115
:10434000FCF7B6FD002804D110BDFFF725FEFFF7EE
:1043500023FEFFF721FEC046E00400200058004085
:104360006621C1000005002010B51348134B4364BB
:1043700082235B00836480231B02C364E023DB0091
:10438000036502234365013B836580239B00C3656E
:10439000F13BFF3B0366002343668366C366072247
:1043A0000267436783674430FCF7A6FF002800D10B
:1043B00010BDFFF7F1FDC046E002002000300140D3
:1043C00010B51348134B436482235B00836480233E
:1043D0001B02C364E023DB00036502234365013B4A
:1043E000836580239B00C365F13BFF3B036600238D
:1043F00043668366C3660722026743678367443068
:10440000FCF77AFF002800D110BDFFF7C5FDC046BC
:10441000600300200038004010B590B00400342242
:10442000002103A801F047FB23682C4A934208D0DF
:104430008022D205934221D0294A934230D010B035
:1044400010BD80239B03039303A8FCF731FE0028D3
:1044500012D1244B1A6C802109010A431A641B6C87
:104460000B400093009B002203210E20FCF720F953
:104470000E20FCF721F9E2E7FFF78EFD194AD16B18
:1044800001231943D163D26B13400193019B002296
:1044900003210F20FCF70CF90F20FCF70DF9CEE7F4
:1044A0008023DB03039303A8FCF702FE002812D14C
:1044B0000C4B1A6C802149020A431A641B6C0B4096
:1044C0000293029B002203211420FCF7F1F8142030
:1044D000FCF7F2F8B3E7FFF75FFDC046002C0140A0
:1044E0000040014000100240F0B5C64600B598B04B
:1044F00004001422002113A801F0DDFA3422002167
:1045000006A801F0D8FA2368714A934207D0714A8D
:10451000934200D16EE018B080BCB846F0BD0223D3
:10452000069306A8FCF7C4FD00285DD16A4BDA6B40
:10453000802189020A43DA63DA6B0A400192019A08
:10454000596B0122114359635B6B13400293029B29
:1045500013A90C2313930A3B4B6000258D60CD609B
:104560000A61A020C005FCF749FA5C485C4B436730
:1045700034238367C5674C33C55084228350083386
:10458000C5500433C5500433C5500433C55074308E
:10459000FCF7DCF9002829D18022504B1900743136
:1045A000A1509C215C504F484F4B03653523436518
:1045B000253B83650023C365026643668366C36645
:1045C00003675030FCF7C2F9002811D1454B1A009F
:1045D0005032E2679C67002203211C20FCF768F838
:1045E0001C20FCF769F896E7FFF7D6FCFFF7D4FC30
:1045F000FFF7D2FC384BDA6B8021C9020A43DA6339
:10460000DA6B0A400392039A5A6B01273A435A63C2
:104610005A6B3A400492049A5A6B02252A435A6311
:104620005B6B2B400593059B13AE202313931495CE
:104630001C3B98461793A0203100C005FCF7DEF91B
:104640001397149500251595169543461793310039
:104650002648FCF7D3F92648264BC362362303636A
:10466000456385634A33C363056445648564C564F3
:104670002C30FCF76BF9002826D180221C4B190046
:104680002C31A1505C651C481C4B83603723C360F0
:10469000273B0361002343618261C361036243627C
:1046A00083620830FCF752F900280FD1124B1A0030
:1046B0000832E2671C63002203211D20FBF7F8FF8C
:1046C0001D20FBF7F9FF26E7FFF766FCFFF764FC08
:1046D000004400400048004000100240E004002078
:1046E00008000240600500201C0002400004005049
:1046F000E005002030000240600600204400024037
:1047000000B59DB01022002118A801F0D4F90C22A8
:10471000002115A801F0CFF91C2200210EA801F0FC
:10472000CAF93422002101A801F0C5F93448354BFB
:104730000360354B436000238360FA229200C2601D
:10474000036143618361FDF7FDFA00284AD18023AC
:104750005B0118932A4818A9FDF728FA002843D1CD
:104760002748FDF72BFB002840D115A900231593FE
:104770004B608B602248FDF76DFB002838D10EA9F5
:1047800060230E9300224A608A60CA600A614A610F
:104790008A611B48FDF70AF900282BD1184804222A
:1047A0000EA9FDF703F9002826D101A900230193E2
:1047B0004B608B60CB600B61802292014A618B6100
:1047C000CB610B62802292044A628B62CB620B63E4
:1047D0000B48FDF77FFB002810D10948FFF7F8F9D7
:1047E0001DB000BDFFF7D8FBFFF7D6FBFFF7D4FBEA
:1047F000FFF7D2FBFFF7D0FBFFF7CEFBFFF7CCFBB9
:10480000B0110020002C01407F02000000B58FB0E5
:10481000102200210AA801F04EF90C22002107A85D
:1048200001F049F91C220021684601F044F92448AE
:104830008023DB050360272343600023836063221A
:10484000C26003618361FDF77DFA00282BD18023CC
:104850005B010A931A480AA9FDF7A8F9002824D198
:104860001748FDF7ABFA002821D107A900230793C9
:104870008B601348FDF7EEFA00281AD169466023D1
:10488000009300220192029204920D48FDF78EF8E7
:10489000002810D10A4804226946FDF787F800284D
:1048A0000BD10FB000BDFFF777FBFFF775FBFFF7EC
:1048B00073FBFFF771FBFFF76FFBFFF76DFBC04664
:1048C000F410002000B589B01022002104A801F0E6
:1048D000F2F80C22002101A801F0EDF81448154B64
:1048E0000360002343608360134AC2600361436135
:1048F0008361FDF727FA002813D180235B0104931D
:104900000B4804A9FDF752F900280CD101A9002396
:1049100001938B600648FDF79DFA002805D109B088
:1049200000BDFFF739FBFFF737FBFFF735FBC0464C
:104930003810002000400140FFFF000010B517486C
:10494000174B0360FA23DB02436000238360C360DC
:1049500003610C2242618361C3610362436283622B
:10496000FEF7CEF9002811D10C480021FEF716FC05
:1049700000280DD109480021FEF735FC002809D197
:104980000648FEF7B9FB002806D110BDFFF704FB6F
:10499000FFF702FBFFF700FBFFF7FEFA6C0F0020AA
:1049A0000044004010B50C480C4B0360FA23DB02B6
:1049B000436000238360C36003610C224261836112
:1049C000C361036243628362FEF79AF9002800D153
:1049D00010BDFFF7E1FAC046A00E002000480040DD
:1049E00010B592B004AC38220021200001F063F829
:1049F00010220021684601F05EF880208000FCF75C
:104A00009FFA022304938022520007920022089208
:104A1000402109910B930C930D9206330E93802342
:104A20009B020F93C023DB04109380239B051193FB
:104A30002000FDF717FB00280ED1684607230093DE
:104A4000053B01930023029303930221FDF764FDCC
:104A5000002803D112B010BDFFF79EFAFFF79CFAB1
:104A600070B504001500866B026C002A0CD1036837
:104A7000002B03D000200136A66370BD8068FEF7CE
:104A8000B9FF0023A360F6E7002D0DD1406801F0C7
:104A900045F86368226C9B186360A26893421AD33E
:104AA000236863602800E6E7C06801F037F8E36830
:104AB000226C51429B1AE3602268934202D2A3689F
:104AC0005B18E360022D01D00020D4E7002E04D053
:104AD000013E0020CFE72800CDE70020CBE7F0B56E
:104AE00085B004000F0001921D00002808D00029A5
:104AF00008D0022D0BD1E36B012B08D072B6FEE774
:104B000072B6FEE7036C002BF3D072B6FEE7FEF739
:104B10005FFF061E04D1019B002B32D072B6FEE768
:104B200000262EE02A0039002000FFF799FF636A73
:104B3000002B06D100280DD1FBF7D4FB012005B0D6
:104B4000F0BD20002430FEF7D7FB0028F4D0FBF79F
:104B5000B1FBF1E7FBF7AEFBEEE7FBF7C3FB002091
:104B6000EDE702A8FEF776FC013617E00022E254DA
:104B70001FE00022E25421E02000FEF7ABFCFEF72C
:104B8000E7FDFBF7A3FBA26BE36B9A42CAD3022DAE
:104B9000C8D0019B002BE0D0002EE2D0FBF7A2FB97
:104BA000FEF748FBFBF792FB4423E25C52B2013272
:104BB000DCD04523E25C52B20132DAD0FBF792FB43
:104BC00001A902A8FEF74EFC002813D12000FBF734
:104BD000C1FB0028D0D0019920001030FEF7A5FFBE
:104BE0002000FEF777FCFEF7B3FD0028C9D1FBF7E4
:104BF00061FBC6E72000FEF76DFCFEF7A9FD002073
:104C00009DE710B5030008001A6C002A0AD0DC6882
:104C1000A418DC6099688C4201D31968D960D968FE
:104C200000F07CFF10BDF0B585B004000E000192CD
:104C300000280AD000290AD0FEF7CAFE051E0BD1B3
:104C4000019B002B42D072B6FEE772B6FEE7036C02
:104C5000002BF1D072B6FEE7002537E031002000CE
:104C6000FFF7CFFF013FA7632369002B04D1FBF7B8
:104C700039FB012005B0F0BD20001030FEF73CFBF1
:104C80000028F4D0FBF716FBF1E7FBF72BFB002025
:104C9000F0E702A8FEF7DEFB013521E04423002205
:104CA000E25428E045230022E25429E02000FEF7E8
:104CB00011FCFEF74DFD09E02000FEF70BFCFEF7AE
:104CC00047FD2000FBF738FB002835D1FBF7FEFA43
:104CD000A76B002FC2D1019B002BD6D0002DD8D0BE
:104CE000FBF700FBFEF7A6FAFBF7F0FA4423E35CC0
:104CF0005BB20133D2D04523E35C5BB20133D1D048
:104D0000FBF7F0FA01A902A8FEF7ACFB0028D3D10B
:104D10002000FBF711FB0028C8D0019920002430A7
:104D2000FEF703FF2000FEF7D5FBFEF711FD00287C
:104D3000CCD1FBF7BFFAC9E700209BE7F0B5DE4610
:104D400057464646C0B582460F0014009B46089E53
:104D50000A9D286B9200A52100F0ADFE2B6B204A26
:104D600094466444A4001B19072293439846002FDD
:104D700032D000240F2C07D83A5D2B1934331A7027
:104D8000002A01D00134F5E743230022EA54372EEC
:104D900000D93726EE62EE6400242C65281DFBF74F
:104DA00018FA28001830FBF714FA2D6138239B1BE2
:104DB000AB616D626C655823EC545A4651464046CF
:104DC000FBF73FFA2860099B002B00D01D60E0BC78
:104DD000BB46B246A846F0BD34230022EA54D6E7CB
:104DE000FFFFFF3F70B586B00B9C002C09D00C9CD8
:104DF000002C08D05C240494049C5C2C05D072B672
:104E0000FEE772B6FEE772B6FEE7049C0C9C0B9DB3
:104E10002563592402250C9E3555002403940296DF
:104E200005AC01940A9C0094FFF788FF0C98FEF7EC
:104E3000B7FB059806B070BD10B588B0FEF738FF17
:104E4000104B5B6C002B1AD000240794069405AA23
:104E500006A907A8FBF754F90B490C48079B0293D6
:104E6000069B0193022300932300059AFFF7BAFFE4
:104E7000074B5866A04202D0012008B010BD72B6A0
:104E8000FEE7C046E0010020105E0008395400082B
:104E90006006002010B588B000240794069405AA87
:104EA00006A907A8FBF720F9059A13491348079BA1
:104EB0000293069B019300940023FFF793FF104B8E
:104EC0009866002810D0FFF7B7FF01280DD172B601
:104ED0000C4B012252429A6202321A620A4B0022A1
:104EE000DA61FEF7EBF902E00020013001D008B0F2
:104EF00010BD72B6FEE7C046185E0008B93900085A
:104F000060060020E00100206001002010B5EFF3F2
:104F10000583002B0FD10B4B1B68012B0ED10A4AC6
:104F2000D3691B021B0AD361064B02221A60FFF7EA
:104F3000B1FF002010BD06204042FBE701204042A7
:104F4000F8E7C0466000002000ED00E0F0B587B053
:104F50000490059116001F009000FEF761FC041EEE
:104F60001FD05C20FEF75CFC051E14D004630023F8
:104F700059228354039302900D9B01930C9B009341
:104F80003B00320005990498FFF7D8FE2800FEF791
:104F900007FB012007E02000FEF7ACFC01204042A7
:104FA00001E00120404207B0F0BDF0B5C64600B5B3
:104FB00086B000240594EFF30584002C27D1002847
:104FC00025D0002A3ED015689369002B05D01E001D
:104FD000013B372B02D900201AE018265368DB0763
:104FE00049D45769002F17D0BB0898469368002B07
:104FF00007D0D4685B2C04D91469002C01D0002F91
:1050000016D1002B0BD001235B42002B25D0059835
:1050100006B080BCB846F0BD80239846E6E7D3686A
:10502000002B15D11369002B15D001235B42ECE74F
:105030000293019400960B0042462900FFF7D2FE2E
:105040000590E4E715000023182680229046DCE74F
:1050500001235B42D9E70023D7E743469AB205AB69
:10506000019300960B002900FFF770FF0128CED0B6
:1050700000230593CBE70020CAE710B5034A044894
:105080000021FFF792FF034BD86610BDE45D0008D6
:10509000213B0008600600207047EFF3108072B6D5
:1050A000704780F31088704710B5FFF7F6FF0400D3
:1050B000FEF7D6FA002803D0034B802252051A606F
:1050C0002000FFF7EEFF10BD04ED00E010B5054B2A
:1050D0001B68FEF77DFC012800D110BDFFF7E4FF3F
:1050E000FBE7C04610E000E0F0B5C64600B582B070
:1050F00004000F0001921D00002808D0002908D0EC
:10510000022D0BD1E36B012B08D072B6FEE772B60D
:10511000FEE7036C002BF3D072B6FEE7FFF7BDFF8E
:105120000600A26BE36B9A420AD3022D08D000243A
:105130003000FFF7B6FF200002B080BCB846F0BDDB
:105140004523E35C5BB29846A36B2A00390020003C
:10515000FFF786FC4346013306D0434601335BB27A
:105160004522A3540124E3E7636A002B01D1012403
:10517000DEE720002430FEF7BFF8002806D0019AB1
:10518000002A05D0012313600124D1E70124CFE7D1
:105190000124CDE730B585B014001A00002814D0E2
:1051A000134B5D6C002D21D00091019402900529D4
:1051B00015DCFEF70DFC022809D00D4B586C0023BE
:1051C00000226946FFF78BFC0EE072B6FEE7084B43
:1051D000586C0023089A6946FFF781FC04E000231D
:1051E00069462800FFF780FF05B030BD0020FBE7CF
:1051F000E001002070B582B005000E00134BDB6BA0
:10520000DB68DC68201DFBF709F82823E35C5A07FC
:1052100008D4012293432732A354236A20009847DD
:1052200002B070BDA16949192B0032002000FEF7C1
:105230001DFD0028F1D0002300932A00002120004A
:10524000FFF7A8FF0028E8D172B6FEE7E0010020D2
:1052500070B582B0174BDB6B1A68002A24D0DB686C
:105260001E68DC68251D2800FAF7D8FF236A200095
:1052700098472823E35C5B07ECD5A3699B199E4202
:1052800007D2636024610B4BD86B2900FAF7AFFF9C
:10529000E0E700230093320000212000FFF77AFFAF
:1052A0000028D7D172B6FEE7024A116CD1631364AD
:1052B00002B070BDE001002070B50500FDF7C2FF2F
:1052C0000400074B1B6F834205D800232B60044B5F
:1052D0001C67200070BDFFF7BBFF01232B60F6E7C2
:1052E0006006002070B582B004000D00FDF7A2FF3B
:1052F00001A8FFF7E1FF0600019B002B22D1002D42
:1053000014D1A0420BD2A11B104B586C2A00FEF7FF
:1053100037FCFEF71DFA002811D002B070BDFEF771
:1053200017FA31002000FFF765FFF6E7074A126C15
:105330001268002A01D10125E5E71D00E3E7FAF72D
:10534000B9FFEAE7FEF704FAE7E7C046E00100200C
:1053500010B588B002E0049B002B0FDA344B586C78
:10536000002204A9FFF75FFC00285ED0049B002BFD
:10537000F1DA059A069807999047ECE7069C63696D
:10538000002B02D0201DFAF749FF03A8FFF794FF76
:10539000020004990929E1D88900264B5B589F46F1
:1053A0002821635C012003436354059BA1695918BC
:1053B0002000FEF75BFC0028D0D0236A200098472D
:1053C0002823E35C5B07C9D5059AA369D21800239B
:1053D000009300212000FFF7DDFE0028BED172B649
:1053E000FEE72822A35C01218B43A354B6E72821C2
:1053F000635C0120034363540599A161002905D032
:10540000891813002000FEF731FCA7E772B6FEE70B
:105410002823E35C9A0704D5012293432732A3543F
:105420009CE72000FEF766FA98E708B010BDC0467A
:10543000E0010020345D000800B583B001A8FEF74C
:1054400003FC0199FFF74EFFFFF782FFF6E7EFF34A
:1054500009800F4B1A6820381060F0C044464D4652
:1054600056465F46F0C008B572B6FDF7F1FE62B66B
:105470000CBC116808681030F0C8A046A946B246B6
:10548000BB4680F309882038F0C81847C046C0469C
:1054900088010020FEE7FEE710B50248FBF7C0F9DF
:1054A00010BDC0465405002010B50348FBF7B8F9FD
:1054B0000248FBF7B5F910BDB00500200C0600202E
:1054C00010B50348FBF7ACF90248FBF7A9F910BD8A
:1054D000680600204004002010B50248FBF7CBFF0F
:1054E00010BDC046B011002010B50248FBF7C3FF45
:1054F00010BDC046F410002010B50248FBF7BBFFFA
:1055000010BDC0463810002010B50248FBF7B3FFAD
:1055100010BDC0466C12002010B50248FDF74CFCCF
:1055200010BDC0466C0F002010B50248FDF744FCCA
:1055300010BDC046A00E00200120704710B500F03D
:10554000C3FA162303600120404210BD10B50121AB
:105550004942FFF7F3FFFEE770B50C001600002587
:1055600004E000E000BF207001350134B542F8DBF3
:10557000300070BD70B51600002405E04D1C0878A1
:1055800000E000BF01342900B442F7DB300070BDF9
:1055900001204042704780239B014B6000207047F0
:1055A000012070470020704710B503000C4A0D49D8
:1055B000521A0D49496F002907D00B49486FC3188B
:1055C000934206D8084A536710BD07490748486701
:1055D000F3E700F079FA0C23036001204042F3E77F
:1055E00000900020000800006006002018550020F0
:1055F000704710B5FCF722FDFFF7F2F9FBF744FB0B
:10560000FBF766F8FEF73CFEFEF7AEFEFFF796F9F5
:10561000FFF7C8F9FEF778FEFFF772F8FEF7D0FE45
:10562000FFF750F9FFF7F2F8FAF74AFDFFF725FD0B
:10563000FFF76CFCFEE710B5FEF7AAFCFEF798FC3E
:10564000FEF7D6FBFEF78CFB10BDC04600224308D8
:105650008B4274D303098B425FD3030A8B4244D33A
:10566000030B8B4228D3030C8B420DD3FF2209027C
:1056700012BA030C8B4202D31212090265D0030B3B
:105680008B4219D300E0090AC30B8B4201D3CB0331
:10569000C01A5241830B8B4201D38B03C01A524173
:1056A000430B8B4201D34B03C01A5241030B8B4275
:1056B00001D30B03C01A5241C30A8B4201D3CB0260
:1056C000C01A5241830A8B4201D38B02C01A524145
:1056D000430A8B4201D34B02C01A5241030A8B4248
:1056E00001D30B02C01A5241CDD2C3098B4201D360
:1056F000CB01C01A524183098B4201D38B01C01ADE
:10570000524143098B4201D34B01C01A5241030954
:105710008B4201D30B01C01A5241C3088B4201D303
:10572000CB00C01A524183088B4201D38B00C01AB0
:10573000524143088B4201D34B00C01A5241411AD7
:1057400000D20146524110467047FFE701B50020E4
:1057500000F0F0F802BDC0460029F7D076E77047A8
:1057600003460B437FD4002243088B4274D30309C2
:105770008B425FD3030A8B4244D3030B8B4228D363
:10578000030C8B420DD3FF22090212BA030C8B4289
:1057900002D31212090265D0030B8B4219D300E029
:1057A000090AC30B8B4201D3CB03C01A5241830BAE
:1057B0008B4201D38B03C01A5241430B8B4201D35E
:1057C0004B03C01A5241030B8B4201D30B03C01A87
:1057D0005241C30A8B4201D3CB02C01A5241830A01
:1057E0008B4201D38B02C01A5241430A8B4201D330
:1057F0004B02C01A5241030A8B4201D30B02C01A5A
:105800005241CDD2C3098B4201D3CB01C01A5241C0
:1058100083098B4201D38B01C01A524143098B4249
:1058200001D34B01C01A524103098B4201D30B0132
:10583000C01A5241C3088B4201D3CB00C01A524157
:1058400083088B4201D38B00C01A524143088B421C
:1058500001D34B00C01A5241411A00D201465241B5
:10586000104670475DE0CA0F00D04942031000D3D4
:105870004042534000229C4603098B422DD3030A29
:105880008B4212D3FC22890112BA030A8B420CD339
:10589000890192118B4208D3890192118B4204D362
:1058A00089013AD0921100E08909C3098B4201D3E2
:1058B000CB01C01A524183098B4201D38B01C01A1C
:1058C000524143098B4201D34B01C01A5241030993
:1058D0008B4201D30B01C01A5241C3088B4201D342
:1058E000CB00C01A524183088B4201D38B00C01AEF
:1058F0005241D9D243088B4201D34B00C01A5241C6
:10590000411A00D20146634652415B10104601D352
:105910004042002B00D54942704763465B1000D3DC
:10592000404201B5002000F005F802BD0029F8D082
:1059300016E770477047C0461C2101231B0498429C
:1059400001D3000C10391B0A984201D3000A083910
:105950001B09984201D30009043902A2105C4018C7
:105960007047C0460403020201010101000000006B
:1059700000000000002B11D1002A0FD1002900D116
:10598000002802D00021C943080007B4024802A140
:105990004018029003BDC0469DFFFFFF03B4684658
:1059A00001B5029800F0C4F8019B9E4602B00CBC01
:1059B0007047C04610B5002903D1FFF7BDFF203066
:1059C00002E00800FFF7B8FF10BDC0460448054BD1
:1059D00010B5834203D0044B002B00D0984710BD74
:1059E0005C0000205C000020000000000648074921
:1059F000091A8B10C90FC91810B5491003D0044BF0
:105A0000002B00D0984710BD5C0000205C000020F7
:105A10000000000010B5074C2378002B09D1FFF7D8
:105A2000D5FF054B002B02D0044800E000BF012346
:105A3000237010BDC053002000000000C85C0008A7
:105A4000054B10B5002B03D00449054800E000BF0A
:105A5000FFF7CCFF10BDC04600000000C45300207B
:105A6000C85C00080D488546FFF7C2FD0C480D498B
:105A70000D4A002302E0D458C4500433C4188C42A9
:105A8000F9D30A4A0A4C002301E013600432A2420F
:105A9000FBD300F01FF8FFF7ACFDFEE700900020FD
:105AA000000000205C000020405E00086000002034
:105AB00014550020FEE703008218934200D170477E
:105AC00019700133F9E70000014B18687047C046B0
:105AD0000C00002070B500260C4C0D4D641BA4106A
